GAS LISTING /tmp/ccPGKZum.s 			page 1


   1               		.file	"main.c"
   2               	__SP_H__ = 0x3e
   3               	__SP_L__ = 0x3d
   4               	__SREG__ = 0x3f
   5               	__tmp_reg__ = 0
   6               	__zero_reg__ = 1
   7               		.stabs	"/home/nils/Dropbox/Elektronik/Rundenz\303\244hler/",100,0,2,.Ltext0
   8               		.stabs	"main.c",100,0,2,.Ltext0
   9               		.text
  10               	.Ltext0:
  11               		.stabs	"gcc2_compiled.",60,0,0,0
  12               		.stabs	"int:t(0,1)=r(0,1);-32768;32767;",128,0,0,0
  13               		.stabs	"char:t(0,2)=@s8;r(0,2);0;255;",128,0,0,0
  14               		.stabs	"long int:t(0,3)=@s32;r(0,3);020000000000;017777777777;",128,0,0,0
  15               		.stabs	"unsigned int:t(0,4)=r(0,4);0;0177777;",128,0,0,0
  16               		.stabs	"long unsigned int:t(0,5)=@s32;r(0,5);0;037777777777;",128,0,0,0
  17               		.stabs	"long long int:t(0,6)=@s64;r(0,6);01000000000000000000000;0777777777777777777777;",128,0,0,
  18               		.stabs	"long long unsigned int:t(0,7)=@s64;r(0,7);0;01777777777777777777777;",128,0,0,0
  19               		.stabs	"short int:t(0,8)=r(0,8);-32768;32767;",128,0,0,0
  20               		.stabs	"short unsigned int:t(0,9)=r(0,9);0;0177777;",128,0,0,0
  21               		.stabs	"signed char:t(0,10)=@s8;r(0,10);-128;127;",128,0,0,0
  22               		.stabs	"unsigned char:t(0,11)=@s8;r(0,11);0;255;",128,0,0,0
  23               		.stabs	"float:t(0,12)=r(0,1);4;0;",128,0,0,0
  24               		.stabs	"double:t(0,13)=r(0,1);4;0;",128,0,0,0
  25               		.stabs	"long double:t(0,14)=r(0,1);4;0;",128,0,0,0
  26               		.stabs	"short _Fract:t(0,15)=r(0,1);1;0;",128,0,0,0
  27               		.stabs	"_Fract:t(0,16)=r(0,1);2;0;",128,0,0,0
  28               		.stabs	"long _Fract:t(0,17)=r(0,1);4;0;",128,0,0,0
  29               		.stabs	"long long _Fract:t(0,18)=r(0,1);8;0;",128,0,0,0
  30               		.stabs	"unsigned short _Fract:t(0,19)=r(0,1);1;0;",128,0,0,0
  31               		.stabs	"unsigned _Fract:t(0,20)=r(0,1);2;0;",128,0,0,0
  32               		.stabs	"unsigned long _Fract:t(0,21)=r(0,1);4;0;",128,0,0,0
  33               		.stabs	"unsigned long long _Fract:t(0,22)=r(0,1);8;0;",128,0,0,0
  34               		.stabs	"_Sat short _Fract:t(0,23)=r(0,1);1;0;",128,0,0,0
  35               		.stabs	"_Sat _Fract:t(0,24)=r(0,1);2;0;",128,0,0,0
  36               		.stabs	"_Sat long _Fract:t(0,25)=r(0,1);4;0;",128,0,0,0
  37               		.stabs	"_Sat long long _Fract:t(0,26)=r(0,1);8;0;",128,0,0,0
  38               		.stabs	"_Sat unsigned short _Fract:t(0,27)=r(0,1);1;0;",128,0,0,0
  39               		.stabs	"_Sat unsigned _Fract:t(0,28)=r(0,1);2;0;",128,0,0,0
  40               		.stabs	"_Sat unsigned long _Fract:t(0,29)=r(0,1);4;0;",128,0,0,0
  41               		.stabs	"_Sat unsigned long long _Fract:t(0,30)=r(0,1);8;0;",128,0,0,0
  42               		.stabs	"short _Accum:t(0,31)=r(0,1);2;0;",128,0,0,0
  43               		.stabs	"_Accum:t(0,32)=r(0,1);4;0;",128,0,0,0
  44               		.stabs	"long _Accum:t(0,33)=r(0,1);8;0;",128,0,0,0
  45               		.stabs	"long long _Accum:t(0,34)=r(0,1);8;0;",128,0,0,0
  46               		.stabs	"unsigned short _Accum:t(0,35)=r(0,1);2;0;",128,0,0,0
  47               		.stabs	"unsigned _Accum:t(0,36)=r(0,1);4;0;",128,0,0,0
  48               		.stabs	"unsigned long _Accum:t(0,37)=r(0,1);8;0;",128,0,0,0
  49               		.stabs	"unsigned long long _Accum:t(0,38)=r(0,1);8;0;",128,0,0,0
  50               		.stabs	"_Sat short _Accum:t(0,39)=r(0,1);2;0;",128,0,0,0
  51               		.stabs	"_Sat _Accum:t(0,40)=r(0,1);4;0;",128,0,0,0
  52               		.stabs	"_Sat long _Accum:t(0,41)=r(0,1);8;0;",128,0,0,0
  53               		.stabs	"_Sat long long _Accum:t(0,42)=r(0,1);8;0;",128,0,0,0
  54               		.stabs	"_Sat unsigned short _Accum:t(0,43)=r(0,1);2;0;",128,0,0,0
  55               		.stabs	"_Sat unsigned _Accum:t(0,44)=r(0,1);4;0;",128,0,0,0
  56               		.stabs	"_Sat unsigned long _Accum:t(0,45)=r(0,1);8;0;",128,0,0,0
  57               		.stabs	"_Sat unsigned long long _Accum:t(0,46)=r(0,1);8;0;",128,0,0,0
GAS LISTING /tmp/ccPGKZum.s 			page 2


  58               		.stabs	"void:t(0,47)=(0,47)",128,0,0,0
  59               		.stabs	"/usr/avr/include/avr/io.h",130,0,0,0
  60               		.stabs	"/usr/avr/include/avr/sfr_defs.h",130,0,0,0
  61               		.stabs	"/usr/avr/include/inttypes.h",130,0,0,0
  62               		.stabs	"/usr/lib/gcc/avr/4.8.2/include/stdint.h",130,0,0,0
  63               		.stabs	"/usr/avr/include/stdint.h",130,0,0,0
  64               		.stabs	"int8_t:t(5,1)=(0,10)",128,0,121,0
  65               		.stabs	"uint8_t:t(5,2)=(0,11)",128,0,122,0
  66               		.stabs	"int16_t:t(5,3)=(0,1)",128,0,123,0
  67               		.stabs	"uint16_t:t(5,4)=(0,4)",128,0,124,0
  68               		.stabs	"int32_t:t(5,5)=(0,3)",128,0,125,0
  69               		.stabs	"uint32_t:t(5,6)=(0,5)",128,0,126,0
  70               		.stabs	"int64_t:t(5,7)=(0,6)",128,0,128,0
  71               		.stabs	"uint64_t:t(5,8)=(0,7)",128,0,129,0
  72               		.stabs	"intptr_t:t(5,9)=(5,3)",128,0,142,0
  73               		.stabs	"uintptr_t:t(5,10)=(5,4)",128,0,147,0
  74               		.stabs	"int_least8_t:t(5,11)=(5,1)",128,0,159,0
  75               		.stabs	"uint_least8_t:t(5,12)=(5,2)",128,0,164,0
  76               		.stabs	"int_least16_t:t(5,13)=(5,3)",128,0,169,0
  77               		.stabs	"uint_least16_t:t(5,14)=(5,4)",128,0,174,0
  78               		.stabs	"int_least32_t:t(5,15)=(5,5)",128,0,179,0
  79               		.stabs	"uint_least32_t:t(5,16)=(5,6)",128,0,184,0
  80               		.stabs	"int_least64_t:t(5,17)=(5,7)",128,0,192,0
  81               		.stabs	"uint_least64_t:t(5,18)=(5,8)",128,0,199,0
  82               		.stabs	"int_fast8_t:t(5,19)=(5,1)",128,0,213,0
  83               		.stabs	"uint_fast8_t:t(5,20)=(5,2)",128,0,218,0
  84               		.stabs	"int_fast16_t:t(5,21)=(5,3)",128,0,223,0
  85               		.stabs	"uint_fast16_t:t(5,22)=(5,4)",128,0,228,0
  86               		.stabs	"int_fast32_t:t(5,23)=(5,5)",128,0,233,0
  87               		.stabs	"uint_fast32_t:t(5,24)=(5,6)",128,0,238,0
  88               		.stabs	"int_fast64_t:t(5,25)=(5,7)",128,0,246,0
  89               		.stabs	"uint_fast64_t:t(5,26)=(5,8)",128,0,253,0
  90               		.stabs	"intmax_t:t(5,27)=(5,7)",128,0,273,0
  91               		.stabs	"uintmax_t:t(5,28)=(5,8)",128,0,278,0
  92               		.stabn	162,0,0,0
  93               		.stabn	162,0,0,0
  94               		.stabs	"int_farptr_t:t(3,1)=(5,5)",128,0,77,0
  95               		.stabs	"uint_farptr_t:t(3,2)=(5,6)",128,0,81,0
  96               		.stabn	162,0,0,0
  97               		.stabn	162,0,0,0
  98               		.stabs	"/usr/avr/include/avr/fuse.h",130,0,0,0
  99               		.stabs	"__fuse_t:t(6,1)=(6,2)=s3low:(0,11),0,8;high:(0,11),8,8;extended:(0,11),16,8;;",128,0,244,0
 100               		.stabn	162,0,0,0
 101               		.stabn	162,0,0,0
 102               		.stabs	"/usr/avr/include/avr/power.h",130,0,0,0
 103               		.stabs	" :T(7,1)=@s8;eclock_div_1:0,clock_div_2:1,clock_div_4:2,clock_div_8:3,clock_div_16:4,clock
 104               		.stabs	"clock_div_t:t(7,2)=(7,1)",128,0,1478,0
 105               		.stabn	162,0,0,0
 106               		.stabs	"setSeg7:F(0,47)",36,0,36,setSeg7
 107               		.stabs	"val:P(5,2)",64,0,36,24
 108               		.stabs	"dp:P(5,2)",64,0,36,22
 109               	.global	setSeg7
 110               		.type	setSeg7, @function
 111               	setSeg7:
 112               		.stabd	46,0,0
   1:main.c        **** /*	Segment A  - PD3	Active Low
   2:main.c        **** 	Segment B  - PD0	Active Low
GAS LISTING /tmp/ccPGKZum.s 			page 3


   3:main.c        **** 	Segment C  - PB6	Active Low
   4:main.c        **** 	Segment D  - PB7	Active Low
   5:main.c        **** 	Segment E  - PD5	Active Low
   6:main.c        **** 	Segment F  - PD4	Active Low
   7:main.c        **** 	Segment G  - PD1	Active Low
   8:main.c        **** 	DP         - PD6	Active Low
   9:main.c        **** 	A1         - PD7	Active Low
  10:main.c        **** 	A2         - PC5	Active Low
  11:main.c        **** 	*
  12:main.c        **** 	* Rundenzähler
  13:main.c        **** */
  14:main.c        **** 
  15:main.c        **** #ifndef F_CPU
  16:main.c        **** #define F_CPU 1000000UL // interner RC-Oszillator mit 1 Mhz
  17:main.c        **** #endif
  18:main.c        **** #include <avr/io.h>
  19:main.c        **** #include <avr/interrupt.h>
  20:main.c        **** #include <util/delay.h>
  21:main.c        **** #include <avr/sleep.h>
  22:main.c        **** #include <avr/power.h>
  23:main.c        **** 
  24:main.c        **** #define SEG0_ON		PORTC &= ~(1<<PC5); PORTD |= (1<<PD7)
  25:main.c        **** #define	SEG1_ON		PORTC |= (1<<PC5); PORTD &= ~(1<<PD7)
  26:main.c        **** #define SEG_OFF		PORTC |= (1<<PC5); PORTD |= (1<<PD7)
  27:main.c        **** 
  28:main.c        **** const uint8_t seg7_PB[10] = {0b00111111, 0b10111111, 0b01111111, 0b00111111, 0b10111111, 0b00111111
  29:main.c        **** const uint8_t seg7_PD[10] = {0b11000110, 0b11111110, 0b11010100, 0b11110100, 0b11101100, 0b11100101
  30:main.c        **** 
  31:main.c        **** volatile uint8_t seg[2] = {0, 0}; //in seg stehen was links und rechts angezeigt werden soll
  32:main.c        **** volatile uint8_t counterVal = 0;
  33:main.c        **** volatile uint32_t timer = 0;
  34:main.c        **** volatile uint8_t wakeup = 0;   //wakeup = 1 ^= gerade aufgewacht -> nicht hochzählen
  35:main.c        **** 
  36:main.c        **** void setSeg7(uint8_t val, uint8_t dp) {
 113               		.stabn	68,0,36,.LM0-.LFBB1
 114               	.LM0:
 115               	.LFBB1:
 116               	/* prologue: function */
 117               	/* frame size = 0 */
 118               	/* stack size = 0 */
 119               	.L__stack_usage = 0
  37:main.c        **** 	if(dp) PORTD &= 0b10111111;
 120               		.stabn	68,0,37,.LM1-.LFBB1
 121               	.LM1:
 122 0000 6623      		tst r22
 123 0002 01F0      		breq .L2
 124               		.stabn	68,0,37,.LM2-.LFBB1
 125               	.LM2:
 126 0004 5E98      		cbi 0xb,6
 127 0006 00C0      		rjmp .L3
 128               	.L2:
  38:main.c        **** 	else PORTD |= 0b01000000;
 129               		.stabn	68,0,38,.LM3-.LFBB1
 130               	.LM3:
 131 0008 5E9A      		sbi 0xb,6
 132               	.L3:
  39:main.c        **** 	
GAS LISTING /tmp/ccPGKZum.s 			page 4


  40:main.c        **** 	if(val > 9) {
 133               		.stabn	68,0,40,.LM4-.LFBB1
 134               	.LM4:
 135 000a 8A30      		cpi r24,lo8(10)
 136 000c 00F0      		brlo .L4
 137               	.LBB6:
 138               	.LBB7:
  41:main.c        **** 		//alle Segmente aus
  42:main.c        **** 		PORTB |= 0b11000000;
 139               		.stabn	68,0,42,.LM5-.LFBB1
 140               	.LM5:
 141 000e 85B1      		in r24,0x5
 142 0010 806C      		ori r24,lo8(-64)
 143 0012 85B9      		out 0x5,r24
  43:main.c        **** 		PORTD |= 0b00111011;
 144               		.stabn	68,0,43,.LM6-.LFBB1
 145               	.LM6:
 146 0014 8BB1      		in r24,0xb
 147 0016 8B63      		ori r24,lo8(59)
 148 0018 8BB9      		out 0xb,r24
 149 001a 0895      		ret
 150               	.L4:
 151               	.LBE7:
 152               	.LBE6:
  44:main.c        **** 		return;
  45:main.c        **** 	}
  46:main.c        **** 	
  47:main.c        **** 	PORTB = (PORTB | 0b11000000) & seg7_PB[val];
 153               		.stabn	68,0,47,.LM7-.LFBB1
 154               	.LM7:
 155 001c 25B1      		in r18,0x5
 156 001e 90E0      		ldi r25,0
 157 0020 FC01      		movw r30,r24
 158 0022 E050      		subi r30,lo8(-(seg7_PB))
 159 0024 F040      		sbci r31,hi8(-(seg7_PB))
 160 0026 206C      		ori r18,lo8(-64)
 161 0028 3081      		ld r19,Z
 162 002a 2323      		and r18,r19
 163 002c 25B9      		out 0x5,r18
  48:main.c        **** 	PORTD = (PORTD | 0b00111011) & seg7_PD[val];
 164               		.stabn	68,0,48,.LM8-.LFBB1
 165               	.LM8:
 166 002e 2BB1      		in r18,0xb
 167 0030 FC01      		movw r30,r24
 168 0032 E050      		subi r30,lo8(-(seg7_PD))
 169 0034 F040      		sbci r31,hi8(-(seg7_PD))
 170 0036 2B63      		ori r18,lo8(59)
 171 0038 8081      		ld r24,Z
 172 003a 2823      		and r18,r24
 173 003c 2BB9      		out 0xb,r18
 174 003e 0895      		ret
 175               		.size	setSeg7, .-setSeg7
 176               	.Lscope1:
 177               		.stabs	"",36,0,0,.Lscope1-.LFBB1
 178               		.stabd	78,0,0
 179               		.section	.text.startup,"ax",@progbits
 180               		.stabs	"main:F(0,1)",36,0,51,main
GAS LISTING /tmp/ccPGKZum.s 			page 5


 181               	.global	main
 182               		.type	main, @function
 183               	main:
 184               		.stabd	46,0,0
  49:main.c        **** }
  50:main.c        **** 
  51:main.c        **** int main(void) {
 185               		.stabn	68,0,51,.LM9-.LFBB2
 186               	.LM9:
 187               	.LFBB2:
 188               	/* prologue: function */
 189               	/* frame size = 0 */
 190               	/* stack size = 0 */
 191               	.L__stack_usage = 0
  52:main.c        **** 	SEG_OFF;
 192               		.stabn	68,0,52,.LM10-.LFBB2
 193               	.LM10:
 194 0000 459A      		sbi 0x8,5
 195 0002 5F9A      		sbi 0xb,7
  53:main.c        **** 
  54:main.c        **** 	//Ausgänge für Anzeigen
  55:main.c        **** 	DDRB = (1<<PB6) | (1<<PB7);
 196               		.stabn	68,0,55,.LM11-.LFBB2
 197               	.LM11:
 198 0004 80EC      		ldi r24,lo8(-64)
 199 0006 84B9      		out 0x4,r24
  56:main.c        **** 	DDRC = (1<<PC5);
 200               		.stabn	68,0,56,.LM12-.LFBB2
 201               	.LM12:
 202 0008 80E2      		ldi r24,lo8(32)
 203 000a 87B9      		out 0x7,r24
  57:main.c        **** 	DDRD = (1<<PD0) | (1<<PD1) | (1<<PD3) | (1<<PD4) | (1<<PD5) | (1<<PD6) | (1<<PD7);
 204               		.stabn	68,0,57,.LM13-.LFBB2
 205               	.LM13:
 206 000c 8BEF      		ldi r24,lo8(-5)
 207 000e 8AB9      		out 0xa,r24
  58:main.c        **** 
  59:main.c        **** 	//Pullup für Taster an PD2
  60:main.c        **** 	PORTD |= (1<<PD2);
 208               		.stabn	68,0,60,.LM14-.LFBB2
 209               	.LM14:
 210 0010 5A9A      		sbi 0xb,2
  61:main.c        **** 
  62:main.c        **** 	TCCR0B |= (1<<CS00); //Timer 0, kein Prescaler
 211               		.stabn	68,0,62,.LM15-.LFBB2
 212               	.LM15:
 213 0012 85B5      		in r24,0x25
 214 0014 8160      		ori r24,lo8(1)
 215 0016 85BD      		out 0x25,r24
  63:main.c        **** 	TIMSK0 |= (1<<TOIE0); //Timer/Counter0 Overflow Interrupt Enable
 216               		.stabn	68,0,63,.LM16-.LFBB2
 217               	.LM16:
 218 0018 8091 6E00 		lds r24,110
 219 001c 8160      		ori r24,lo8(1)
 220 001e 8093 6E00 		sts 110,r24
 221               	.LBB8:
 222               	.LBB9:
GAS LISTING /tmp/ccPGKZum.s 			page 6


 223               		.stabs	"/usr/avr/include/avr/power.h",132,0,0,.Ltext1
 224               	.Ltext1:
   1:/usr/avr/include/avr/power.h **** /* Copyright (c) 2006, 2007, 2008  Eric B. Weddington
   2:/usr/avr/include/avr/power.h ****    All rights reserved.
   3:/usr/avr/include/avr/power.h **** 
   4:/usr/avr/include/avr/power.h ****    Redistribution and use in source and binary forms, with or without
   5:/usr/avr/include/avr/power.h ****    modification, are permitted provided that the following conditions are met:
   6:/usr/avr/include/avr/power.h **** 
   7:/usr/avr/include/avr/power.h ****    * Redistributions of source code must retain the above copyright
   8:/usr/avr/include/avr/power.h ****      notice, this list of conditions and the following disclaimer.
   9:/usr/avr/include/avr/power.h ****    * Redistributions in binary form must reproduce the above copyright
  10:/usr/avr/include/avr/power.h ****      notice, this list of conditions and the following disclaimer in
  11:/usr/avr/include/avr/power.h ****      the documentation and/or other materials provided with the
  12:/usr/avr/include/avr/power.h ****      distribution.
  13:/usr/avr/include/avr/power.h ****    * Neither the name of the copyright holders nor the names of
  14:/usr/avr/include/avr/power.h ****      contributors may be used to endorse or promote products derived
  15:/usr/avr/include/avr/power.h ****      from this software without specific prior written permission.
  16:/usr/avr/include/avr/power.h **** 
  17:/usr/avr/include/avr/power.h ****   THIS SOFTWARE IS PROVIDED BY THE COPYRIGHT HOLDERS AND CONTRIBUTORS "AS IS"
  18:/usr/avr/include/avr/power.h ****   AND ANY EXPRESS OR IMPLIED WARRANTIES, INCLUDING, BUT NOT LIMITED TO, THE
  19:/usr/avr/include/avr/power.h ****   IMPLIED WARRANTIES OF MERCHANTABILITY AND FITNESS FOR A PARTICULAR PURPOSE
  20:/usr/avr/include/avr/power.h ****   ARE DISCLAIMED. IN NO EVENT SHALL THE COPYRIGHT OWNER OR CONTRIBUTORS BE
  21:/usr/avr/include/avr/power.h ****   LIABLE FOR ANY DIRECT, INDIRECT, INCIDENTAL, SPECIAL, EXEMPLARY, OR
  22:/usr/avr/include/avr/power.h ****   CONSEQUENTIAL DAMAGES (INCLUDING, BUT NOT LIMITED TO, PROCUREMENT OF
  23:/usr/avr/include/avr/power.h ****   SUBSTITUTE GOODS OR SERVICES; LOSS OF USE, DATA, OR PROFITS; OR BUSINESS
  24:/usr/avr/include/avr/power.h ****   INTERRUPTION) HOWEVER CAUSED AND ON ANY THEORY OF LIABILITY, WHETHER IN
  25:/usr/avr/include/avr/power.h ****   CONTRACT, STRICT LIABILITY, OR TORT (INCLUDING NEGLIGENCE OR OTHERWISE)
  26:/usr/avr/include/avr/power.h ****   ARISING IN ANY WAY OUT OF THE USE OF THIS SOFTWARE, EVEN IF ADVISED OF THE
  27:/usr/avr/include/avr/power.h ****   POSSIBILITY OF SUCH DAMAGE. */
  28:/usr/avr/include/avr/power.h **** 
  29:/usr/avr/include/avr/power.h **** /* $Id: power.h 2254 2011-09-26 15:06:50Z arcanum $ */
  30:/usr/avr/include/avr/power.h **** 
  31:/usr/avr/include/avr/power.h **** #ifndef _AVR_POWER_H_
  32:/usr/avr/include/avr/power.h **** #define _AVR_POWER_H_   1
  33:/usr/avr/include/avr/power.h **** 
  34:/usr/avr/include/avr/power.h **** #include <avr/io.h>
  35:/usr/avr/include/avr/power.h **** #include <stdint.h>
  36:/usr/avr/include/avr/power.h **** 
  37:/usr/avr/include/avr/power.h **** 
  38:/usr/avr/include/avr/power.h **** /** \file */
  39:/usr/avr/include/avr/power.h **** /** \defgroup avr_power <avr/power.h>: Power Reduction Management
  40:/usr/avr/include/avr/power.h **** 
  41:/usr/avr/include/avr/power.h **** \code #include <avr/power.h>\endcode
  42:/usr/avr/include/avr/power.h **** 
  43:/usr/avr/include/avr/power.h **** Many AVRs contain a Power Reduction Register (PRR) or Registers (PRRx) that 
  44:/usr/avr/include/avr/power.h **** allow you to reduce power consumption by disabling or enabling various on-board 
  45:/usr/avr/include/avr/power.h **** peripherals as needed.
  46:/usr/avr/include/avr/power.h **** 
  47:/usr/avr/include/avr/power.h **** There are many macros in this header file that provide an easy interface
  48:/usr/avr/include/avr/power.h **** to enable or disable on-board peripherals to reduce power. See the table below.
  49:/usr/avr/include/avr/power.h **** 
  50:/usr/avr/include/avr/power.h **** \note Not all AVR devices have a Power Reduction Register (for example
  51:/usr/avr/include/avr/power.h **** the ATmega128). On those devices without a Power Reduction Register, these 
  52:/usr/avr/include/avr/power.h **** macros are not available.
  53:/usr/avr/include/avr/power.h **** 
  54:/usr/avr/include/avr/power.h **** \note Not all AVR devices contain the same peripherals (for example, the LCD
  55:/usr/avr/include/avr/power.h **** interface), or they will be named differently (for example, USART and 
GAS LISTING /tmp/ccPGKZum.s 			page 7


  56:/usr/avr/include/avr/power.h **** USART0). Please consult your device's datasheet, or the header file, to 
  57:/usr/avr/include/avr/power.h **** find out which macros are applicable to your device.
  58:/usr/avr/include/avr/power.h **** 
  59:/usr/avr/include/avr/power.h **** */
  60:/usr/avr/include/avr/power.h **** 
  61:/usr/avr/include/avr/power.h **** 
  62:/usr/avr/include/avr/power.h **** /** \addtogroup avr_power
  63:/usr/avr/include/avr/power.h **** 
  64:/usr/avr/include/avr/power.h **** \anchor avr_powermacros
  65:/usr/avr/include/avr/power.h **** <small>
  66:/usr/avr/include/avr/power.h **** <center>
  67:/usr/avr/include/avr/power.h **** <table border="3">
  68:/usr/avr/include/avr/power.h ****   <tr>
  69:/usr/avr/include/avr/power.h ****     <td width="10%"><strong>Power Macro</strong></td>
  70:/usr/avr/include/avr/power.h ****     <td width="15%"><strong>Description</strong></td>
  71:/usr/avr/include/avr/power.h ****     <td width="75%"><strong>Applicable for device</strong></td>
  72:/usr/avr/include/avr/power.h ****   </tr>
  73:/usr/avr/include/avr/power.h **** 
  74:/usr/avr/include/avr/power.h ****   <tr>
  75:/usr/avr/include/avr/power.h ****     <td>power_adc_enable()</td>
  76:/usr/avr/include/avr/power.h ****     <td>Enable the Analog to Digital Converter module.</td>
  77:/usr/avr/include/avr/power.h ****     <td>ATmega640, ATmega1280, ATmega1281, ATmega128RFA1, ATmega2560, ATmega2561, AT90USB646, AT90U
  78:/usr/avr/include/avr/power.h ****   </tr>
  79:/usr/avr/include/avr/power.h **** 
  80:/usr/avr/include/avr/power.h ****   <tr>
  81:/usr/avr/include/avr/power.h ****     <td>power_adc_disable()</td>
  82:/usr/avr/include/avr/power.h ****     <td>Disable the Analog to Digital Converter module.</td>
  83:/usr/avr/include/avr/power.h ****     <td>ATmega640, ATmega1280, ATmega1281, ATmega128RFA1, ATmega2560, ATmega2561, AT90USB646, AT90U
  84:/usr/avr/include/avr/power.h ****   </tr>
  85:/usr/avr/include/avr/power.h **** 
  86:/usr/avr/include/avr/power.h ****   <tr>
  87:/usr/avr/include/avr/power.h ****     <td>power_lcd_enable()</td>
  88:/usr/avr/include/avr/power.h ****     <td>Enable the LCD module.</td>
  89:/usr/avr/include/avr/power.h ****     <td>ATmega169, ATmega169P, ATmega329, ATmega329A, ATmega3290, ATmega3290A, ATmega649, ATmega649
  90:/usr/avr/include/avr/power.h ****   </tr>
  91:/usr/avr/include/avr/power.h **** 
  92:/usr/avr/include/avr/power.h ****   <tr>
  93:/usr/avr/include/avr/power.h ****     <td>power_lcd_disable().</td>
  94:/usr/avr/include/avr/power.h ****     <td>Disable the LCD module.</td>
  95:/usr/avr/include/avr/power.h ****     <td>ATmega169, ATmega169P, ATmega329, ATmega329A, ATmega3290, ATmega3290A, ATmega649, ATmega649
  96:/usr/avr/include/avr/power.h ****   </tr>
  97:/usr/avr/include/avr/power.h **** 
  98:/usr/avr/include/avr/power.h ****   <tr>
  99:/usr/avr/include/avr/power.h ****     <td>power_pscr_enable()</td>
 100:/usr/avr/include/avr/power.h ****     <td>Enable the Reduced Power Stage Controller module.</td>
 101:/usr/avr/include/avr/power.h ****     <td>AT90PWM81</td>
 102:/usr/avr/include/avr/power.h ****   </tr>
 103:/usr/avr/include/avr/power.h **** 
 104:/usr/avr/include/avr/power.h ****   <tr>
 105:/usr/avr/include/avr/power.h ****     <td>power_pscr_disable()</td>
 106:/usr/avr/include/avr/power.h ****     <td>Disable the Reduced Power Stage Controller module.</td>
 107:/usr/avr/include/avr/power.h ****     <td>AT90PWM81</td>
 108:/usr/avr/include/avr/power.h ****   </tr>
 109:/usr/avr/include/avr/power.h **** 
 110:/usr/avr/include/avr/power.h ****   <tr>
 111:/usr/avr/include/avr/power.h ****     <td>power_psc0_enable()</td>
 112:/usr/avr/include/avr/power.h ****     <td>Enable the Power Stage Controller 0 module.</td>
GAS LISTING /tmp/ccPGKZum.s 			page 8


 113:/usr/avr/include/avr/power.h ****     <td>AT90PWM1, AT90PWM2, AT90PWM2B, AT90PWM3, AT90PWM3B</td>
 114:/usr/avr/include/avr/power.h ****   </tr>
 115:/usr/avr/include/avr/power.h **** 
 116:/usr/avr/include/avr/power.h ****   <tr>
 117:/usr/avr/include/avr/power.h ****     <td>power_psc0_disable()</td>
 118:/usr/avr/include/avr/power.h ****     <td>Disable the Power Stage Controller 0 module.</td>
 119:/usr/avr/include/avr/power.h ****     <td>AT90PWM1, AT90PWM2, AT90PWM2B, AT90PWM3, AT90PWM3B</td>
 120:/usr/avr/include/avr/power.h ****   </tr>
 121:/usr/avr/include/avr/power.h **** 
 122:/usr/avr/include/avr/power.h ****   <tr>
 123:/usr/avr/include/avr/power.h ****     <td>power_psc1_enable()</td>
 124:/usr/avr/include/avr/power.h ****     <td>Enable the Power Stage Controller 1 module.</td>
 125:/usr/avr/include/avr/power.h ****     <td>AT90PWM1, AT90PWM2, AT90PWM2B, AT90PWM3, AT90PWM3B</td>
 126:/usr/avr/include/avr/power.h ****   </tr>
 127:/usr/avr/include/avr/power.h **** 
 128:/usr/avr/include/avr/power.h ****   <tr>
 129:/usr/avr/include/avr/power.h ****     <td>power_psc1_disable()</td>
 130:/usr/avr/include/avr/power.h ****     <td>Disable the Power Stage Controller 1 module.</td>
 131:/usr/avr/include/avr/power.h ****     <td>AT90PWM1, AT90PWM2, AT90PWM2B, AT90PWM3, AT90PWM3B</td>
 132:/usr/avr/include/avr/power.h ****   </tr>
 133:/usr/avr/include/avr/power.h **** 
 134:/usr/avr/include/avr/power.h ****   <tr>
 135:/usr/avr/include/avr/power.h ****     <td>power_psc2_enable()</td>
 136:/usr/avr/include/avr/power.h ****     <td>Enable the Power Stage Controller 2 module.</td>
 137:/usr/avr/include/avr/power.h ****     <td>AT90PWM1, AT90PWM2, AT90PWM2B, AT90PWM3, AT90PWM3B, AT90PWM81</td>
 138:/usr/avr/include/avr/power.h ****   </tr>
 139:/usr/avr/include/avr/power.h **** 
 140:/usr/avr/include/avr/power.h ****   <tr>
 141:/usr/avr/include/avr/power.h ****     <td>power_psc2_disable()</td>
 142:/usr/avr/include/avr/power.h ****     <td>Disable the Power Stage Controller 2 module.</td>
 143:/usr/avr/include/avr/power.h ****     <td>AT90PWM1, AT90PWM2, AT90PWM2B, AT90PWM3, AT90PWM3B, AT90PWM81</td>
 144:/usr/avr/include/avr/power.h ****   </tr>
 145:/usr/avr/include/avr/power.h **** 
 146:/usr/avr/include/avr/power.h ****   <tr>
 147:/usr/avr/include/avr/power.h ****     <td>power_spi_enable()</td>
 148:/usr/avr/include/avr/power.h ****     <td>Enable the Serial Peripheral Interface module.</td>
 149:/usr/avr/include/avr/power.h ****     <td>ATmega640, ATmega1280, ATmega1281, ATmega128RFA1, ATmega2560, ATmega2561, AT90USB646, AT90U
 150:/usr/avr/include/avr/power.h ****   </tr>
 151:/usr/avr/include/avr/power.h **** 
 152:/usr/avr/include/avr/power.h ****   <tr>
 153:/usr/avr/include/avr/power.h ****     <td>power_spi_disable()</td>
 154:/usr/avr/include/avr/power.h ****     <td>Disable the Serial Peripheral Interface module.</td>
 155:/usr/avr/include/avr/power.h ****     <td>ATmega640, ATmega1280, ATmega1281, ATmega128RFA1, ATmega2560, ATmega2561, AT90USB646, AT90U
 156:/usr/avr/include/avr/power.h ****   </tr>
 157:/usr/avr/include/avr/power.h **** 
 158:/usr/avr/include/avr/power.h ****   <tr>
 159:/usr/avr/include/avr/power.h ****     <td>power_timer0_enable()</td>
 160:/usr/avr/include/avr/power.h ****     <td>Enable the Timer 0 module.</td>
 161:/usr/avr/include/avr/power.h ****     <td>ATmega640, ATmega1280, ATmega1281, ATmega128RFA1, ATmega2560, ATmega2561, AT90USB646, AT90U
 162:/usr/avr/include/avr/power.h ****   </tr>
 163:/usr/avr/include/avr/power.h **** 
 164:/usr/avr/include/avr/power.h ****   <tr>
 165:/usr/avr/include/avr/power.h ****     <td>power_timer0_disable()</td>
 166:/usr/avr/include/avr/power.h ****     <td>Disable the Timer 0 module.</td>
 167:/usr/avr/include/avr/power.h ****     <td>ATmega640, ATmega1280, ATmega1281, ATmega128RFA1, ATmega2560, ATmega2561, AT90USB646, AT90U
 168:/usr/avr/include/avr/power.h ****   </tr>
 169:/usr/avr/include/avr/power.h **** 
GAS LISTING /tmp/ccPGKZum.s 			page 9


 170:/usr/avr/include/avr/power.h ****   <tr>
 171:/usr/avr/include/avr/power.h ****     <td>power_timer1_enable()</td>
 172:/usr/avr/include/avr/power.h ****     <td>Enable the Timer 1 module.</td>
 173:/usr/avr/include/avr/power.h ****     <td>ATmega640, ATmega1280, ATmega1281, ATmega128RFA1, ATmega2560, ATmega2561, AT90USB646, AT90U
 174:/usr/avr/include/avr/power.h ****   </tr>
 175:/usr/avr/include/avr/power.h **** 
 176:/usr/avr/include/avr/power.h ****   <tr>
 177:/usr/avr/include/avr/power.h ****     <td>power_timer1_disable()</td>
 178:/usr/avr/include/avr/power.h ****     <td>Disable the Timer 1 module.</td>
 179:/usr/avr/include/avr/power.h ****     <td>ATmega640, ATmega1280, ATmega1281, ATmega128RFA1, ATmega2560, ATmega2561, AT90USB646, AT90U
 180:/usr/avr/include/avr/power.h ****   </tr>
 181:/usr/avr/include/avr/power.h **** 
 182:/usr/avr/include/avr/power.h ****   <tr>
 183:/usr/avr/include/avr/power.h ****     <td>power_timer2_enable()</td>
 184:/usr/avr/include/avr/power.h ****     <td>Enable the Timer 2 module.</td>
 185:/usr/avr/include/avr/power.h ****     <td>ATmega640, ATmega1280, ATmega1281, ATmega128RFA1, ATmega2560, ATmega2561, AT90USB646, AT90U
 186:/usr/avr/include/avr/power.h ****   </tr>
 187:/usr/avr/include/avr/power.h **** 
 188:/usr/avr/include/avr/power.h ****   <tr>
 189:/usr/avr/include/avr/power.h ****     <td>power_timer2_disable()</td>
 190:/usr/avr/include/avr/power.h ****     <td>Disable the Timer 2 module.</td>
 191:/usr/avr/include/avr/power.h ****     <td>ATmega640, ATmega1280, ATmega1281, ATmega128RFA1, ATmega2560, ATmega2561, AT90USB646, AT90U
 192:/usr/avr/include/avr/power.h ****   </tr>
 193:/usr/avr/include/avr/power.h **** 
 194:/usr/avr/include/avr/power.h ****   <tr>
 195:/usr/avr/include/avr/power.h ****     <td>power_timer3_enable()</td>
 196:/usr/avr/include/avr/power.h ****     <td>Enable the Timer 3 module.</td>
 197:/usr/avr/include/avr/power.h ****     <td>ATmega640, ATmega1280, ATmega1281, ATmega128RFA1, ATmega2560, ATmega2561, AT90USB646, AT90U
 198:/usr/avr/include/avr/power.h ****   </tr>
 199:/usr/avr/include/avr/power.h **** 
 200:/usr/avr/include/avr/power.h ****   <tr>
 201:/usr/avr/include/avr/power.h ****     <td>power_timer3_disable()</td>
 202:/usr/avr/include/avr/power.h ****     <td>Disable the Timer 3 module.</td>
 203:/usr/avr/include/avr/power.h ****     <td>ATmega640, ATmega1280, ATmega1281, ATmega128RFA1, ATmega2560, ATmega2561, AT90USB646, AT90U
 204:/usr/avr/include/avr/power.h ****   </tr>
 205:/usr/avr/include/avr/power.h **** 
 206:/usr/avr/include/avr/power.h ****   <tr>
 207:/usr/avr/include/avr/power.h ****     <td>power_timer4_enable()</td>
 208:/usr/avr/include/avr/power.h ****     <td>Enable the Timer 4 module.</td>
 209:/usr/avr/include/avr/power.h ****     <td>ATmega640, ATmega1280, ATmega1281, ATmega128RFA1, ATmega2560, ATmega2561</td>
 210:/usr/avr/include/avr/power.h ****   </tr>
 211:/usr/avr/include/avr/power.h **** 
 212:/usr/avr/include/avr/power.h ****   <tr>
 213:/usr/avr/include/avr/power.h ****     <td>power_timer4_disable()</td>
 214:/usr/avr/include/avr/power.h ****     <td>Disable the Timer 4 module.</td>
 215:/usr/avr/include/avr/power.h ****     <td>ATmega640, ATmega1280, ATmega1281, ATmega128RFA1, ATmega2560, ATmega2561</td>
 216:/usr/avr/include/avr/power.h ****   </tr>
 217:/usr/avr/include/avr/power.h **** 
 218:/usr/avr/include/avr/power.h ****   <tr>
 219:/usr/avr/include/avr/power.h ****     <td>power_timer5_enable()</td>
 220:/usr/avr/include/avr/power.h ****     <td>Enable the Timer 5 module.</td>
 221:/usr/avr/include/avr/power.h ****     <td>ATmega640, ATmega1280, ATmega1281, ATmega128RFA1, ATmega2560, ATmega2561</td>
 222:/usr/avr/include/avr/power.h ****   </tr>
 223:/usr/avr/include/avr/power.h **** 
 224:/usr/avr/include/avr/power.h ****   <tr>
 225:/usr/avr/include/avr/power.h ****     <td>power_timer5_disable()</td>
 226:/usr/avr/include/avr/power.h ****     <td>Disable the Timer 5 module.</td>
GAS LISTING /tmp/ccPGKZum.s 			page 10


 227:/usr/avr/include/avr/power.h ****     <td>ATmega640, ATmega1280, ATmega1281, ATmega128RFA1, ATmega2560, ATmega2561</td>
 228:/usr/avr/include/avr/power.h ****   </tr>
 229:/usr/avr/include/avr/power.h **** 
 230:/usr/avr/include/avr/power.h ****   <tr>
 231:/usr/avr/include/avr/power.h ****     <td>power_twi_enable()</td>
 232:/usr/avr/include/avr/power.h ****     <td>Enable the Two Wire Interface module.</td>
 233:/usr/avr/include/avr/power.h ****     <td>ATmega640, ATmega1280, ATmega1281, ATmega128RFA1, ATmega2560, ATmega2561, AT90USB646, AT90U
 234:/usr/avr/include/avr/power.h ****   </tr>
 235:/usr/avr/include/avr/power.h **** 
 236:/usr/avr/include/avr/power.h ****   <tr>
 237:/usr/avr/include/avr/power.h ****     <td>power_twi_disable()</td>
 238:/usr/avr/include/avr/power.h ****     <td>Disable the Two Wire Interface module.</td>
 239:/usr/avr/include/avr/power.h ****     <td>ATmega640, ATmega1280, ATmega1281, ATmega128RFA1, ATmega2560, ATmega2561, AT90USB646, AT90U
 240:/usr/avr/include/avr/power.h ****   </tr>
 241:/usr/avr/include/avr/power.h **** 
 242:/usr/avr/include/avr/power.h ****   <tr>
 243:/usr/avr/include/avr/power.h ****     <td>power_usart_enable()</td>
 244:/usr/avr/include/avr/power.h ****     <td>Enable the USART module.</td>
 245:/usr/avr/include/avr/power.h ****     <td>AT90PWM2, AT90PWM2B, AT90PWM3, AT90PWM3B</td>
 246:/usr/avr/include/avr/power.h ****   </tr>
 247:/usr/avr/include/avr/power.h **** 
 248:/usr/avr/include/avr/power.h ****   <tr>
 249:/usr/avr/include/avr/power.h ****     <td>power_usart_disable()</td>
 250:/usr/avr/include/avr/power.h ****     <td>Disable the USART module.</td>
 251:/usr/avr/include/avr/power.h ****     <td>AT90PWM2, AT90PWM2B, AT90PWM3, AT90PWM3B</td>
 252:/usr/avr/include/avr/power.h ****   </tr>
 253:/usr/avr/include/avr/power.h **** 
 254:/usr/avr/include/avr/power.h ****   <tr>
 255:/usr/avr/include/avr/power.h ****     <td>power_usart0_enable()</td>
 256:/usr/avr/include/avr/power.h ****     <td>Enable the USART 0 module.</td>
 257:/usr/avr/include/avr/power.h ****     <td>ATmega640, ATmega1280, ATmega1281, ATmega128RFA1, ATmega2560, ATmega2561, ATmega165, ATmega
 258:/usr/avr/include/avr/power.h ****   </tr>
 259:/usr/avr/include/avr/power.h **** 
 260:/usr/avr/include/avr/power.h ****   <tr>
 261:/usr/avr/include/avr/power.h ****     <td>power_usart0_disable()</td>
 262:/usr/avr/include/avr/power.h ****     <td>Disable the USART 0 module.</td>
 263:/usr/avr/include/avr/power.h ****     <td>ATmega640, ATmega1280, ATmega1281, ATmega128RFA1, ATmega2560, ATmega2561, ATmega165, ATmega
 264:/usr/avr/include/avr/power.h ****   </tr>
 265:/usr/avr/include/avr/power.h **** 
 266:/usr/avr/include/avr/power.h ****   <tr>
 267:/usr/avr/include/avr/power.h ****     <td>power_usart1_enable()</td>
 268:/usr/avr/include/avr/power.h ****     <td>Enable the USART 1 module.</td>
 269:/usr/avr/include/avr/power.h ****     <td>ATmega640, ATmega1280, ATmega1281, ATmega128RFA1, ATmega2560, ATmega2561, AT90USB646, AT90U
 270:/usr/avr/include/avr/power.h ****   </tr>
 271:/usr/avr/include/avr/power.h **** 
 272:/usr/avr/include/avr/power.h ****   <tr>
 273:/usr/avr/include/avr/power.h ****     <td>power_usart1_disable()</td>
 274:/usr/avr/include/avr/power.h ****     <td>Disable the USART 1 module.</td>
 275:/usr/avr/include/avr/power.h ****     <td>ATmega640, ATmega1280, ATmega1281, ATmega128RFA1, ATmega2560, ATmega2561, AT90USB646, AT90U
 276:/usr/avr/include/avr/power.h ****   </tr>
 277:/usr/avr/include/avr/power.h **** 
 278:/usr/avr/include/avr/power.h ****   <tr>
 279:/usr/avr/include/avr/power.h ****     <td>power_usart2_enable()</td>
 280:/usr/avr/include/avr/power.h ****     <td>Enable the USART 2 module.</td>
 281:/usr/avr/include/avr/power.h ****     <td>ATmega640, ATmega1280, ATmega1281, ATmega2560, ATmega2561</td>
 282:/usr/avr/include/avr/power.h ****   </tr>
 283:/usr/avr/include/avr/power.h **** 
GAS LISTING /tmp/ccPGKZum.s 			page 11


 284:/usr/avr/include/avr/power.h ****   <tr>
 285:/usr/avr/include/avr/power.h ****     <td>power_usart2_disable()</td>
 286:/usr/avr/include/avr/power.h ****     <td>Disable the USART 2 module.</td>
 287:/usr/avr/include/avr/power.h ****     <td>ATmega640, ATmega1280, ATmega1281, ATmega2560, ATmega2561</td>
 288:/usr/avr/include/avr/power.h ****   </tr>
 289:/usr/avr/include/avr/power.h **** 
 290:/usr/avr/include/avr/power.h ****   <tr>
 291:/usr/avr/include/avr/power.h ****     <td>power_usart3_enable()</td>
 292:/usr/avr/include/avr/power.h ****     <td>Enable the USART 3 module.</td>
 293:/usr/avr/include/avr/power.h ****     <td>ATmega640, ATmega1280, ATmega1281, ATmega2560, ATmega2561</td>
 294:/usr/avr/include/avr/power.h ****   </tr>
 295:/usr/avr/include/avr/power.h **** 
 296:/usr/avr/include/avr/power.h ****   <tr>
 297:/usr/avr/include/avr/power.h ****     <td>power_usart3_disable()</td>
 298:/usr/avr/include/avr/power.h ****     <td>Disable the USART 3 module.</td>
 299:/usr/avr/include/avr/power.h ****     <td>ATmega640, ATmega1280, ATmega1281, ATmega2560, ATmega2561</td>
 300:/usr/avr/include/avr/power.h ****   </tr>
 301:/usr/avr/include/avr/power.h **** 
 302:/usr/avr/include/avr/power.h ****   <tr>
 303:/usr/avr/include/avr/power.h ****     <td>power_usb_enable()</td>
 304:/usr/avr/include/avr/power.h ****     <td>Enable the USB module.</td>
 305:/usr/avr/include/avr/power.h ****     <td>AT90USB646, AT90USB647, AT90USB1286, AT90USB1287</td>
 306:/usr/avr/include/avr/power.h ****   </tr>
 307:/usr/avr/include/avr/power.h **** 
 308:/usr/avr/include/avr/power.h ****   <tr>
 309:/usr/avr/include/avr/power.h ****     <td>power_usb_disable()</td>
 310:/usr/avr/include/avr/power.h ****     <td>Disable the USB module.</td>
 311:/usr/avr/include/avr/power.h ****     <td>AT90USB646, AT90USB647, AT90USB1286, AT90USB1287</td>
 312:/usr/avr/include/avr/power.h ****   </tr>
 313:/usr/avr/include/avr/power.h **** 
 314:/usr/avr/include/avr/power.h ****   <tr>
 315:/usr/avr/include/avr/power.h ****     <td>power_usi_enable()</td>
 316:/usr/avr/include/avr/power.h ****     <td>Enable the Universal Serial Interface module.</td>
 317:/usr/avr/include/avr/power.h ****     <td>ATtiny24, ATtiny44, ATtiny84, ATtiny84A, ATtiny25, ATtiny45, ATtiny85, ATtiny261, ATtiny461
 318:/usr/avr/include/avr/power.h ****   </tr>
 319:/usr/avr/include/avr/power.h **** 
 320:/usr/avr/include/avr/power.h ****   <tr>
 321:/usr/avr/include/avr/power.h ****     <td>power_usi_disable()</td>
 322:/usr/avr/include/avr/power.h ****     <td>Disable the Universal Serial Interface module.</td>
 323:/usr/avr/include/avr/power.h ****     <td>ATtiny24, ATtiny44, ATtiny84, ATtiny84A, ATtiny25, ATtiny45, ATtiny85, ATtiny261, ATtiny461
 324:/usr/avr/include/avr/power.h ****   </tr>
 325:/usr/avr/include/avr/power.h **** 
 326:/usr/avr/include/avr/power.h ****   <tr>
 327:/usr/avr/include/avr/power.h ****     <td>power_vadc_enable()</td>
 328:/usr/avr/include/avr/power.h ****     <td>Enable the Voltage ADC module.</td>
 329:/usr/avr/include/avr/power.h ****     <td>ATmega406</td>
 330:/usr/avr/include/avr/power.h ****   </tr>
 331:/usr/avr/include/avr/power.h **** 
 332:/usr/avr/include/avr/power.h ****   <tr>
 333:/usr/avr/include/avr/power.h ****     <td>power_vadc_disable()</td>
 334:/usr/avr/include/avr/power.h ****     <td>Disable the Voltage ADC module.</td>
 335:/usr/avr/include/avr/power.h ****     <td>ATmega406</td>
 336:/usr/avr/include/avr/power.h ****   </tr>
 337:/usr/avr/include/avr/power.h **** 
 338:/usr/avr/include/avr/power.h ****   <tr>
 339:/usr/avr/include/avr/power.h ****     <td>power_all_enable()</td>
 340:/usr/avr/include/avr/power.h ****     <td>Enable all modules.</td>
GAS LISTING /tmp/ccPGKZum.s 			page 12


 341:/usr/avr/include/avr/power.h ****     <td>ATxmega6A4, ATxmega32A4, ATxmega64A1, ATxmega64A1U, ATxmega64A3, ATxmegaA1, ATxmegaA1U, ATx
 342:/usr/avr/include/avr/power.h ****   </tr>
 343:/usr/avr/include/avr/power.h **** 
 344:/usr/avr/include/avr/power.h ****   <tr>
 345:/usr/avr/include/avr/power.h ****     <td>power_all_disable()</td>
 346:/usr/avr/include/avr/power.h ****     <td>Disable all modules.</td>
 347:/usr/avr/include/avr/power.h ****     <td>ATxmega6A4, ATxmega32A4, ATxmega64A1, ATxmega64A1U, ATxmega64A3, ATxmegaA1, ATxmegaA1U, ATx
 348:/usr/avr/include/avr/power.h ****   </tr>
 349:/usr/avr/include/avr/power.h **** </table>
 350:/usr/avr/include/avr/power.h **** </center>
 351:/usr/avr/include/avr/power.h **** </small>
 352:/usr/avr/include/avr/power.h **** 
 353:/usr/avr/include/avr/power.h **** @} */
 354:/usr/avr/include/avr/power.h **** 
 355:/usr/avr/include/avr/power.h **** // Xmega A series has AES, EBI and DMA bits
 356:/usr/avr/include/avr/power.h **** // Include any other device on need basis
 357:/usr/avr/include/avr/power.h **** #if defined(__AVR_ATxmega16A4__) \
 358:/usr/avr/include/avr/power.h **** || defined(__AVR_ATxmega32A4__) \
 359:/usr/avr/include/avr/power.h **** || defined(__AVR_ATxmega64A1__) \
 360:/usr/avr/include/avr/power.h **** || defined(__AVR_ATxmega64A1U__) \
 361:/usr/avr/include/avr/power.h **** || defined(__AVR_ATxmega64A3__) \
 362:/usr/avr/include/avr/power.h **** || defined(__AVR_ATxmega128A1__) \
 363:/usr/avr/include/avr/power.h **** || defined(__AVR_ATxmega128A1U__) \
 364:/usr/avr/include/avr/power.h **** || defined(__AVR_ATxmega128A3__) \
 365:/usr/avr/include/avr/power.h **** || defined(__AVR_ATxmega192A3__) \
 366:/usr/avr/include/avr/power.h **** || defined(__AVR_ATxmega256A3__) \
 367:/usr/avr/include/avr/power.h **** || defined(__AVR_ATxmega256A3B__)
 368:/usr/avr/include/avr/power.h **** 
 369:/usr/avr/include/avr/power.h **** #define power_aes_enable()  (PR_PRGEN &= (uint8_t)~(PR_AES_bm))
 370:/usr/avr/include/avr/power.h **** #define power_aes_disable() (PR_PRGEN |= (uint8_t)PR_AES_bm)
 371:/usr/avr/include/avr/power.h **** 
 372:/usr/avr/include/avr/power.h **** #define power_ebi_enable()  (PR_PRGEN &= (uint8_t)~(PR_EBI_bm))
 373:/usr/avr/include/avr/power.h **** #define power_ebi_disable() (PR_PRGEN |= (uint8_t)PR_EBI_bm)
 374:/usr/avr/include/avr/power.h **** 
 375:/usr/avr/include/avr/power.h **** #define power_dma_enable()    (PR_PRGEN &= (uint8_t)~(PR_DMA_bm))
 376:/usr/avr/include/avr/power.h **** #define power_dma_disable()   (PR_PRGEN |= (uint8_t)PR_DMA_bm)
 377:/usr/avr/include/avr/power.h **** 
 378:/usr/avr/include/avr/power.h **** #define power_daca_enable()     (PR_PRPA &= (uint8_t)~(PR_DAC_bm))
 379:/usr/avr/include/avr/power.h **** #define power_daca_disable()    (PR_PRPA |= (uint8_t)PR_DAC_bm)
 380:/usr/avr/include/avr/power.h **** #define power_dacb_enable()     (PR_PRPB &= (uint8_t)~(PR_DAC_bm))
 381:/usr/avr/include/avr/power.h **** #define power_dacb_disable()    (PR_PRPB |= (uint8_t)PR_DAC_bm)
 382:/usr/avr/include/avr/power.h **** 
 383:/usr/avr/include/avr/power.h **** #define power_usartc1_enable()  (PR_PRPC &= (uint8_t)~(PR_USART1_bm))
 384:/usr/avr/include/avr/power.h **** #define power_usartc1_disable() (PR_PRPC |= (uint8_t)PR_USART1_bm)
 385:/usr/avr/include/avr/power.h **** #define power_usartd1_enable()  (PR_PRPD &= (uint8_t)~(PR_USART1_bm))
 386:/usr/avr/include/avr/power.h **** #define power_usartd1_disable() (PR_PRPD |= (uint8_t)PR_USART1_bm)
 387:/usr/avr/include/avr/power.h **** #define power_usarte1_enable()  (PR_PRPE &= (uint8_t)~(PR_USART1_bm))
 388:/usr/avr/include/avr/power.h **** #define power_usarte1_disable() (PR_PRPE |= (uint8_t)PR_USART1_bm)
 389:/usr/avr/include/avr/power.h **** #define power_usartf1_enable()  (PR_PRPF &= (uint8_t)~(PR_USART1_bm))
 390:/usr/avr/include/avr/power.h **** #define power_usartf1_disable() (PR_PRPF |= (uint8_t)PR_USART1_bm)
 391:/usr/avr/include/avr/power.h **** 
 392:/usr/avr/include/avr/power.h **** #define power_all_enable() \
 393:/usr/avr/include/avr/power.h **** do { \
 394:/usr/avr/include/avr/power.h ****     PR_PRGEN &= (uint8_t)~(PR_AES_bm|PR_EBI_bm|PR_RTC_bm|PR_EVSYS_bm|PR_DMA_bm); \
 395:/usr/avr/include/avr/power.h ****     PR_PRPA &= (uint8_t)~(PR_DAC_bm|PR_ADC_bm|PR_AC_bm); \
 396:/usr/avr/include/avr/power.h ****     PR_PRPB &= (uint8_t)~(PR_DAC_bm|PR_ADC_bm|PR_AC_bm); \
 397:/usr/avr/include/avr/power.h ****     PR_PRPC &= (uint8_t)~(PR_TWI_bm|PR_USART1_bm|PR_USART0_bm|PR_SPI_bm|PR_HIRES_bm|PR_TC1_bm|PR_TC
GAS LISTING /tmp/ccPGKZum.s 			page 13


 398:/usr/avr/include/avr/power.h ****     PR_PRPD &= (uint8_t)~(PR_TWI_bm|PR_USART1_bm|PR_USART0_bm|PR_SPI_bm|PR_HIRES_bm|PR_TC1_bm|PR_TC
 399:/usr/avr/include/avr/power.h ****     PR_PRPE &= (uint8_t)~(PR_TWI_bm|PR_USART1_bm|PR_USART0_bm|PR_SPI_bm|PR_HIRES_bm|PR_TC1_bm|PR_TC
 400:/usr/avr/include/avr/power.h ****     PR_PRPF &= (uint8_t)~(PR_TWI_bm|PR_USART1_bm|PR_USART0_bm|PR_SPI_bm|PR_HIRES_bm|PR_TC1_bm|PR_TC
 401:/usr/avr/include/avr/power.h **** } while(0)
 402:/usr/avr/include/avr/power.h **** 
 403:/usr/avr/include/avr/power.h **** 
 404:/usr/avr/include/avr/power.h **** #define power_all_disable() \
 405:/usr/avr/include/avr/power.h **** do { \
 406:/usr/avr/include/avr/power.h ****     PR_PRGEN|= (uint8_t)(PR_AES_bm|PR_EBI_bm|PR_RTC_bm|PR_EVSYS_bm|PR_DMA_bm); \
 407:/usr/avr/include/avr/power.h ****     PR_PRPA |= (uint8_t)(PR_DAC_bm|PR_ADC_bm|PR_AC_bm); \
 408:/usr/avr/include/avr/power.h ****     PR_PRPB |= (uint8_t)(PR_DAC_bm|PR_ADC_bm|PR_AC_bm); \
 409:/usr/avr/include/avr/power.h ****     PR_PRPC |= (uint8_t)(PR_TWI_bm|PR_USART1_bm|PR_USART0_bm|PR_SPI_bm|PR_HIRES_bm|PR_TC1_bm|PR_TC0
 410:/usr/avr/include/avr/power.h ****     PR_PRPD |= (uint8_t)(PR_TWI_bm|PR_USART1_bm|PR_USART0_bm|PR_SPI_bm|PR_HIRES_bm|PR_TC1_bm|PR_TC0
 411:/usr/avr/include/avr/power.h ****     PR_PRPE |= (uint8_t)(PR_TWI_bm|PR_USART1_bm|PR_USART0_bm|PR_SPI_bm|PR_HIRES_bm|PR_TC1_bm|PR_TC0
 412:/usr/avr/include/avr/power.h ****     PR_PRPF |= (uint8_t)(PR_TWI_bm|PR_USART1_bm|PR_USART0_bm|PR_SPI_bm|PR_HIRES_bm|PR_TC1_bm|PR_TC0
 413:/usr/avr/include/avr/power.h **** } while(0)
 414:/usr/avr/include/avr/power.h **** #endif
 415:/usr/avr/include/avr/power.h **** 
 416:/usr/avr/include/avr/power.h **** #if defined(__AVR_ATxmega16A4__) \
 417:/usr/avr/include/avr/power.h **** || defined(__AVR_ATxmega16D4__) \
 418:/usr/avr/include/avr/power.h **** || defined(__AVR_ATxmega32A4__) \
 419:/usr/avr/include/avr/power.h **** || defined(__AVR_ATxmega32D4__) \
 420:/usr/avr/include/avr/power.h **** || defined(__AVR_ATxmega64A1__) \
 421:/usr/avr/include/avr/power.h **** || defined(__AVR_ATxmega64A1U__) \
 422:/usr/avr/include/avr/power.h **** || defined(__AVR_ATxmega64A3__) \
 423:/usr/avr/include/avr/power.h **** || defined(__AVR_ATxmega64D3__) \
 424:/usr/avr/include/avr/power.h **** || defined(__AVR_ATxmega128A1__) \
 425:/usr/avr/include/avr/power.h **** || defined(__AVR_ATxmega128A1U__) \
 426:/usr/avr/include/avr/power.h **** || defined(__AVR_ATxmega128A3__) \
 427:/usr/avr/include/avr/power.h **** || defined(__AVR_ATxmega128D3__) \
 428:/usr/avr/include/avr/power.h **** || defined(__AVR_ATxmega192A3__) \
 429:/usr/avr/include/avr/power.h **** || defined(__AVR_ATxmega192D3__) \
 430:/usr/avr/include/avr/power.h **** || defined(__AVR_ATxmega256A3__) \
 431:/usr/avr/include/avr/power.h **** || defined(__AVR_ATxmega256A3B__)
 432:/usr/avr/include/avr/power.h **** 
 433:/usr/avr/include/avr/power.h **** 
 434:/usr/avr/include/avr/power.h **** #define power_rtc_enable()  (PR_PRGEN &= (uint8_t)~(PR_RTC_bm))
 435:/usr/avr/include/avr/power.h **** #define power_rtc_disable() (PR_PRGEN |= (uint8_t)PR_RTC_bm)
 436:/usr/avr/include/avr/power.h **** 
 437:/usr/avr/include/avr/power.h **** #define power_evsys_enable()    (PR_PRGEN &= (uint8_t)~(PR_EVSYS_bm))
 438:/usr/avr/include/avr/power.h **** #define power_evsys_disable()   (PR_PRGEN |= (uint8_t)PR_EVSYS_bm)
 439:/usr/avr/include/avr/power.h **** 
 440:/usr/avr/include/avr/power.h **** #define power_adca_enable()     (PR_PRPA &= (uint8_t)~(PR_ADC_bm))
 441:/usr/avr/include/avr/power.h **** #define power_adca_disable()    (PR_PRPA |= (uint8_t)PR_ADC_bm)
 442:/usr/avr/include/avr/power.h **** #define power_adcb_enable()     (PR_PRPB &= (uint8_t)~(PR_ADC_bm))
 443:/usr/avr/include/avr/power.h **** #define power_adcb_disable()    (PR_PRPB |= (uint8_t)PR_ADC_bm)
 444:/usr/avr/include/avr/power.h **** 
 445:/usr/avr/include/avr/power.h **** #define power_aca_enable()      (PR_PRPA &= (uint8_t)~(PR_AC_bm))
 446:/usr/avr/include/avr/power.h **** #define power_aca_disable()     (PR_PRPA |= (uint8_t)PR_AC_bm)
 447:/usr/avr/include/avr/power.h **** #define power_acb_enable()      (PR_PRPB &= (uint8_t)~(PR_AC_bm))
 448:/usr/avr/include/avr/power.h **** #define power_acb_disable()     (PR_PRPB |= (uint8_t)PR_AC_bm)
 449:/usr/avr/include/avr/power.h **** 
 450:/usr/avr/include/avr/power.h **** #define power_twic_enable()     (PR_PRPC &= (uint8_t)~(PR_TWI_bm))
 451:/usr/avr/include/avr/power.h **** #define power_twic_disable()    (PR_PRPC |= (uint8_t)PR_TWI_bm)
 452:/usr/avr/include/avr/power.h **** #define power_twid_enable()     (PR_PRPD &= (uint8_t)~(PR_TWI_bm))
 453:/usr/avr/include/avr/power.h **** #define power_twid_disable()    (PR_PRPD |= (uint8_t)PR_TWI_bm)
 454:/usr/avr/include/avr/power.h **** #define power_twie_enable()     (PR_PRPE &= (uint8_t)~(PR_TWI_bm))
GAS LISTING /tmp/ccPGKZum.s 			page 14


 455:/usr/avr/include/avr/power.h **** #define power_twie_disable()    (PR_PRPE |= (uint8_t)PR_TWI_bm)
 456:/usr/avr/include/avr/power.h **** #define power_twif_enable()     (PR_PRPF &= (uint8_t)~(PR_TWI_bm))
 457:/usr/avr/include/avr/power.h **** #define power_twif_disable()    (PR_PRPF |= (uint8_t)PR_TWI_bm)
 458:/usr/avr/include/avr/power.h **** 
 459:/usr/avr/include/avr/power.h **** #define power_usartc0_enable()  (PR_PRPC &= (uint8_t)~(PR_USART0_bm))
 460:/usr/avr/include/avr/power.h **** #define power_usartc0_disable() (PR_PRPC |= (uint8_t)PR_USART0_bm)
 461:/usr/avr/include/avr/power.h **** #define power_usartd0_enable()  (PR_PRPD &= (uint8_t)~(PR_USART0_bm))
 462:/usr/avr/include/avr/power.h **** #define power_usartd0_disable() (PR_PRPD |= (uint8_t)PR_USART0_bm)
 463:/usr/avr/include/avr/power.h **** #define power_usarte0_enable()  (PR_PRPE &= (uint8_t)~(PR_USART0_bm))
 464:/usr/avr/include/avr/power.h **** #define power_usarte0_disable() (PR_PRPE |= (uint8_t)PR_USART0_bm)
 465:/usr/avr/include/avr/power.h **** #define power_usartf0_enable()  (PR_PRPF &= (uint8_t)~(PR_USART0_bm))
 466:/usr/avr/include/avr/power.h **** #define power_usartf0_disable() (PR_PRPF |= (uint8_t)PR_USART0_bm)
 467:/usr/avr/include/avr/power.h **** 
 468:/usr/avr/include/avr/power.h **** #define power_spic_enable()     (PR_PRPC &= (uint8_t)~(PR_SPI_bm))
 469:/usr/avr/include/avr/power.h **** #define power_spic_disable()    (PR_PRPC |= (uint8_t)PR_SPI_bm)
 470:/usr/avr/include/avr/power.h **** #define power_spid_enable()     (PR_PRPD &= (uint8_t)~(PR_SPI_bm))
 471:/usr/avr/include/avr/power.h **** #define power_spid_disable()    (PR_PRPD |= (uint8_t)PR_SPI_bm)
 472:/usr/avr/include/avr/power.h **** #define power_spie_enable()     (PR_PRPE &= (uint8_t)~(PR_SPI_bm))
 473:/usr/avr/include/avr/power.h **** #define power_spie_disable()    (PR_PRPE |= (uint8_t)PR_SPI_bm)
 474:/usr/avr/include/avr/power.h **** #define power_spif_enable()     (PR_PRPF &= (uint8_t)~(PR_SPI_bm))
 475:/usr/avr/include/avr/power.h **** #define power_spif_disable()    (PR_PRPF |= (uint8_t)PR_SPI_bm)
 476:/usr/avr/include/avr/power.h **** 
 477:/usr/avr/include/avr/power.h **** #define power_hiresc_enable()   (PR_PRPC &= (uint8_t)~(PR_HIRES_bm))
 478:/usr/avr/include/avr/power.h **** #define power_hiresc_disable()  (PR_PRPC |= (uint8_t)PR_HIRES_bm)
 479:/usr/avr/include/avr/power.h **** #define power_hiresd_enable()   (PR_PRPD &= (uint8_t)~(PR_HIRES_bm))
 480:/usr/avr/include/avr/power.h **** #define power_hiresd_disable()  (PR_PRPD |= (uint8_t)PR_HIRES_bm)
 481:/usr/avr/include/avr/power.h **** #define power_hirese_enable()   (PR_PRPE &= (uint8_t)~(PR_HIRES_bm))
 482:/usr/avr/include/avr/power.h **** #define power_hirese_disable()  (PR_PRPE |= (uint8_t)PR_HIRES_bm)
 483:/usr/avr/include/avr/power.h **** #define power_hiresf_enable()   (PR_PRPF &= (uint8_t)~(PR_HIRES_bm))
 484:/usr/avr/include/avr/power.h **** #define power_hiresf_disable()  (PR_PRPF |= (uint8_t)PR_HIRES_bm)
 485:/usr/avr/include/avr/power.h **** 
 486:/usr/avr/include/avr/power.h **** #define power_tc1c_enable()     (PR_PRPC &= (uint8_t)~(PR_TC1_bm))
 487:/usr/avr/include/avr/power.h **** #define power_tc1c_disable()    (PR_PRPC |= (uint8_t)PR_TC1_bm)
 488:/usr/avr/include/avr/power.h **** #define power_tc1d_enable()     (PR_PRPD &= (uint8_t)~(PR_TC1_bm))
 489:/usr/avr/include/avr/power.h **** #define power_tc1d_disable()    (PR_PRPD |= (uint8_t)PR_TC1_bm)
 490:/usr/avr/include/avr/power.h **** #define power_tc1e_enable()     (PR_PRPE &= (uint8_t)~(PR_TC1_bm))
 491:/usr/avr/include/avr/power.h **** #define power_tc1e_disable()    (PR_PRPE |= (uint8_t)PR_TC1_bm)
 492:/usr/avr/include/avr/power.h **** #define power_tc1f_enable()     (PR_PRPF &= (uint8_t)~(PR_TC1_bm))
 493:/usr/avr/include/avr/power.h **** #define power_tc1f_disable()    (PR_PRPF |= (uint8_t)PR_TC1_bm)
 494:/usr/avr/include/avr/power.h **** 
 495:/usr/avr/include/avr/power.h **** #define power_tc0c_enable()     (PR_PRPC &= (uint8_t)~(PR_TC0_bm))
 496:/usr/avr/include/avr/power.h **** #define power_tc0c_disable()    (PR_PRPC |= (uint8_t)PR_TC0_bm)
 497:/usr/avr/include/avr/power.h **** #define power_tc0d_enable()     (PR_PRPD &= (uint8_t)~(PR_TC0_bm))
 498:/usr/avr/include/avr/power.h **** #define power_tc0d_disable()    (PR_PRPD |= (uint8_t)PR_TC0_bm)
 499:/usr/avr/include/avr/power.h **** #define power_tc0e_enable()     (PR_PRPE &= (uint8_t)~(PR_TC0_bm))
 500:/usr/avr/include/avr/power.h **** #define power_tc0e_disable()    (PR_PRPE |= (uint8_t)PR_TC0_bm)
 501:/usr/avr/include/avr/power.h **** #define power_tc0f_enable()     (PR_PRPF &= (uint8_t)~(PR_TC0_bm))
 502:/usr/avr/include/avr/power.h **** #define power_tc0f_disable()    (PR_PRPF |= (uint8_t)PR_TC0_bm)
 503:/usr/avr/include/avr/power.h **** 
 504:/usr/avr/include/avr/power.h **** #endif
 505:/usr/avr/include/avr/power.h **** 
 506:/usr/avr/include/avr/power.h **** #if defined(__AVR_ATxmega16D4__) \
 507:/usr/avr/include/avr/power.h **** || defined(__AVR_ATxmega32D4__) \
 508:/usr/avr/include/avr/power.h **** || defined(__AVR_ATxmega64D3__) \
 509:/usr/avr/include/avr/power.h **** || defined(__AVR_ATxmega128D3__) \
 510:/usr/avr/include/avr/power.h **** || defined(__AVR_ATxmega192D3__) 
 511:/usr/avr/include/avr/power.h **** 
GAS LISTING /tmp/ccPGKZum.s 			page 15


 512:/usr/avr/include/avr/power.h **** #define power_all_enable() \
 513:/usr/avr/include/avr/power.h **** do { \
 514:/usr/avr/include/avr/power.h ****     PR_PRGEN &= (uint8_t)~(PR_RTC_bm|PR_EVSYS_bm); \
 515:/usr/avr/include/avr/power.h ****     PR_PRPA &= (uint8_t)~(PR_ADC_bm|PR_AC_bm); \
 516:/usr/avr/include/avr/power.h ****     PR_PRPB &= (uint8_t)~(PR_ADC_bm|PR_AC_bm); \
 517:/usr/avr/include/avr/power.h ****     PR_PRPC &= (uint8_t)~(PR_TWI_bm|PR_USART0_bm|PR_SPI_bm|PR_HIRES_bm|PR_TC1_bm|PR_TC0_bm); \
 518:/usr/avr/include/avr/power.h ****     PR_PRPD &= (uint8_t)~(PR_TWI_bm|PR_USART0_bm|PR_SPI_bm|PR_HIRES_bm|PR_TC1_bm|PR_TC0_bm); \
 519:/usr/avr/include/avr/power.h ****     PR_PRPE &= (uint8_t)~(PR_TWI_bm|PR_USART0_bm|PR_SPI_bm|PR_HIRES_bm|PR_TC1_bm|PR_TC0_bm); \
 520:/usr/avr/include/avr/power.h ****     PR_PRPF &= (uint8_t)~(PR_TWI_bm|PR_USART0_bm|PR_SPI_bm|PR_HIRES_bm|PR_TC1_bm|PR_TC0_bm); \
 521:/usr/avr/include/avr/power.h **** } while(0)
 522:/usr/avr/include/avr/power.h **** 
 523:/usr/avr/include/avr/power.h **** 
 524:/usr/avr/include/avr/power.h **** #define power_all_disable() \
 525:/usr/avr/include/avr/power.h **** do { \
 526:/usr/avr/include/avr/power.h ****     PR_PRGEN|= (uint8_t)(PR_EBI_bm|PR_RTC_bm|PR_EVSYS_bm|PR_DMA_bm); \
 527:/usr/avr/include/avr/power.h ****     PR_PRPA |= (uint8_t)(PR_ADC_bm|PR_AC_bm); \
 528:/usr/avr/include/avr/power.h ****     PR_PRPB |= (uint8_t)(PR_ADC_bm|PR_AC_bm); \
 529:/usr/avr/include/avr/power.h ****     PR_PRPC |= (uint8_t)(PR_TWI_bm|R_USART0_bm|PR_SPI_bm|PR_HIRES_bm|PR_TC1_bm|PR_TC0_bm); \
 530:/usr/avr/include/avr/power.h ****     PR_PRPD |= (uint8_t)(PR_TWI_bm|PR_USART0_bm|PR_SPI_bm|PR_HIRES_bm|PR_TC1_bm|PR_TC0_bm); \
 531:/usr/avr/include/avr/power.h ****     PR_PRPE |= (uint8_t)(PR_TWI_bm|PR_USART0_bm|PR_SPI_bm|PR_HIRES_bm|PR_TC1_bm|PR_TC0_bm); \
 532:/usr/avr/include/avr/power.h ****     PR_PRPF |= (uint8_t)(PR_TWI_bm|PR_USART0_bm|PR_SPI_bm|PR_HIRES_bm|PR_TC1_bm|PR_TC0_bm); \
 533:/usr/avr/include/avr/power.h **** } while(0)
 534:/usr/avr/include/avr/power.h **** 
 535:/usr/avr/include/avr/power.h **** #elif defined(__AVR_ATmega640__) \
 536:/usr/avr/include/avr/power.h **** || defined(__AVR_ATmega1280__) \
 537:/usr/avr/include/avr/power.h **** || defined(__AVR_ATmega1281__) \
 538:/usr/avr/include/avr/power.h **** || defined(__AVR_ATmega2560__) \
 539:/usr/avr/include/avr/power.h **** || defined(__AVR_ATmega2561__) 
 540:/usr/avr/include/avr/power.h **** 
 541:/usr/avr/include/avr/power.h **** #define power_adc_enable()      (PRR0 &= (uint8_t)~(1 << PRADC))
 542:/usr/avr/include/avr/power.h **** #define power_adc_disable()     (PRR0 |= (uint8_t)(1 << PRADC))
 543:/usr/avr/include/avr/power.h **** 
 544:/usr/avr/include/avr/power.h **** #define power_spi_enable()      (PRR0 &= (uint8_t)~(1 << PRSPI))
 545:/usr/avr/include/avr/power.h **** #define power_spi_disable()     (PRR0 |= (uint8_t)(1 << PRSPI))
 546:/usr/avr/include/avr/power.h **** 
 547:/usr/avr/include/avr/power.h **** #define power_twi_enable()      (PRR0 &= (uint8_t)~(1 << PRTWI))
 548:/usr/avr/include/avr/power.h **** #define power_twi_disable()     (PRR0 |= (uint8_t)(1 << PRTWI))
 549:/usr/avr/include/avr/power.h **** 
 550:/usr/avr/include/avr/power.h **** #define power_timer0_enable()   (PRR0 &= (uint8_t)~(1 << PRTIM0))
 551:/usr/avr/include/avr/power.h **** #define power_timer0_disable()  (PRR0 |= (uint8_t)(1 << PRTIM0))
 552:/usr/avr/include/avr/power.h **** 
 553:/usr/avr/include/avr/power.h **** #define power_timer1_enable()   (PRR0 &= (uint8_t)~(1 << PRTIM1))
 554:/usr/avr/include/avr/power.h **** #define power_timer1_disable()  (PRR0 |= (uint8_t)(1 << PRTIM1))
 555:/usr/avr/include/avr/power.h **** 
 556:/usr/avr/include/avr/power.h **** #define power_timer2_enable()   (PRR0 &= (uint8_t)~(1 << PRTIM2))
 557:/usr/avr/include/avr/power.h **** #define power_timer2_disable()  (PRR0 |= (uint8_t)(1 << PRTIM2))
 558:/usr/avr/include/avr/power.h **** 
 559:/usr/avr/include/avr/power.h **** #define power_timer3_enable()   (PRR1 &= (uint8_t)~(1 << PRTIM3))
 560:/usr/avr/include/avr/power.h **** #define power_timer3_disable()  (PRR1 |= (uint8_t)(1 << PRTIM3))
 561:/usr/avr/include/avr/power.h **** 
 562:/usr/avr/include/avr/power.h **** #define power_timer4_enable()   (PRR1 &= (uint8_t)~(1 << PRTIM4))
 563:/usr/avr/include/avr/power.h **** #define power_timer4_disable()  (PRR1 |= (uint8_t)(1 << PRTIM4))
 564:/usr/avr/include/avr/power.h **** 
 565:/usr/avr/include/avr/power.h **** #define power_timer5_enable()   (PRR1 &= (uint8_t)~(1 << PRTIM5))
 566:/usr/avr/include/avr/power.h **** #define power_timer5_disable()  (PRR1 |= (uint8_t)(1 << PRTIM5))
 567:/usr/avr/include/avr/power.h **** 
 568:/usr/avr/include/avr/power.h **** #define power_usart0_enable()   (PRR0 &= (uint8_t)~(1 << PRUSART0))
GAS LISTING /tmp/ccPGKZum.s 			page 16


 569:/usr/avr/include/avr/power.h **** #define power_usart0_disable()  (PRR0 |= (uint8_t)(1 << PRUSART0))
 570:/usr/avr/include/avr/power.h **** 
 571:/usr/avr/include/avr/power.h **** #define power_usart1_enable()   (PRR1 &= (uint8_t)~(1 << PRUSART1))
 572:/usr/avr/include/avr/power.h **** #define power_usart1_disable()  (PRR1 |= (uint8_t)(1 << PRUSART1))
 573:/usr/avr/include/avr/power.h **** 
 574:/usr/avr/include/avr/power.h **** #define power_usart2_enable()   (PRR1 &= (uint8_t)~(1 << PRUSART2))
 575:/usr/avr/include/avr/power.h **** #define power_usart2_disable()  (PRR1 |= (uint8_t)(1 << PRUSART2))
 576:/usr/avr/include/avr/power.h **** 
 577:/usr/avr/include/avr/power.h **** #define power_usart3_enable()   (PRR1 &= (uint8_t)~(1 << PRUSART3))
 578:/usr/avr/include/avr/power.h **** #define power_usart3_disable()  (PRR1 |= (uint8_t)(1 << PRUSART3))
 579:/usr/avr/include/avr/power.h **** 
 580:/usr/avr/include/avr/power.h **** #define power_all_enable() \
 581:/usr/avr/include/avr/power.h **** do{ \
 582:/usr/avr/include/avr/power.h ****     PRR0 &= (uint8_t)~((1<<PRADC)|(1<<PRSPI)|(1<<PRTWI)|(1<<PRTIM0)|(1<<PRTIM1)|(1<<PRTIM2)|(1<<PRU
 583:/usr/avr/include/avr/power.h ****     PRR1 &= (uint8_t)~((1<<PRTIM3)|(1<<PRTIM4)|(1<<PRTIM5)|(1<<PRTIM5)|(1<<PRUSART1)|(1<<PRUSART2)|
 584:/usr/avr/include/avr/power.h **** }while(0)
 585:/usr/avr/include/avr/power.h **** 
 586:/usr/avr/include/avr/power.h **** #define power_all_disable() \
 587:/usr/avr/include/avr/power.h **** do{ \
 588:/usr/avr/include/avr/power.h ****     PRR0 |= (uint8_t)((1<<PRADC)|(1<<PRSPI)|(1<<PRTWI)|(1<<PRTIM0)|(1<<PRTIM1)|(1<<PRTIM2)|(1<<PRUS
 589:/usr/avr/include/avr/power.h ****     PRR1 |= (uint8_t)((1<<PRTIM3)|(1<<PRTIM4)|(1<<PRTIM5)|(1<<PRTIM5)|(1<<PRUSART1)|(1<<PRUSART2)|(
 590:/usr/avr/include/avr/power.h **** }while(0)
 591:/usr/avr/include/avr/power.h **** 
 592:/usr/avr/include/avr/power.h **** 
 593:/usr/avr/include/avr/power.h **** #elif defined(__AVR_ATmega128RFA1__)
 594:/usr/avr/include/avr/power.h **** 
 595:/usr/avr/include/avr/power.h **** #define power_adc_enable()      (PRR0 &= (uint8_t)~(1 << PRADC))
 596:/usr/avr/include/avr/power.h **** #define power_adc_disable()     (PRR0 |= (uint8_t)(1 << PRADC))
 597:/usr/avr/include/avr/power.h **** 
 598:/usr/avr/include/avr/power.h **** #define power_spi_enable()      (PRR0 &= (uint8_t)~(1 << PRSPI))
 599:/usr/avr/include/avr/power.h **** #define power_spi_disable()     (PRR0 |= (uint8_t)(1 << PRSPI))
 600:/usr/avr/include/avr/power.h **** 
 601:/usr/avr/include/avr/power.h **** #define power_twi_enable()      (PRR0 &= (uint8_t)~(1 << PRTWI))
 602:/usr/avr/include/avr/power.h **** #define power_twi_disable()     (PRR0 |= (uint8_t)(1 << PRTWI))
 603:/usr/avr/include/avr/power.h **** 
 604:/usr/avr/include/avr/power.h **** #define power_timer0_enable()   (PRR0 &= (uint8_t)~(1 << PRTIM0))
 605:/usr/avr/include/avr/power.h **** #define power_timer0_disable()  (PRR0 |= (uint8_t)(1 << PRTIM0))
 606:/usr/avr/include/avr/power.h **** 
 607:/usr/avr/include/avr/power.h **** #define power_timer1_enable()   (PRR0 &= (uint8_t)~(1 << PRTIM1))
 608:/usr/avr/include/avr/power.h **** #define power_timer1_disable()  (PRR0 |= (uint8_t)(1 << PRTIM1))
 609:/usr/avr/include/avr/power.h **** 
 610:/usr/avr/include/avr/power.h **** #define power_timer2_enable()   (PRR0 &= (uint8_t)~(1 << PRTIM2))
 611:/usr/avr/include/avr/power.h **** #define power_timer2_disable()  (PRR0 |= (uint8_t)(1 << PRTIM2))
 612:/usr/avr/include/avr/power.h **** 
 613:/usr/avr/include/avr/power.h **** #define power_timer3_enable()   (PRR1 &= (uint8_t)~(1 << PRTIM3))
 614:/usr/avr/include/avr/power.h **** #define power_timer3_disable()  (PRR1 |= (uint8_t)(1 << PRTIM3))
 615:/usr/avr/include/avr/power.h **** 
 616:/usr/avr/include/avr/power.h **** #define power_timer4_enable()   (PRR1 &= (uint8_t)~(1 << PRTIM4))
 617:/usr/avr/include/avr/power.h **** #define power_timer4_disable()  (PRR1 |= (uint8_t)(1 << PRTIM4))
 618:/usr/avr/include/avr/power.h **** 
 619:/usr/avr/include/avr/power.h **** #define power_timer5_enable()   (PRR1 &= (uint8_t)~(1 << PRTIM5))
 620:/usr/avr/include/avr/power.h **** #define power_timer5_disable()  (PRR1 |= (uint8_t)(1 << PRTIM5))
 621:/usr/avr/include/avr/power.h **** 
 622:/usr/avr/include/avr/power.h **** #define power_usart0_enable()   (PRR0 &= (uint8_t)~(1 << PRUSART0))
 623:/usr/avr/include/avr/power.h **** #define power_usart0_disable()  (PRR0 |= (uint8_t)(1 << PRUSART0))
 624:/usr/avr/include/avr/power.h **** 
 625:/usr/avr/include/avr/power.h **** #define power_usart1_enable()   (PRR1 &= (uint8_t)~(1 << PRUSART1))
GAS LISTING /tmp/ccPGKZum.s 			page 17


 626:/usr/avr/include/avr/power.h **** #define power_usart1_disable()  (PRR1 |= (uint8_t)(1 << PRUSART1))
 627:/usr/avr/include/avr/power.h **** 
 628:/usr/avr/include/avr/power.h **** #define power_all_enable() \
 629:/usr/avr/include/avr/power.h **** do{ \
 630:/usr/avr/include/avr/power.h ****     PRR0 &= (uint8_t)~((1<<PRADC)|(1<<PRSPI)|(1<<PRTWI)|(1<<PRTIM0)|(1<<PRTIM1)|(1<<PRTIM2)|(1<<PRU
 631:/usr/avr/include/avr/power.h ****     PRR1 &= (uint8_t)~((1<<PRTIM3)|(1<<PRTIM4)|(1<<PRTIM5)|(1<<PRTIM5)|(1<<PRUSART1)); \
 632:/usr/avr/include/avr/power.h **** }while(0)
 633:/usr/avr/include/avr/power.h **** 
 634:/usr/avr/include/avr/power.h **** #define power_all_disable() \
 635:/usr/avr/include/avr/power.h **** do{ \
 636:/usr/avr/include/avr/power.h ****     PRR0 |= (uint8_t)((1<<PRADC)|(1<<PRSPI)|(1<<PRTWI)|(1<<PRTIM0)|(1<<PRTIM1)|(1<<PRTIM2)|(1<<PRUS
 637:/usr/avr/include/avr/power.h ****     PRR1 |= (uint8_t)((1<<PRTIM3)|(1<<PRTIM4)|(1<<PRTIM5)|(1<<PRTIM5)|(1<<PRUSART1)); \
 638:/usr/avr/include/avr/power.h **** }while(0)
 639:/usr/avr/include/avr/power.h **** 
 640:/usr/avr/include/avr/power.h **** 
 641:/usr/avr/include/avr/power.h **** #elif defined(__AVR_AT90USB646__) \
 642:/usr/avr/include/avr/power.h **** || defined(__AVR_AT90USB647__) \
 643:/usr/avr/include/avr/power.h **** || defined(__AVR_AT90USB1286__) \
 644:/usr/avr/include/avr/power.h **** || defined(__AVR_AT90USB1287__)
 645:/usr/avr/include/avr/power.h **** 
 646:/usr/avr/include/avr/power.h **** #define power_adc_enable()      (PRR0 &= (uint8_t)~(1 << PRADC))
 647:/usr/avr/include/avr/power.h **** #define power_adc_disable()     (PRR0 |= (uint8_t)(1 << PRADC))
 648:/usr/avr/include/avr/power.h **** 
 649:/usr/avr/include/avr/power.h **** #define power_spi_enable()      (PRR0 &= (uint8_t)~(1 << PRSPI))
 650:/usr/avr/include/avr/power.h **** #define power_spi_disable()     (PRR0 |= (uint8_t)(1 << PRSPI))
 651:/usr/avr/include/avr/power.h **** 
 652:/usr/avr/include/avr/power.h **** #define power_twi_enable()      (PRR0 &= (uint8_t)~(1 << PRTWI))
 653:/usr/avr/include/avr/power.h **** #define power_twi_disable()     (PRR0 |= (uint8_t)(1 << PRTWI))
 654:/usr/avr/include/avr/power.h **** 
 655:/usr/avr/include/avr/power.h **** #define power_timer0_enable()   (PRR0 &= (uint8_t)~(1 << PRTIM0))
 656:/usr/avr/include/avr/power.h **** #define power_timer0_disable()  (PRR0 |= (uint8_t)(1 << PRTIM0))
 657:/usr/avr/include/avr/power.h **** 
 658:/usr/avr/include/avr/power.h **** #define power_timer1_enable()   (PRR0 &= (uint8_t)~(1 << PRTIM1))
 659:/usr/avr/include/avr/power.h **** #define power_timer1_disable()  (PRR0 |= (uint8_t)(1 << PRTIM1))
 660:/usr/avr/include/avr/power.h **** 
 661:/usr/avr/include/avr/power.h **** #define power_timer2_enable()   (PRR0 &= (uint8_t)~(1 << PRTIM2))
 662:/usr/avr/include/avr/power.h **** #define power_timer2_disable()  (PRR0 |= (uint8_t)(1 << PRTIM2))
 663:/usr/avr/include/avr/power.h **** 
 664:/usr/avr/include/avr/power.h **** #define power_timer3_enable()   (PRR1 &= (uint8_t)~(1 << PRTIM3))
 665:/usr/avr/include/avr/power.h **** #define power_timer3_disable()  (PRR1 |= (uint8_t)(1 << PRTIM3))
 666:/usr/avr/include/avr/power.h **** 
 667:/usr/avr/include/avr/power.h **** #define power_usart1_enable()   (PRR1 &= (uint8_t)~(1 << PRUSART1))
 668:/usr/avr/include/avr/power.h **** #define power_usart1_disable()  (PRR1 |= (uint8_t)(1 << PRUSART1))
 669:/usr/avr/include/avr/power.h **** 
 670:/usr/avr/include/avr/power.h **** #define power_usb_enable()      (PRR1 &= (uint8_t)~(1 << PRUSB))
 671:/usr/avr/include/avr/power.h **** #define power_usb_disable()     (PRR1 |= (uint8_t)(1 << PRUSB))
 672:/usr/avr/include/avr/power.h **** 
 673:/usr/avr/include/avr/power.h **** #define power_all_enable() \
 674:/usr/avr/include/avr/power.h **** do{ \
 675:/usr/avr/include/avr/power.h ****     PRR0 &= (uint8_t)~((1<<PRADC)|(1<<PRSPI)|(1<<PRTWI)|(1<<PRTIM0)|(1<<PRTIM1)|(1<<PRTIM2)); \
 676:/usr/avr/include/avr/power.h ****     PRR1 &= (uint8_t)~((1<<PRTIM3)|(1<<PRUSART1)|(1<<PRUSB)); \
 677:/usr/avr/include/avr/power.h **** }while(0)
 678:/usr/avr/include/avr/power.h **** 
 679:/usr/avr/include/avr/power.h **** #define power_all_disable() \
 680:/usr/avr/include/avr/power.h **** do{ \
 681:/usr/avr/include/avr/power.h ****     PRR0 |= (uint8_t)((1<<PRADC)|(1<<PRSPI)|(1<<PRTWI)|(1<<PRTIM0)|(1<<PRTIM1)|(1<<PRTIM2)); \
 682:/usr/avr/include/avr/power.h ****     PRR1 |= (uint8_t)((1<<PRTIM3)|(1<<PRUSART1)|(1<<PRUSB)); \
GAS LISTING /tmp/ccPGKZum.s 			page 18


 683:/usr/avr/include/avr/power.h **** }while(0)
 684:/usr/avr/include/avr/power.h **** 
 685:/usr/avr/include/avr/power.h **** 
 686:/usr/avr/include/avr/power.h **** #elif defined(__AVR_ATmega32U4__) \
 687:/usr/avr/include/avr/power.h **** || defined(__AVR_ATmega16U4__)
 688:/usr/avr/include/avr/power.h **** 
 689:/usr/avr/include/avr/power.h **** 
 690:/usr/avr/include/avr/power.h **** #define power_adc_enable()      (PRR0 &= (uint8_t)~(1 << PRADC))
 691:/usr/avr/include/avr/power.h **** #define power_adc_disable()     (PRR0 |= (uint8_t)(1 << PRADC))
 692:/usr/avr/include/avr/power.h **** 
 693:/usr/avr/include/avr/power.h **** #define power_usart0_enable()   (PRR0 &= (uint8_t)~(1 << PRUSART0))
 694:/usr/avr/include/avr/power.h **** #define power_usart0_disable()  (PRR0 |= (uint8_t)(1 << PRUSART0))
 695:/usr/avr/include/avr/power.h **** 
 696:/usr/avr/include/avr/power.h **** #define power_spi_enable()      (PRR0 &= (uint8_t)~(1 << PRSPI))
 697:/usr/avr/include/avr/power.h **** #define power_spi_disable()     (PRR0 |= (uint8_t)(1 << PRSPI))
 698:/usr/avr/include/avr/power.h **** 
 699:/usr/avr/include/avr/power.h **** #define power_twi_enable()      (PRR0 &= (uint8_t)~(1 << PRTWI))
 700:/usr/avr/include/avr/power.h **** #define power_twi_disable()     (PRR0 |= (uint8_t)(1 << PRTWI))
 701:/usr/avr/include/avr/power.h **** 
 702:/usr/avr/include/avr/power.h **** #define power_timer0_enable()   (PRR0 &= (uint8_t)~(1 << PRTIM0))
 703:/usr/avr/include/avr/power.h **** #define power_timer0_disable()  (PRR0 |= (uint8_t)(1 << PRTIM0))
 704:/usr/avr/include/avr/power.h **** 
 705:/usr/avr/include/avr/power.h **** #define power_timer1_enable()   (PRR0 &= (uint8_t)~(1 << PRTIM1))
 706:/usr/avr/include/avr/power.h **** #define power_timer1_disable()  (PRR0 |= (uint8_t)(1 << PRTIM1))
 707:/usr/avr/include/avr/power.h **** 
 708:/usr/avr/include/avr/power.h **** #define power_timer2_enable()   (PRR0 &= (uint8_t)~(1 << PRTIM2))
 709:/usr/avr/include/avr/power.h **** #define power_timer2_disable()  (PRR0 |= (uint8_t)(1 << PRTIM2))
 710:/usr/avr/include/avr/power.h **** 
 711:/usr/avr/include/avr/power.h **** #define power_timer3_enable()   (PRR1 &= (uint8_t)~(1 << PRTIM3))
 712:/usr/avr/include/avr/power.h **** #define power_timer3_disable()  (PRR1 |= (uint8_t)(1 << PRTIM3))
 713:/usr/avr/include/avr/power.h **** 
 714:/usr/avr/include/avr/power.h **** #define power_usart1_enable()   (PRR1 &= (uint8_t)~(1 << PRUSART1))
 715:/usr/avr/include/avr/power.h **** #define power_usart1_disable()  (PRR1 |= (uint8_t)(1 << PRUSART1))
 716:/usr/avr/include/avr/power.h **** 
 717:/usr/avr/include/avr/power.h **** #define power_usb_enable()      (PRR1 &= (uint8_t)~(1 << PRUSB))
 718:/usr/avr/include/avr/power.h **** #define power_usb_disable()     (PRR1 |= (uint8_t)(1 << PRUSB))
 719:/usr/avr/include/avr/power.h **** 
 720:/usr/avr/include/avr/power.h **** #define power_all_enable() \
 721:/usr/avr/include/avr/power.h **** do{ \
 722:/usr/avr/include/avr/power.h ****     PRR0 &= (uint8_t)~((1<<PRADC)|(1<<PRUSART0)|(1<<PRSPI)|(1<<PRTWI)|(1<<PRTIM0)|(1<<PRTIM1)|(1<<P
 723:/usr/avr/include/avr/power.h ****     PRR1 &= (uint8_t)~((1<<PRTIM3)|(1<<PRUSART1)|(1<<PRUSB)); \
 724:/usr/avr/include/avr/power.h **** }while(0)
 725:/usr/avr/include/avr/power.h **** 
 726:/usr/avr/include/avr/power.h **** #define power_all_disable() \
 727:/usr/avr/include/avr/power.h **** do{ \
 728:/usr/avr/include/avr/power.h ****     PRR0 |= (uint8_t)((1<<PRADC)|(1<<PRUSART0)|(1<<PRSPI)|(1<<PRTWI)|(1<<PRTIM0)|(1<<PRTIM1)|(1<<PR
 729:/usr/avr/include/avr/power.h ****     PRR1 |= (uint8_t)((1<<PRTIM3)|(1<<PRUSART1)|(1<<PRUSB)); \
 730:/usr/avr/include/avr/power.h **** }while(0)
 731:/usr/avr/include/avr/power.h **** 
 732:/usr/avr/include/avr/power.h **** 
 733:/usr/avr/include/avr/power.h **** #elif defined(__AVR_ATmega32U6__)
 734:/usr/avr/include/avr/power.h **** 
 735:/usr/avr/include/avr/power.h **** 
 736:/usr/avr/include/avr/power.h **** #define power_adc_enable()      (PRR0 &= (uint8_t)~(1 << PRADC))
 737:/usr/avr/include/avr/power.h **** #define power_adc_disable()     (PRR0 |= (uint8_t)(1 << PRADC))
 738:/usr/avr/include/avr/power.h **** 
 739:/usr/avr/include/avr/power.h **** #define power_spi_enable()      (PRR0 &= (uint8_t)~(1 << PRSPI))
GAS LISTING /tmp/ccPGKZum.s 			page 19


 740:/usr/avr/include/avr/power.h **** #define power_spi_disable()     (PRR0 |= (uint8_t)(1 << PRSPI))
 741:/usr/avr/include/avr/power.h **** 
 742:/usr/avr/include/avr/power.h **** #define power_twi_enable()      (PRR0 &= (uint8_t)~(1 << PRTWI))
 743:/usr/avr/include/avr/power.h **** #define power_twi_disable()     (PRR0 |= (uint8_t)(1 << PRTWI))
 744:/usr/avr/include/avr/power.h **** 
 745:/usr/avr/include/avr/power.h **** #define power_timer0_enable()   (PRR0 &= (uint8_t)~(1 << PRTIM0))
 746:/usr/avr/include/avr/power.h **** #define power_timer0_disable()  (PRR0 |= (uint8_t)(1 << PRTIM0))
 747:/usr/avr/include/avr/power.h **** 
 748:/usr/avr/include/avr/power.h **** #define power_timer1_enable()   (PRR0 &= (uint8_t)~(1 << PRTIM1))
 749:/usr/avr/include/avr/power.h **** #define power_timer1_disable()  (PRR0 |= (uint8_t)(1 << PRTIM1))
 750:/usr/avr/include/avr/power.h **** 
 751:/usr/avr/include/avr/power.h **** #define power_timer2_enable()   (PRR0 &= (uint8_t)~(1 << PRTIM2))
 752:/usr/avr/include/avr/power.h **** #define power_timer2_disable()  (PRR0 |= (uint8_t)(1 << PRTIM2))
 753:/usr/avr/include/avr/power.h **** 
 754:/usr/avr/include/avr/power.h **** #define power_timer3_enable()   (PRR1 &= (uint8_t)~(1 << PRTIM3))
 755:/usr/avr/include/avr/power.h **** #define power_timer3_disable()  (PRR1 |= (uint8_t)(1 << PRTIM3))
 756:/usr/avr/include/avr/power.h **** 
 757:/usr/avr/include/avr/power.h **** #define power_usart1_enable()   (PRR1 &= (uint8_t)~(1 << PRUSART1))
 758:/usr/avr/include/avr/power.h **** #define power_usart1_disable()  (PRR1 |= (uint8_t)(1 << PRUSART1))
 759:/usr/avr/include/avr/power.h **** 
 760:/usr/avr/include/avr/power.h **** #define power_usb_enable()      (PRR1 &= (uint8_t)~(1 << PRUSB))
 761:/usr/avr/include/avr/power.h **** #define power_usb_disable()     (PRR1 |= (uint8_t)(1 << PRUSB))
 762:/usr/avr/include/avr/power.h **** 
 763:/usr/avr/include/avr/power.h **** #define power_all_enable() \
 764:/usr/avr/include/avr/power.h **** do{ \
 765:/usr/avr/include/avr/power.h ****     PRR0 &= (uint8_t)~((1<<PRADC)|(1<<PRSPI)|(1<<PRTWI)|(1<<PRTIM0)|(1<<PRTIM1)|(1<<PRTIM2)); \
 766:/usr/avr/include/avr/power.h ****     PRR1 &= (uint8_t)~((1<<PRTIM3)|(1<<PRUSART1)|(1<<PRUSB)); \
 767:/usr/avr/include/avr/power.h **** }while(0)
 768:/usr/avr/include/avr/power.h **** 
 769:/usr/avr/include/avr/power.h **** #define power_all_disable() \
 770:/usr/avr/include/avr/power.h **** do{ \
 771:/usr/avr/include/avr/power.h ****     PRR0 |= (uint8_t)((1<<PRADC)|(1<<PRSPI)|(1<<PRTWI)|(1<<PRTIM0)|(1<<PRTIM1)|(1<<PRTIM2)); \
 772:/usr/avr/include/avr/power.h ****     PRR1 |= (uint8_t)((1<<PRTIM3)|(1<<PRUSART1)|(1<<PRUSB)); \
 773:/usr/avr/include/avr/power.h **** }while(0)
 774:/usr/avr/include/avr/power.h **** 
 775:/usr/avr/include/avr/power.h **** 
 776:/usr/avr/include/avr/power.h **** #elif defined(__AVR_AT90PWM1__)
 777:/usr/avr/include/avr/power.h **** 
 778:/usr/avr/include/avr/power.h **** #define power_adc_enable()      (PRR &= (uint8_t)~(1 << PRADC))
 779:/usr/avr/include/avr/power.h **** #define power_adc_disable()     (PRR |= (uint8_t)(1 << PRADC))
 780:/usr/avr/include/avr/power.h **** 
 781:/usr/avr/include/avr/power.h **** #define power_spi_enable()      (PRR &= (uint8_t)~(1 << PRSPI))
 782:/usr/avr/include/avr/power.h **** #define power_spi_disable()     (PRR |= (uint8_t)(1 << PRSPI))
 783:/usr/avr/include/avr/power.h **** 
 784:/usr/avr/include/avr/power.h **** #define power_timer0_enable()   (PRR &= (uint8_t)~(1 << PRTIM0))
 785:/usr/avr/include/avr/power.h **** #define power_timer0_disable()  (PRR |= (uint8_t)(1 << PRTIM0))
 786:/usr/avr/include/avr/power.h **** 
 787:/usr/avr/include/avr/power.h **** #define power_timer1_enable()   (PRR &= (uint8_t)~(1 << PRTIM1))
 788:/usr/avr/include/avr/power.h **** #define power_timer1_disable()  (PRR |= (uint8_t)(1 << PRTIM1))
 789:/usr/avr/include/avr/power.h **** 
 790:/usr/avr/include/avr/power.h **** /* Power Stage Controller 0 */
 791:/usr/avr/include/avr/power.h **** #define power_psc0_enable()     (PRR &= (uint8_t)~(1 << PRPSC0))
 792:/usr/avr/include/avr/power.h **** #define power_psc0_disable()    (PRR |= (uint8_t)(1 << PRPSC0))
 793:/usr/avr/include/avr/power.h **** 
 794:/usr/avr/include/avr/power.h **** /* Power Stage Controller 1 */
 795:/usr/avr/include/avr/power.h **** #define power_psc1_enable()     (PRR &= (uint8_t)~(1 << PRPSC1))
 796:/usr/avr/include/avr/power.h **** #define power_psc1_disable()    (PRR |= (uint8_t)(1 << PRPSC1))
GAS LISTING /tmp/ccPGKZum.s 			page 20


 797:/usr/avr/include/avr/power.h **** 
 798:/usr/avr/include/avr/power.h **** /* Power Stage Controller 2 */
 799:/usr/avr/include/avr/power.h **** #define power_psc2_enable()     (PRR &= (uint8_t)~(1 << PRPSC2))
 800:/usr/avr/include/avr/power.h **** #define power_psc2_disable()    (PRR |= (uint8_t)(1 << PRPSC2))
 801:/usr/avr/include/avr/power.h **** 
 802:/usr/avr/include/avr/power.h **** #define power_all_enable()      (PRR &= (uint8_t)~((1<<PRADC)|(1<<PRSPI)|(1<<PRTIM0)|(1<<PRTIM1)|(1
 803:/usr/avr/include/avr/power.h **** #define power_all_disable()     (PRR |= (uint8_t)((1<<PRADC)|(1<<PRSPI)|(1<<PRTIM0)|(1<<PRTIM1)|(1<
 804:/usr/avr/include/avr/power.h **** 
 805:/usr/avr/include/avr/power.h **** 
 806:/usr/avr/include/avr/power.h **** #elif defined(__AVR_AT90PWM2__) \
 807:/usr/avr/include/avr/power.h **** || defined(__AVR_AT90PWM2B__) \
 808:/usr/avr/include/avr/power.h **** || defined(__AVR_AT90PWM3__) \
 809:/usr/avr/include/avr/power.h **** || defined(__AVR_AT90PWM3B__) \
 810:/usr/avr/include/avr/power.h **** || defined(__AVR_AT90PWM216__) \
 811:/usr/avr/include/avr/power.h **** || defined(__AVR_AT90PWM316__)
 812:/usr/avr/include/avr/power.h **** 
 813:/usr/avr/include/avr/power.h **** #define power_adc_enable()      (PRR &= (uint8_t)~(1 << PRADC))
 814:/usr/avr/include/avr/power.h **** #define power_adc_disable()     (PRR |= (uint8_t)(1 << PRADC))
 815:/usr/avr/include/avr/power.h **** 
 816:/usr/avr/include/avr/power.h **** #define power_spi_enable()      (PRR &= (uint8_t)~(1 << PRSPI))
 817:/usr/avr/include/avr/power.h **** #define power_spi_disable()     (PRR |= (uint8_t)(1 << PRSPI))
 818:/usr/avr/include/avr/power.h **** 
 819:/usr/avr/include/avr/power.h **** #define power_usart_enable()    (PRR &= (uint8_t)~(1 << PRUSART))
 820:/usr/avr/include/avr/power.h **** #define power_usart_disable()   (PRR |= (uint8_t)(1 << PRUSART))
 821:/usr/avr/include/avr/power.h **** 
 822:/usr/avr/include/avr/power.h **** #define power_timer0_enable()   (PRR &= (uint8_t)~(1 << PRTIM0))
 823:/usr/avr/include/avr/power.h **** #define power_timer0_disable()  (PRR |= (uint8_t)(1 << PRTIM0))
 824:/usr/avr/include/avr/power.h **** 
 825:/usr/avr/include/avr/power.h **** #define power_timer1_enable()   (PRR &= (uint8_t)~(1 << PRTIM1))
 826:/usr/avr/include/avr/power.h **** #define power_timer1_disable()  (PRR |= (uint8_t)(1 << PRTIM1))
 827:/usr/avr/include/avr/power.h **** 
 828:/usr/avr/include/avr/power.h **** /* Power Stage Controller 0 */
 829:/usr/avr/include/avr/power.h **** #define power_psc0_enable()     (PRR &= (uint8_t)~(1 << PRPSC0))
 830:/usr/avr/include/avr/power.h **** #define power_psc0_disable()    (PRR |= (uint8_t)(1 << PRPSC0))
 831:/usr/avr/include/avr/power.h **** 
 832:/usr/avr/include/avr/power.h **** /* Power Stage Controller 1 */
 833:/usr/avr/include/avr/power.h **** #define power_psc1_enable()     (PRR &= (uint8_t)~(1 << PRPSC1))
 834:/usr/avr/include/avr/power.h **** #define power_psc1_disable()    (PRR |= (uint8_t)(1 << PRPSC1))
 835:/usr/avr/include/avr/power.h **** 
 836:/usr/avr/include/avr/power.h **** /* Power Stage Controller 2 */
 837:/usr/avr/include/avr/power.h **** #define power_psc2_enable()     (PRR &= (uint8_t)~(1 << PRPSC2))
 838:/usr/avr/include/avr/power.h **** #define power_psc2_disable()    (PRR |= (uint8_t)(1 << PRPSC2))
 839:/usr/avr/include/avr/power.h **** 
 840:/usr/avr/include/avr/power.h **** #define power_all_enable()      (PRR &= (uint8_t)~((1<<PRADC)|(1<<PRSPI)|(1<<PRUSART)|(1<<PRTIM0)|(
 841:/usr/avr/include/avr/power.h **** #define power_all_disable()     (PRR |= (uint8_t)((1<<PRADC)|(1<<PRSPI)|(1<<PRUSART)|(1<<PRTIM0)|(1
 842:/usr/avr/include/avr/power.h **** 
 843:/usr/avr/include/avr/power.h **** 
 844:/usr/avr/include/avr/power.h **** #elif defined(__AVR_AT90PWM81__)
 845:/usr/avr/include/avr/power.h **** 
 846:/usr/avr/include/avr/power.h **** #define power_adc_enable()      (PRR &= (uint8_t)~(1 << PRADC))
 847:/usr/avr/include/avr/power.h **** #define power_adc_disable()     (PRR |= (uint8_t)(1 << PRADC))
 848:/usr/avr/include/avr/power.h **** 
 849:/usr/avr/include/avr/power.h **** #define power_spi_enable()      (PRR &= (uint8_t)~(1 << PRSPI))
 850:/usr/avr/include/avr/power.h **** #define power_spi_disable()     (PRR |= (uint8_t)(1 << PRSPI))
 851:/usr/avr/include/avr/power.h **** 
 852:/usr/avr/include/avr/power.h **** #define power_timer1_enable()   (PRR &= (uint8_t)~(1 << PRTIM1))
 853:/usr/avr/include/avr/power.h **** #define power_timer1_disable()  (PRR |= (uint8_t)(1 << PRTIM1))
GAS LISTING /tmp/ccPGKZum.s 			page 21


 854:/usr/avr/include/avr/power.h **** 
 855:/usr/avr/include/avr/power.h **** /* Reduced Power Stage Controller */
 856:/usr/avr/include/avr/power.h **** #define power_pscr_enable()     (PRR &= (uint8_t)~(1 << PRPSCR))
 857:/usr/avr/include/avr/power.h **** #define power_pscr_disable()    (PRR |= (uint8_t)(1 << PRPSCR))
 858:/usr/avr/include/avr/power.h **** 
 859:/usr/avr/include/avr/power.h **** /* Power Stage Controller 2 */
 860:/usr/avr/include/avr/power.h **** #define power_psc2_enable()     (PRR &= (uint8_t)~(1 << PRPSC2))
 861:/usr/avr/include/avr/power.h **** #define power_psc2_disable()    (PRR |= (uint8_t)(1 << PRPSC2))
 862:/usr/avr/include/avr/power.h **** 
 863:/usr/avr/include/avr/power.h **** #define power_all_enable()      (PRR &= (uint8_t)~((1<<PRADC)|(1<<PRSPI)|(1<<PRTIM1)|(1<<PRPSCR)|(1
 864:/usr/avr/include/avr/power.h **** #define power_all_disable()     (PRR |= (uint8_t)((1<<PRADC)|(1<<PRSPI)|(1<<PRTIM1)|(1<<PRPSCR)|(1<
 865:/usr/avr/include/avr/power.h **** 
 866:/usr/avr/include/avr/power.h **** 
 867:/usr/avr/include/avr/power.h **** #elif defined(__AVR_ATmega165__) \
 868:/usr/avr/include/avr/power.h **** || defined(__AVR_ATmega165A__) \
 869:/usr/avr/include/avr/power.h **** || defined(__AVR_ATmega165P__) \
 870:/usr/avr/include/avr/power.h **** || defined(__AVR_ATmega325__) \
 871:/usr/avr/include/avr/power.h **** || defined(__AVR_ATmega325A__) \
 872:/usr/avr/include/avr/power.h **** || defined(__AVR_ATmega3250__) \
 873:/usr/avr/include/avr/power.h **** || defined(__AVR_ATmega3250A__) \
 874:/usr/avr/include/avr/power.h **** || defined(__AVR_ATmega645__) \
 875:/usr/avr/include/avr/power.h **** || defined(__AVR_ATmega645A__) \
 876:/usr/avr/include/avr/power.h **** || defined(__AVR_ATmega645P__) \
 877:/usr/avr/include/avr/power.h **** || defined(__AVR_ATmega6450__) \
 878:/usr/avr/include/avr/power.h **** || defined(__AVR_ATmega6450A__) \
 879:/usr/avr/include/avr/power.h **** || defined(__AVR_ATmega6450P__)
 880:/usr/avr/include/avr/power.h **** 
 881:/usr/avr/include/avr/power.h **** #define power_adc_enable()      (PRR &= (uint8_t)~(1 << PRADC))
 882:/usr/avr/include/avr/power.h **** #define power_adc_disable()     (PRR |= (uint8_t)(1 << PRADC))
 883:/usr/avr/include/avr/power.h **** 
 884:/usr/avr/include/avr/power.h **** #define power_spi_enable()      (PRR &= (uint8_t)~(1 << PRSPI))
 885:/usr/avr/include/avr/power.h **** #define power_spi_disable()     (PRR |= (uint8_t)(1 << PRSPI))
 886:/usr/avr/include/avr/power.h **** 
 887:/usr/avr/include/avr/power.h **** #define power_usart0_enable()   (PRR &= (uint8_t)~(1 << PRUSART0))
 888:/usr/avr/include/avr/power.h **** #define power_usart0_disable()  (PRR |= (uint8_t)(1 << PRUSART0))
 889:/usr/avr/include/avr/power.h **** 
 890:/usr/avr/include/avr/power.h **** #define power_timer1_enable()   (PRR &= (uint8_t)~(1 << PRTIM1))
 891:/usr/avr/include/avr/power.h **** #define power_timer1_disable()  (PRR |= (uint8_t)(1 << PRTIM1))
 892:/usr/avr/include/avr/power.h **** 
 893:/usr/avr/include/avr/power.h **** #define power_all_enable()      (PRR &= (uint8_t)~((1<<PRADC)|(1<<PRSPI)|(1<<PRUSART0)|(1<<PRTIM1))
 894:/usr/avr/include/avr/power.h **** #define power_all_disable()     (PRR |= (uint8_t)((1<<PRADC)|(1<<PRSPI)|(1<<PRUSART0)|(1<<PRTIM1)))
 895:/usr/avr/include/avr/power.h **** 
 896:/usr/avr/include/avr/power.h **** 
 897:/usr/avr/include/avr/power.h **** #elif defined(__AVR_ATmega169__) \
 898:/usr/avr/include/avr/power.h **** || defined(__AVR_ATmega169A__) \
 899:/usr/avr/include/avr/power.h **** || defined(__AVR_ATmega169P__) \
 900:/usr/avr/include/avr/power.h **** || defined(__AVR_ATmega169PA__) \
 901:/usr/avr/include/avr/power.h **** || defined(__AVR_ATmega329__) \
 902:/usr/avr/include/avr/power.h **** || defined(__AVR_ATmega329A__) \
 903:/usr/avr/include/avr/power.h **** || defined(__AVR_ATmega329P__) \
 904:/usr/avr/include/avr/power.h **** || defined(__AVR_ATmega329PA__) \
 905:/usr/avr/include/avr/power.h **** || defined(__AVR_ATmega3290__) \
 906:/usr/avr/include/avr/power.h **** || defined(__AVR_ATmega3290A__) \
 907:/usr/avr/include/avr/power.h **** || defined(__AVR_ATmega3290P__) \
 908:/usr/avr/include/avr/power.h **** || defined(__AVR_ATmega649__) \
 909:/usr/avr/include/avr/power.h **** || defined(__AVR_ATmega649A__) \
 910:/usr/avr/include/avr/power.h **** || defined(__AVR_ATmega649P__) \
GAS LISTING /tmp/ccPGKZum.s 			page 22


 911:/usr/avr/include/avr/power.h **** || defined(__AVR_ATmega6490__) \
 912:/usr/avr/include/avr/power.h **** || defined(__AVR_ATmega6490A__) \
 913:/usr/avr/include/avr/power.h **** || defined(__AVR_ATmega6490P__)
 914:/usr/avr/include/avr/power.h **** 
 915:/usr/avr/include/avr/power.h **** #define power_adc_enable()      (PRR &= (uint8_t)~(1 << PRADC))
 916:/usr/avr/include/avr/power.h **** #define power_adc_disable()     (PRR |= (uint8_t)(1 << PRADC))
 917:/usr/avr/include/avr/power.h **** 
 918:/usr/avr/include/avr/power.h **** #define power_spi_enable()      (PRR &= (uint8_t)~(1 << PRSPI))
 919:/usr/avr/include/avr/power.h **** #define power_spi_disable()     (PRR |= (uint8_t)(1 << PRSPI))
 920:/usr/avr/include/avr/power.h **** 
 921:/usr/avr/include/avr/power.h **** #define power_usart0_enable()   (PRR &= (uint8_t)~(1 << PRUSART0))
 922:/usr/avr/include/avr/power.h **** #define power_usart0_disable()  (PRR |= (uint8_t)(1 << PRUSART0))
 923:/usr/avr/include/avr/power.h **** 
 924:/usr/avr/include/avr/power.h **** #define power_timer1_enable()   (PRR &= (uint8_t)~(1 << PRTIM1))
 925:/usr/avr/include/avr/power.h **** #define power_timer1_disable()  (PRR |= (uint8_t)(1 << PRTIM1))
 926:/usr/avr/include/avr/power.h **** 
 927:/usr/avr/include/avr/power.h **** #define power_lcd_enable()      (PRR &= (uint8_t)~(1 << PRLCD))
 928:/usr/avr/include/avr/power.h **** #define power_lcd_disable()     (PRR |= (uint8_t)(1 << PRLCD))
 929:/usr/avr/include/avr/power.h **** 
 930:/usr/avr/include/avr/power.h **** #define power_all_enable()      (PRR &= (uint8_t)~((1<<PRADC)|(1<<PRSPI)|(1<<PRUSART0)|(1<<PRTIM1)|
 931:/usr/avr/include/avr/power.h **** #define power_all_disable()     (PRR |= (uint8_t)((1<<PRADC)|(1<<PRSPI)|(1<<PRUSART0)|(1<<PRTIM1)|(
 932:/usr/avr/include/avr/power.h **** 
 933:/usr/avr/include/avr/power.h **** 
 934:/usr/avr/include/avr/power.h **** #elif defined(__AVR_ATmega164A__) \
 935:/usr/avr/include/avr/power.h **** || defined(__AVR_ATmega164P__) \
 936:/usr/avr/include/avr/power.h **** || defined(__AVR_ATmega324A__) \
 937:/usr/avr/include/avr/power.h **** || defined(__AVR_ATmega324P__) \
 938:/usr/avr/include/avr/power.h **** || defined(__AVR_ATmega324PA__) \
 939:/usr/avr/include/avr/power.h **** || defined(__AVR_ATmega644P__) \
 940:/usr/avr/include/avr/power.h **** || defined(__AVR_ATmega644A__) \
 941:/usr/avr/include/avr/power.h **** || defined(__AVR_ATmega644PA__)
 942:/usr/avr/include/avr/power.h **** 
 943:/usr/avr/include/avr/power.h **** #define power_adc_enable()      (PRR0 &= (uint8_t)~(1 << PRADC))
 944:/usr/avr/include/avr/power.h **** #define power_adc_disable()     (PRR0 |= (uint8_t)(1 << PRADC))
 945:/usr/avr/include/avr/power.h **** 
 946:/usr/avr/include/avr/power.h **** #define power_spi_enable()      (PRR0 &= (uint8_t)~(1 << PRSPI))
 947:/usr/avr/include/avr/power.h **** #define power_spi_disable()     (PRR0 |= (uint8_t)(1 << PRSPI))
 948:/usr/avr/include/avr/power.h **** 
 949:/usr/avr/include/avr/power.h **** #define power_usart0_enable()   (PRR0 &= (uint8_t)~(1 << PRUSART0))
 950:/usr/avr/include/avr/power.h **** #define power_usart0_disable()  (PRR0 |= (uint8_t)(1 << PRUSART0))
 951:/usr/avr/include/avr/power.h **** 
 952:/usr/avr/include/avr/power.h **** #define power_usart1_enable()   (PRR0 &= (uint8_t)~(1 << PRUSART1))
 953:/usr/avr/include/avr/power.h **** #define power_usart1_disable()  (PRR0 |= (uint8_t)(1 << PRUSART1))
 954:/usr/avr/include/avr/power.h **** 
 955:/usr/avr/include/avr/power.h **** #define power_timer0_enable()   (PRR0 &= (uint8_t)~(1 << PRTIM0))
 956:/usr/avr/include/avr/power.h **** #define power_timer0_disable()  (PRR0 |= (uint8_t)(1 << PRTIM0))
 957:/usr/avr/include/avr/power.h **** 
 958:/usr/avr/include/avr/power.h **** #define power_timer1_enable()   (PRR0 &= (uint8_t)~(1 << PRTIM1))
 959:/usr/avr/include/avr/power.h **** #define power_timer1_disable()  (PRR0 |= (uint8_t)(1 << PRTIM1))
 960:/usr/avr/include/avr/power.h **** 
 961:/usr/avr/include/avr/power.h **** #define power_timer2_enable()   (PRR0 &= (uint8_t)~(1 << PRTIM2))
 962:/usr/avr/include/avr/power.h **** #define power_timer2_disable()  (PRR0 |= (uint8_t)(1 << PRTIM2))
 963:/usr/avr/include/avr/power.h **** 
 964:/usr/avr/include/avr/power.h **** #define power_twi_enable()      (PRR0 &= (uint8_t)~(1 << PRTWI))
 965:/usr/avr/include/avr/power.h **** #define power_twi_disable()     (PRR0 |= (uint8_t)(1 << PRTWI))
 966:/usr/avr/include/avr/power.h **** 
 967:/usr/avr/include/avr/power.h **** #define power_all_enable()      (PRR0 &= (uint8_t)~((1<<PRADC)|(1<<PRSPI)|(1<<PRUSART0)|(1<<PRUSART
GAS LISTING /tmp/ccPGKZum.s 			page 23


 968:/usr/avr/include/avr/power.h **** #define power_all_disable()     (PRR0 |= (uint8_t)((1<<PRADC)|(1<<PRSPI)|(1<<PRUSART0)|(1<<PRUSART1
 969:/usr/avr/include/avr/power.h **** 
 970:/usr/avr/include/avr/power.h **** 
 971:/usr/avr/include/avr/power.h **** #elif defined(__AVR_ATmega644__)
 972:/usr/avr/include/avr/power.h **** 
 973:/usr/avr/include/avr/power.h **** #define power_adc_enable()      (PRR0 &= (uint8_t)~(1 << PRADC))
 974:/usr/avr/include/avr/power.h **** #define power_adc_disable()     (PRR0 |= (uint8_t)(1 << PRADC))
 975:/usr/avr/include/avr/power.h **** 
 976:/usr/avr/include/avr/power.h **** #define power_spi_enable()      (PRR0 &= (uint8_t)~(1 << PRSPI))
 977:/usr/avr/include/avr/power.h **** #define power_spi_disable()     (PRR0 |= (uint8_t)(1 << PRSPI))
 978:/usr/avr/include/avr/power.h **** 
 979:/usr/avr/include/avr/power.h **** #define power_usart0_enable()   (PRR0 &= (uint8_t)~(1 << PRUSART0))
 980:/usr/avr/include/avr/power.h **** #define power_usart0_disable()  (PRR0 |= (uint8_t)(1 << PRUSART0))
 981:/usr/avr/include/avr/power.h **** 
 982:/usr/avr/include/avr/power.h **** #define power_timer0_enable()   (PRR0 &= (uint8_t)~(1 << PRTIM0))
 983:/usr/avr/include/avr/power.h **** #define power_timer0_disable()  (PRR0 |= (uint8_t)(1 << PRTIM0))
 984:/usr/avr/include/avr/power.h **** 
 985:/usr/avr/include/avr/power.h **** #define power_timer1_enable()   (PRR0 &= (uint8_t)~(1 << PRTIM1))
 986:/usr/avr/include/avr/power.h **** #define power_timer1_disable()  (PRR0 |= (uint8_t)(1 << PRTIM1))
 987:/usr/avr/include/avr/power.h **** 
 988:/usr/avr/include/avr/power.h **** #define power_timer2_enable()   (PRR0 &= (uint8_t)~(1 << PRTIM2))
 989:/usr/avr/include/avr/power.h **** #define power_timer2_disable()  (PRR0 |= (uint8_t)(1 << PRTIM2))
 990:/usr/avr/include/avr/power.h **** 
 991:/usr/avr/include/avr/power.h **** #define power_twi_enable()      (PRR0 &= (uint8_t)~(1 << PRTWI))
 992:/usr/avr/include/avr/power.h **** #define power_twi_disable()     (PRR0 |= (uint8_t)(1 << PRTWI))
 993:/usr/avr/include/avr/power.h **** 
 994:/usr/avr/include/avr/power.h **** #define power_all_enable()      (PRR0 &= (uint8_t)~((1<<PRADC)|(1<<PRSPI)|(1<<PRUSART0)|(1<<PRTIM0)
 995:/usr/avr/include/avr/power.h **** #define power_all_disable()     (PRR0 |= (uint8_t)((1<<PRADC)|(1<<PRSPI)|(1<<PRUSART0)|(1<<PRTIM0)|
 996:/usr/avr/include/avr/power.h **** 
 997:/usr/avr/include/avr/power.h **** 
 998:/usr/avr/include/avr/power.h **** #elif defined(__AVR_ATmega406__)
 999:/usr/avr/include/avr/power.h **** 
1000:/usr/avr/include/avr/power.h **** #define power_twi_enable()      (PRR0 &= (uint8_t)~(1 << PRTWI))
1001:/usr/avr/include/avr/power.h **** #define power_twi_disable()     (PRR0 |= (uint8_t)(1 << PRTWI))
1002:/usr/avr/include/avr/power.h **** 
1003:/usr/avr/include/avr/power.h **** #define power_timer0_enable()   (PRR0 &= (uint8_t)~(1 << PRTIM0))
1004:/usr/avr/include/avr/power.h **** #define power_timer0_disable()  (PRR0 |= (uint8_t)(1 << PRTIM0))
1005:/usr/avr/include/avr/power.h **** 
1006:/usr/avr/include/avr/power.h **** #define power_timer1_enable()   (PRR0 &= (uint8_t)~(1 << PRTIM1))
1007:/usr/avr/include/avr/power.h **** #define power_timer1_disable()  (PRR0 |= (uint8_t)(1 << PRTIM1))
1008:/usr/avr/include/avr/power.h **** 
1009:/usr/avr/include/avr/power.h **** /* Voltage ADC */
1010:/usr/avr/include/avr/power.h **** #define power_vadc_enable()     (PRR0 &= (uint8_t)~(1 << PRVADC))
1011:/usr/avr/include/avr/power.h **** #define power_vadc_disable()    (PRR0 |= (uint8_t)(1 << PRVADC))
1012:/usr/avr/include/avr/power.h **** 
1013:/usr/avr/include/avr/power.h **** #define power_all_enable()      (PRR0 &= (uint8_t)~((1<<PRTWI)|(1<<PRTIM0)|(1<<PRTIM1)|(1<<PRVADC))
1014:/usr/avr/include/avr/power.h **** #define power_all_disable()     (PRR0 |= (uint8_t)((1<<PRTWI)|(1<<PRTIM0)|(1<<PRTIM1)|(1<<PRVADC)))
1015:/usr/avr/include/avr/power.h **** 
1016:/usr/avr/include/avr/power.h **** 
1017:/usr/avr/include/avr/power.h **** #elif defined(__AVR_ATmega48__) \
1018:/usr/avr/include/avr/power.h **** || defined(__AVR_ATmega48A__) \
1019:/usr/avr/include/avr/power.h **** || defined(__AVR_ATmega48P__) \
1020:/usr/avr/include/avr/power.h **** || defined(__AVR_ATmega88__) \
1021:/usr/avr/include/avr/power.h **** || defined(__AVR_ATmega88A__) \
1022:/usr/avr/include/avr/power.h **** || defined(__AVR_ATmega88P__) \
1023:/usr/avr/include/avr/power.h **** || defined(__AVR_ATmega88PA__) \
1024:/usr/avr/include/avr/power.h **** || defined(__AVR_ATmega168__) \
GAS LISTING /tmp/ccPGKZum.s 			page 24


1025:/usr/avr/include/avr/power.h **** || defined(__AVR_ATmega168A__) \
1026:/usr/avr/include/avr/power.h **** || defined(__AVR_ATmega168P__) \
1027:/usr/avr/include/avr/power.h **** || defined(__AVR_ATmega328__) \
1028:/usr/avr/include/avr/power.h **** || defined(__AVR_ATmega328P__) \
1029:/usr/avr/include/avr/power.h **** || defined(__AVR_ATtiny48__) \
1030:/usr/avr/include/avr/power.h **** || defined(__AVR_ATtiny88__)
1031:/usr/avr/include/avr/power.h **** 
1032:/usr/avr/include/avr/power.h **** #define power_adc_enable()      (PRR &= (uint8_t)~(1 << PRADC))
1033:/usr/avr/include/avr/power.h **** #define power_adc_disable()     (PRR |= (uint8_t)(1 << PRADC))
1034:/usr/avr/include/avr/power.h **** 
1035:/usr/avr/include/avr/power.h **** #define power_spi_enable()      (PRR &= (uint8_t)~(1 << PRSPI))
1036:/usr/avr/include/avr/power.h **** #define power_spi_disable()     (PRR |= (uint8_t)(1 << PRSPI))
1037:/usr/avr/include/avr/power.h **** 
1038:/usr/avr/include/avr/power.h **** #define power_usart0_enable()   (PRR &= (uint8_t)~(1 << PRUSART0))
1039:/usr/avr/include/avr/power.h **** #define power_usart0_disable()  (PRR |= (uint8_t)(1 << PRUSART0))
1040:/usr/avr/include/avr/power.h **** 
1041:/usr/avr/include/avr/power.h **** #define power_timer0_enable()   (PRR &= (uint8_t)~(1 << PRTIM0))
1042:/usr/avr/include/avr/power.h **** #define power_timer0_disable()  (PRR |= (uint8_t)(1 << PRTIM0))
1043:/usr/avr/include/avr/power.h **** 
1044:/usr/avr/include/avr/power.h **** #define power_timer1_enable()   (PRR &= (uint8_t)~(1 << PRTIM1))
1045:/usr/avr/include/avr/power.h **** #define power_timer1_disable()  (PRR |= (uint8_t)(1 << PRTIM1))
1046:/usr/avr/include/avr/power.h **** 
1047:/usr/avr/include/avr/power.h **** #define power_timer2_enable()   (PRR &= (uint8_t)~(1 << PRTIM2))
1048:/usr/avr/include/avr/power.h **** #define power_timer2_disable()  (PRR |= (uint8_t)(1 << PRTIM2))
1049:/usr/avr/include/avr/power.h **** 
1050:/usr/avr/include/avr/power.h **** #define power_twi_enable()      (PRR &= (uint8_t)~(1 << PRTWI))
1051:/usr/avr/include/avr/power.h **** #define power_twi_disable()     (PRR |= (uint8_t)(1 << PRTWI))
1052:/usr/avr/include/avr/power.h **** 
1053:/usr/avr/include/avr/power.h **** #define power_all_enable()      (PRR &= (uint8_t)~((1<<PRADC)|(1<<PRSPI)|(1<<PRUSART0)|(1<<PRTIM0)|
1054:/usr/avr/include/avr/power.h **** #define power_all_disable()     (PRR |= (uint8_t)((1<<PRADC)|(1<<PRSPI)|(1<<PRUSART0)|(1<<PRTIM0)|(
1055:/usr/avr/include/avr/power.h **** 
1056:/usr/avr/include/avr/power.h **** 
1057:/usr/avr/include/avr/power.h **** #elif defined(__AVR_ATtiny24__) \
1058:/usr/avr/include/avr/power.h **** || defined(__AVR_ATtiny24A__) \
1059:/usr/avr/include/avr/power.h **** || defined(__AVR_ATtiny44__) \
1060:/usr/avr/include/avr/power.h **** || defined(__AVR_ATtiny44A__) \
1061:/usr/avr/include/avr/power.h **** || defined(__AVR_ATtiny84__) \
1062:/usr/avr/include/avr/power.h **** || defined(__AVR_ATtiny84A__) \
1063:/usr/avr/include/avr/power.h **** || defined(__AVR_ATtiny25__) \
1064:/usr/avr/include/avr/power.h **** || defined(__AVR_ATtiny45__) \
1065:/usr/avr/include/avr/power.h **** || defined(__AVR_ATtiny85__) \
1066:/usr/avr/include/avr/power.h **** || defined(__AVR_ATtiny261__) \
1067:/usr/avr/include/avr/power.h **** || defined(__AVR_ATtiny261A__) \
1068:/usr/avr/include/avr/power.h **** || defined(__AVR_ATtiny461__) \
1069:/usr/avr/include/avr/power.h **** || defined(__AVR_ATtiny461A__) \
1070:/usr/avr/include/avr/power.h **** || defined(__AVR_ATtiny861__) \
1071:/usr/avr/include/avr/power.h **** || defined(__AVR_ATtiny861A__) \
1072:/usr/avr/include/avr/power.h **** || defined(__AVR_ATtiny43U__)
1073:/usr/avr/include/avr/power.h **** 
1074:/usr/avr/include/avr/power.h **** #define power_adc_enable()      (PRR &= (uint8_t)~(1 << PRADC))
1075:/usr/avr/include/avr/power.h **** #define power_adc_disable()     (PRR |= (uint8_t)(1 << PRADC))
1076:/usr/avr/include/avr/power.h **** 
1077:/usr/avr/include/avr/power.h **** #define power_timer0_enable()   (PRR &= (uint8_t)~(1 << PRTIM0))
1078:/usr/avr/include/avr/power.h **** #define power_timer0_disable()  (PRR |= (uint8_t)(1 << PRTIM0))
1079:/usr/avr/include/avr/power.h **** 
1080:/usr/avr/include/avr/power.h **** #define power_timer1_enable()   (PRR &= (uint8_t)~(1 << PRTIM1))
1081:/usr/avr/include/avr/power.h **** #define power_timer1_disable()  (PRR |= (uint8_t)(1 << PRTIM1))
GAS LISTING /tmp/ccPGKZum.s 			page 25


1082:/usr/avr/include/avr/power.h **** 
1083:/usr/avr/include/avr/power.h **** /* Universal Serial Interface */
1084:/usr/avr/include/avr/power.h **** #define power_usi_enable()      (PRR &= (uint8_t)~(1 << PRUSI))
1085:/usr/avr/include/avr/power.h **** #define power_usi_disable()     (PRR |= (uint8_t)(1 << PRUSI))
1086:/usr/avr/include/avr/power.h **** 
1087:/usr/avr/include/avr/power.h **** #define power_all_enable()      (PRR &= (uint8_t)~((1<<PRADC)|(1<<PRTIM0)|(1<<PRTIM1)|(1<<PRUSI)))
1088:/usr/avr/include/avr/power.h **** #define power_all_disable()     (PRR |= (uint8_t)((1<<PRADC)|(1<<PRTIM0)|(1<<PRTIM1)|(1<<PRUSI)))
1089:/usr/avr/include/avr/power.h **** 
1090:/usr/avr/include/avr/power.h **** 
1091:/usr/avr/include/avr/power.h **** #elif defined(__AVR_ATmega1284P__)
1092:/usr/avr/include/avr/power.h **** 
1093:/usr/avr/include/avr/power.h **** 
1094:/usr/avr/include/avr/power.h **** #define power_adc_enable()      (PRR0 &= (uint8_t)~(1 << PRADC))
1095:/usr/avr/include/avr/power.h **** #define power_adc_disable()     (PRR0 |= (uint8_t)(1 << PRADC))
1096:/usr/avr/include/avr/power.h **** 
1097:/usr/avr/include/avr/power.h **** #define power_spi_enable()      (PRR0 &= (uint8_t)~(1 << PRSPI))
1098:/usr/avr/include/avr/power.h **** #define power_spi_disable()     (PRR0 |= (uint8_t)(1 << PRSPI))
1099:/usr/avr/include/avr/power.h **** 
1100:/usr/avr/include/avr/power.h **** #define power_twi_enable()      (PRR0 &= (uint8_t)~(1 << PRTWI))
1101:/usr/avr/include/avr/power.h **** #define power_twi_disable()     (PRR0 |= (uint8_t)(1 << PRTWI))
1102:/usr/avr/include/avr/power.h **** 
1103:/usr/avr/include/avr/power.h **** #define power_timer0_enable()   (PRR0 &= (uint8_t)~(1 << PRTIM0))
1104:/usr/avr/include/avr/power.h **** #define power_timer0_disable()  (PRR0 |= (uint8_t)(1 << PRTIM0))
1105:/usr/avr/include/avr/power.h **** 
1106:/usr/avr/include/avr/power.h **** #define power_timer1_enable()   (PRR0 &= (uint8_t)~(1 << PRTIM1))
1107:/usr/avr/include/avr/power.h **** #define power_timer1_disable()  (PRR0 |= (uint8_t)(1 << PRTIM1))
1108:/usr/avr/include/avr/power.h **** 
1109:/usr/avr/include/avr/power.h **** #define power_timer2_enable()   (PRR0 &= (uint8_t)~(1 << PRTIM2))
1110:/usr/avr/include/avr/power.h **** #define power_timer2_disable()  (PRR0 |= (uint8_t)(1 << PRTIM2))
1111:/usr/avr/include/avr/power.h **** 
1112:/usr/avr/include/avr/power.h **** #define power_timer3_enable()   (PRR1 &= (uint8_t)~(1 << PRTIM3))
1113:/usr/avr/include/avr/power.h **** #define power_timer3_disable()  (PRR1 |= (uint8_t)(1 << PRTIM3))
1114:/usr/avr/include/avr/power.h **** 
1115:/usr/avr/include/avr/power.h **** #define power_usart0_enable()   (PRR0 &= (uint8_t)~(1 << PRUSART0))
1116:/usr/avr/include/avr/power.h **** #define power_usart0_disable()  (PRR0 |= (uint8_t)(1 << PRUSART0))
1117:/usr/avr/include/avr/power.h **** 
1118:/usr/avr/include/avr/power.h **** #define power_usart1_enable()   (PRR0 &= (uint8_t)~(1 << PRUSART1))
1119:/usr/avr/include/avr/power.h **** #define power_usart1_disable()  (PRR0 |= (uint8_t)(1 << PRUSART1))
1120:/usr/avr/include/avr/power.h **** 
1121:/usr/avr/include/avr/power.h **** #define power_all_enable() \
1122:/usr/avr/include/avr/power.h **** do{ \
1123:/usr/avr/include/avr/power.h ****     PRR0 &= (uint8_t)~((1<<PRADC)|(1<<PRSPI)|(1<<PRTWI)|(1<<PRTIM0)|(1<<PRTIM1)|(1<<PRTIM2)|(1<<PRU
1124:/usr/avr/include/avr/power.h ****     PRR1 &= (uint8_t)~(1<<PRTIM3); \
1125:/usr/avr/include/avr/power.h **** }while(0)
1126:/usr/avr/include/avr/power.h **** 
1127:/usr/avr/include/avr/power.h **** #define power_all_disable() \
1128:/usr/avr/include/avr/power.h **** do{ \
1129:/usr/avr/include/avr/power.h ****     PRR0 |= (uint8_t)((1<<PRADC)|(1<<PRSPI)|(1<<PRTWI)|(1<<PRTIM0)|(1<<PRTIM1)|(1<<PRTIM2)|(1<<PRUS
1130:/usr/avr/include/avr/power.h ****     PRR1 |= (uint8_t)(1<<PRTIM3); \
1131:/usr/avr/include/avr/power.h **** }while(0)
1132:/usr/avr/include/avr/power.h **** 
1133:/usr/avr/include/avr/power.h **** 
1134:/usr/avr/include/avr/power.h **** #elif defined(__AVR_ATmega32HVB__) \
1135:/usr/avr/include/avr/power.h **** || defined(__AVR_ATmega32HVBREVB__) \
1136:/usr/avr/include/avr/power.h **** || defined(__AVR_ATmega16HVB__) \
1137:/usr/avr/include/avr/power.h **** || defined(__AVR_ATmega16HVBREVB__)
1138:/usr/avr/include/avr/power.h **** 
GAS LISTING /tmp/ccPGKZum.s 			page 26


1139:/usr/avr/include/avr/power.h **** 
1140:/usr/avr/include/avr/power.h **** #define power_twi_enable()      (PRR0 &= (uint8_t)~(1 << PRTWI))
1141:/usr/avr/include/avr/power.h **** #define power_twi_disable()     (PRR0 |= (uint8_t)(1 << PRTWI))
1142:/usr/avr/include/avr/power.h **** 
1143:/usr/avr/include/avr/power.h **** #define power_timer0_enable()   (PRR0 &= (uint8_t)~(1 << PRTIM0))
1144:/usr/avr/include/avr/power.h **** #define power_timer0_disable()  (PRR0 |= (uint8_t)(1 << PRTIM0))
1145:/usr/avr/include/avr/power.h **** 
1146:/usr/avr/include/avr/power.h **** #define power_timer1_enable()   (PRR0 &= (uint8_t)~(1 << PRTIM1))
1147:/usr/avr/include/avr/power.h **** #define power_timer1_disable()  (PRR0 |= (uint8_t)(1 << PRTIM1))
1148:/usr/avr/include/avr/power.h **** 
1149:/usr/avr/include/avr/power.h **** /* Voltage ADC */
1150:/usr/avr/include/avr/power.h **** #define power_vadc_enable()     (PRR0 &= (uint8_t)~(1 << PRVADC))
1151:/usr/avr/include/avr/power.h **** #define power_vadc_disable()    (PRR0 |= (uint8_t)(1 << PRVADC))
1152:/usr/avr/include/avr/power.h **** 
1153:/usr/avr/include/avr/power.h **** #define power_spi_enable()      (PRR0 &= (uint8_t)~(1 << PRSPI))
1154:/usr/avr/include/avr/power.h **** #define power_spi_disable()     (PRR0 |= (uint8_t)(1 << PRSPI))
1155:/usr/avr/include/avr/power.h **** 
1156:/usr/avr/include/avr/power.h **** #define power_vrm_enable()      (PRR0 &= (uint8_t)~(1 << PRVRM))
1157:/usr/avr/include/avr/power.h **** #define power_vrm_disable()     (PRR0 |= (uint8_t)(1 << PRVRM))
1158:/usr/avr/include/avr/power.h **** 
1159:/usr/avr/include/avr/power.h **** #define power_all_enable()      (PRR0 &= (uint8_t)~((1<<PRTWI)|(1<<PRTIM0)|(1<<PRTIM1)|(1<<PRVADC)|
1160:/usr/avr/include/avr/power.h **** #define power_all_disable()     (PRR0 |= (uint8_t)((1<<PRTWI)|(1<<PRTIM0)|(1<<PRTIM1)|(1<<PRVADC)|(
1161:/usr/avr/include/avr/power.h **** 
1162:/usr/avr/include/avr/power.h **** 
1163:/usr/avr/include/avr/power.h **** #elif defined(__AVR_ATmega16M1__) \
1164:/usr/avr/include/avr/power.h **** || defined(__AVR_ATmega32C1__) \
1165:/usr/avr/include/avr/power.h **** || defined(__AVR_ATmega32M1__) \
1166:/usr/avr/include/avr/power.h **** || defined(__AVR_ATmega64C1__) \
1167:/usr/avr/include/avr/power.h **** || defined(__AVR_ATmega64M1__)
1168:/usr/avr/include/avr/power.h **** 
1169:/usr/avr/include/avr/power.h **** #define power_adc_enable()      (PRR &= (uint8_t)~(1 << PRADC))
1170:/usr/avr/include/avr/power.h **** #define power_adc_disable()     (PRR |= (uint8_t)(1 << PRADC))
1171:/usr/avr/include/avr/power.h **** 
1172:/usr/avr/include/avr/power.h **** #define power_lin_enable()      (PRR &= (uint8_t)~(1 << PRLIN))
1173:/usr/avr/include/avr/power.h **** #define power_lin_disable()     (PRR |= (uint8_t)(1 << PRLIN))
1174:/usr/avr/include/avr/power.h **** 
1175:/usr/avr/include/avr/power.h **** #define power_spi_enable()      (PRR &= (uint8_t)~(1 << PRSPI))
1176:/usr/avr/include/avr/power.h **** #define power_spi_disable()     (PRR |= (uint8_t)(1 << PRSPI))
1177:/usr/avr/include/avr/power.h **** 
1178:/usr/avr/include/avr/power.h **** #define power_timer0_enable()   (PRR &= (uint8_t)~(1 << PRTIM0))
1179:/usr/avr/include/avr/power.h **** #define power_timer0_disable()  (PRR |= (uint8_t)(1 << PRTIM0))
1180:/usr/avr/include/avr/power.h **** 
1181:/usr/avr/include/avr/power.h **** #define power_timer1_enable()   (PRR &= (uint8_t)~(1 << PRTIM1))
1182:/usr/avr/include/avr/power.h **** #define power_timer1_disable()  (PRR |= (uint8_t)(1 << PRTIM1))
1183:/usr/avr/include/avr/power.h **** 
1184:/usr/avr/include/avr/power.h **** #define power_psc_enable()      (PRR &= (uint8_t)~(1 << PRPSC))
1185:/usr/avr/include/avr/power.h **** #define power_psc_disable()     (PRR |= (uint8_t)(1 << PRPSC))
1186:/usr/avr/include/avr/power.h **** 
1187:/usr/avr/include/avr/power.h **** #define power_can_enable()      (PRR &= (uint8_t)~(1 << PRCAN))
1188:/usr/avr/include/avr/power.h **** #define power_can_disable()     (PRR |= (uint8_t)(1 << PRCAN))
1189:/usr/avr/include/avr/power.h **** 
1190:/usr/avr/include/avr/power.h **** #define power_all_enable()      (PRR &= (uint8_t)~((1<<PRADC)|(1<<PRLIN)|(1<<PRSPI)|(1<<PRTIM0)|(1<
1191:/usr/avr/include/avr/power.h **** #define power_all_disable()     (PRR |= (uint8_t)((1<<PRADC)|(1<<PRLIN)|(1<<PRSPI)|(1<<PRTIM0)|(1<<
1192:/usr/avr/include/avr/power.h **** 
1193:/usr/avr/include/avr/power.h **** 
1194:/usr/avr/include/avr/power.h **** #elif defined(__AVR_ATtiny167__) \
1195:/usr/avr/include/avr/power.h **** || defined(__AVR_ATtiny87__)
GAS LISTING /tmp/ccPGKZum.s 			page 27


1196:/usr/avr/include/avr/power.h **** 
1197:/usr/avr/include/avr/power.h **** 
1198:/usr/avr/include/avr/power.h **** #define power_adc_enable()      (PRR &= (uint8_t)~(1 << PRADC))
1199:/usr/avr/include/avr/power.h **** #define power_adc_disable()     (PRR |= (uint8_t)(1 << PRADC))
1200:/usr/avr/include/avr/power.h **** 
1201:/usr/avr/include/avr/power.h **** #define power_usi_enable()      (PRR &= (uint8_t)~(1 << PRUSI))
1202:/usr/avr/include/avr/power.h **** #define power_usi_disable()     (PRR |= (uint8_t)(1 << PRUSI))
1203:/usr/avr/include/avr/power.h **** 
1204:/usr/avr/include/avr/power.h **** #define power_timer0_enable()   (PRR &= (uint8_t)~(1 << PRTIM0))
1205:/usr/avr/include/avr/power.h **** #define power_timer0_disable()  (PRR |= (uint8_t)(1 << PRTIM0))
1206:/usr/avr/include/avr/power.h **** 
1207:/usr/avr/include/avr/power.h **** #define power_timer1_enable()   (PRR &= (uint8_t)~(1 << PRTIM1))
1208:/usr/avr/include/avr/power.h **** #define power_timer1_disable()  (PRR |= (uint8_t)(1 << PRTIM1))
1209:/usr/avr/include/avr/power.h **** 
1210:/usr/avr/include/avr/power.h **** #define power_spi_enable()      (PRR &= (uint8_t)~(1 << PRSPI))
1211:/usr/avr/include/avr/power.h **** #define power_spi_disable()     (PRR |= (uint8_t)(1 << PRSPI))
1212:/usr/avr/include/avr/power.h **** 
1213:/usr/avr/include/avr/power.h **** #define power_lin_enable()      (PRR &= (uint8_t)~(1 << PRLIN))
1214:/usr/avr/include/avr/power.h **** #define power_lin_disable()     (PRR |= (uint8_t)(1 << PRLIN))
1215:/usr/avr/include/avr/power.h **** 
1216:/usr/avr/include/avr/power.h **** #define power_all_enable()      (PRR &= (uint8_t)~((1<<PRADC)|(1<<PRUSI)|(1<<PRTIM0)|(1<<PRTIM1)|(1
1217:/usr/avr/include/avr/power.h **** #define power_all_disable()     (PRR |= (uint8_t)((1<<PRADC)|(1<<PRUSI)|(1<<PRTIM0)|(1<<PRTIM1)|(1<
1218:/usr/avr/include/avr/power.h **** 
1219:/usr/avr/include/avr/power.h **** 
1220:/usr/avr/include/avr/power.h **** #elif defined(__AVR_AT90USB82__) \
1221:/usr/avr/include/avr/power.h **** || defined(__AVR_AT90USB162__) \
1222:/usr/avr/include/avr/power.h **** || defined(__AVR_ATmega8U2__) \
1223:/usr/avr/include/avr/power.h **** || defined(__AVR_ATmega16U2__) \
1224:/usr/avr/include/avr/power.h **** || defined(__AVR_ATmega32U2__)
1225:/usr/avr/include/avr/power.h **** 
1226:/usr/avr/include/avr/power.h **** #define power_spi_enable()      (PRR0 &= (uint8_t)~(1 << PRSPI))
1227:/usr/avr/include/avr/power.h **** #define power_spi_disable()     (PRR0 |= (uint8_t)(1 << PRSPI))
1228:/usr/avr/include/avr/power.h **** 
1229:/usr/avr/include/avr/power.h **** #define power_timer0_enable()   (PRR0 &= (uint8_t)~(1 << PRTIM0))
1230:/usr/avr/include/avr/power.h **** #define power_timer0_disable()  (PRR0 |= (uint8_t)(1 << PRTIM0))
1231:/usr/avr/include/avr/power.h **** 
1232:/usr/avr/include/avr/power.h **** #define power_timer1_enable()   (PRR0 &= (uint8_t)~(1 << PRTIM1))
1233:/usr/avr/include/avr/power.h **** #define power_timer1_disable()  (PRR0 |= (uint8_t)(1 << PRTIM1))
1234:/usr/avr/include/avr/power.h **** 
1235:/usr/avr/include/avr/power.h **** #define power_usb_enable()      (PRR1 &= (uint8_t)~(1 << PRUSB))
1236:/usr/avr/include/avr/power.h **** #define power_usb_disable()     (PRR1 |= (uint8_t)(1 << PRUSB))
1237:/usr/avr/include/avr/power.h **** 
1238:/usr/avr/include/avr/power.h **** #define power_usart1_enable()   (PRR1 &= (uint8_t)~(1 << PRUSART1))
1239:/usr/avr/include/avr/power.h **** #define power_usart1_disable()  (PRR1 |= (uint8_t)(1 << PRUSART1))
1240:/usr/avr/include/avr/power.h **** 
1241:/usr/avr/include/avr/power.h **** #define power_all_enable() \
1242:/usr/avr/include/avr/power.h **** do{ \
1243:/usr/avr/include/avr/power.h ****     PRR0 &= (uint8_t)~((1<<PRSPI)|(1<<PRTIM0)|(1<<PRTIM1)); \
1244:/usr/avr/include/avr/power.h ****     PRR1 &= (uint8_t)~((1<<PRUSB)|(1<<PRUSART1)); \
1245:/usr/avr/include/avr/power.h **** }while(0)
1246:/usr/avr/include/avr/power.h **** 
1247:/usr/avr/include/avr/power.h **** #define power_all_disable() \
1248:/usr/avr/include/avr/power.h **** do{ \
1249:/usr/avr/include/avr/power.h ****     PRR0 |= (uint8_t)((1<<PRSPI)|(1<<PRTIM0)|(1<<PRTIM1)); \
1250:/usr/avr/include/avr/power.h ****     PRR1 |= (uint8_t)((1<<PRUSB)|(1<<PRUSART1)); \
1251:/usr/avr/include/avr/power.h **** }while(0)
1252:/usr/avr/include/avr/power.h **** 
GAS LISTING /tmp/ccPGKZum.s 			page 28


1253:/usr/avr/include/avr/power.h **** 
1254:/usr/avr/include/avr/power.h **** #elif defined(__AVR_AT90SCR100__)
1255:/usr/avr/include/avr/power.h **** 
1256:/usr/avr/include/avr/power.h **** #define power_usart0_enable()   (PRR0 &= (uint8_t)~(1 << PRUSART0))
1257:/usr/avr/include/avr/power.h **** #define power_usart0_disable()  (PRR0 |= (uint8_t)(1 << PRUSART0))
1258:/usr/avr/include/avr/power.h **** 
1259:/usr/avr/include/avr/power.h **** #define power_spi_enable()      (PRR0 &= (uint8_t)~(1 << PRSPI))
1260:/usr/avr/include/avr/power.h **** #define power_spi_disable()     (PRR0 |= (uint8_t)(1 << PRSPI))
1261:/usr/avr/include/avr/power.h **** 
1262:/usr/avr/include/avr/power.h **** #define power_timer1_enable()   (PRR0 &= (uint8_t)~(1 << PRTIM1))
1263:/usr/avr/include/avr/power.h **** #define power_timer1_disable()  (PRR0 |= (uint8_t)(1 << PRTIM1))
1264:/usr/avr/include/avr/power.h **** 
1265:/usr/avr/include/avr/power.h **** #define power_timer0_enable()   (PRR0 &= (uint8_t)~(1 << PRTIM0))
1266:/usr/avr/include/avr/power.h **** #define power_timer0_disable()  (PRR0 |= (uint8_t)(1 << PRTIM0))
1267:/usr/avr/include/avr/power.h **** 
1268:/usr/avr/include/avr/power.h **** #define power_timer2_enable()   (PRR0 &= (uint8_t)~(1 << PRTIM2))
1269:/usr/avr/include/avr/power.h **** #define power_timer2_disable()  (PRR0 |= (uint8_t)(1 << PRTIM2))
1270:/usr/avr/include/avr/power.h **** 
1271:/usr/avr/include/avr/power.h **** #define power_twi_enable()      (PRR0 &= (uint8_t)~(1 << PRTWI))
1272:/usr/avr/include/avr/power.h **** #define power_twi_disable()     (PRR0 |= (uint8_t)(1 << PRTWI))
1273:/usr/avr/include/avr/power.h **** 
1274:/usr/avr/include/avr/power.h **** #define power_usbh_enable()     (PRR1 &= (uint8_t)~(1 << PRUSBH))
1275:/usr/avr/include/avr/power.h **** #define power_usbh_disable()    (PRR1 |= (uint8_t)(1 << PRUSBH))
1276:/usr/avr/include/avr/power.h **** 
1277:/usr/avr/include/avr/power.h **** #define power_usb_enable()      (PRR1 &= (uint8_t)~(1 << PRUSB))
1278:/usr/avr/include/avr/power.h **** #define power_usb_disable()     (PRR1 |= (uint8_t)(1 << PRUSB))
1279:/usr/avr/include/avr/power.h **** 
1280:/usr/avr/include/avr/power.h **** #define power_hsspi_enable()    (PRR1 &= (uint8_t)~(1 << PRHSSPI))
1281:/usr/avr/include/avr/power.h **** #define power_hsspi_disable()   (PRR1 |= (uint8_t)(1 << PRHSSPI))
1282:/usr/avr/include/avr/power.h **** 
1283:/usr/avr/include/avr/power.h **** #define power_sci_enable()      (PRR1 &= (uint8_t)~(1 << PRSCI))
1284:/usr/avr/include/avr/power.h **** #define power_sci_disable()     (PRR1 |= (uint8_t)(1 << PRSCI))
1285:/usr/avr/include/avr/power.h **** 
1286:/usr/avr/include/avr/power.h **** #define power_aes_enable()      (PRR1 &= (uint8_t)~(1 << PRAES))
1287:/usr/avr/include/avr/power.h **** #define power_aes_disable()     (PRR1 |= (uint8_t)(1 << PRAES))
1288:/usr/avr/include/avr/power.h **** 
1289:/usr/avr/include/avr/power.h **** #define power_kb_enable()       (PRR1 &= (uint8_t)~(1 << PRKB))
1290:/usr/avr/include/avr/power.h **** #define power_kb_disable()      (PRR1 |= (uint8_t)(1 << PRKB))
1291:/usr/avr/include/avr/power.h **** 
1292:/usr/avr/include/avr/power.h **** #define power_all_enable() \
1293:/usr/avr/include/avr/power.h **** do{ \
1294:/usr/avr/include/avr/power.h ****     PRR0 &= (uint8_t)~((1<<PRUSART0)|(1<<PRSPI)|(1<<PRTIM1)|(1<<PRTIM0)|(1<<PRTIM2)|(1<<PRTWI)); \
1295:/usr/avr/include/avr/power.h ****     PRR1 &= (uint8_t)~((1<<PRUSBH)|(1<<PRUSB)|(1<<PRHSSPI)|(1<<PRSCI)|(1<<PRAES)|(1<<PRKB)); \
1296:/usr/avr/include/avr/power.h **** }while(0)
1297:/usr/avr/include/avr/power.h **** 
1298:/usr/avr/include/avr/power.h **** #define power_all_disable() \
1299:/usr/avr/include/avr/power.h **** do{ \
1300:/usr/avr/include/avr/power.h ****     PRR0 |= (uint8_t)((1<<PRUSART0)|(1<<PRSPI)|(1<<PRTIM1)|(1<<PRTIM0)|(1<<PRTIM2)|(1<<PRTWI)); \
1301:/usr/avr/include/avr/power.h ****     PRR1 |= (uint8_t)((1<<PRUSBH)|(1<<PRUSB)|(1<<PRHSSPI)|(1<<PRSCI)|(1<<PRAES)|(1<<PRKB)); \
1302:/usr/avr/include/avr/power.h **** }while(0)
1303:/usr/avr/include/avr/power.h **** 
1304:/usr/avr/include/avr/power.h **** 
1305:/usr/avr/include/avr/power.h **** #elif defined(__AVR_ATtiny4__) \
1306:/usr/avr/include/avr/power.h **** || defined(__AVR_ATtiny5__) \
1307:/usr/avr/include/avr/power.h **** || defined(__AVR_ATtiny9__) \
1308:/usr/avr/include/avr/power.h **** || defined(__AVR_ATtiny10__) \
1309:/usr/avr/include/avr/power.h **** || defined(__AVR_ATtiny13A__) \
GAS LISTING /tmp/ccPGKZum.s 			page 29


1310:/usr/avr/include/avr/power.h **** 
1311:/usr/avr/include/avr/power.h **** #define power_adc_enable()   (PRR &= (uint8_t)~(1 << PRADC))
1312:/usr/avr/include/avr/power.h **** #define power_adc_disable()  (PRR |= (uint8_t)(1 << PRADC))
1313:/usr/avr/include/avr/power.h **** 
1314:/usr/avr/include/avr/power.h **** #define power_timer0_enable()   (PRR &= (uint8_t)~(1 << PRTIM0))
1315:/usr/avr/include/avr/power.h **** #define power_timer0_disable()  (PRR |= (uint8_t)(1 << PRTIM0))
1316:/usr/avr/include/avr/power.h **** 
1317:/usr/avr/include/avr/power.h **** #define power_all_enable()      (PRR &= (uint8_t)~((1<<PRADC)|(1<<PRTIM0)))
1318:/usr/avr/include/avr/power.h **** #define power_all_disable()     (PRR |= (uint8_t)((1<<PRADC)|(1<<PRTIM0)))
1319:/usr/avr/include/avr/power.h **** 
1320:/usr/avr/include/avr/power.h **** 
1321:/usr/avr/include/avr/power.h **** #elif defined(__AVR_ATtiny20__) \
1322:/usr/avr/include/avr/power.h **** || defined(__AVR_ATtiny40__)
1323:/usr/avr/include/avr/power.h **** 
1324:/usr/avr/include/avr/power.h **** #define power_adc_enable()   (PRR &= (uint8_t)~(1 << PRADC))
1325:/usr/avr/include/avr/power.h **** #define power_adc_disable()  (PRR |= (uint8_t)(1 << PRADC))
1326:/usr/avr/include/avr/power.h **** 
1327:/usr/avr/include/avr/power.h **** #define power_timer0_enable()   (PRR &= (uint8_t)~(1 << PRTIM0))
1328:/usr/avr/include/avr/power.h **** #define power_timer0_disable()  (PRR |= (uint8_t)(1 << PRTIM0))
1329:/usr/avr/include/avr/power.h **** 
1330:/usr/avr/include/avr/power.h **** #define power_timer1_enable()   (PRR &= (uint8_t)~(1 << PRTIM1))
1331:/usr/avr/include/avr/power.h **** #define power_timer1_disable()  (PRR |= (uint8_t)(1 << PRTIM1))
1332:/usr/avr/include/avr/power.h **** 
1333:/usr/avr/include/avr/power.h **** #define power_spi_enable()   (PRR &= (uint8_t)~(1 << PRSPI))
1334:/usr/avr/include/avr/power.h **** #define power_spi_disable()  (PRR |= (uint8_t)(1 << PRSPI))
1335:/usr/avr/include/avr/power.h **** 
1336:/usr/avr/include/avr/power.h **** #define power_twi_enable()   (PRR &= (uint8_t)~(1 << PRTWI))
1337:/usr/avr/include/avr/power.h **** #define power_twi_disable()  (PRR |= (uint8_t)(1 << PRTWI))
1338:/usr/avr/include/avr/power.h **** 
1339:/usr/avr/include/avr/power.h **** #define power_all_enable()      (PRR &= (uint8_t)~((1<<PRADC)|(1<<PRTIM0)|(1<<PRTIM1)|(1<<PRSPI)|(1
1340:/usr/avr/include/avr/power.h **** #define power_all_disable()     (PRR |= (uint8_t)((1<<PRADC)|(1<<PRTIM0)|(1<<PRTIM1)|(1<<PRSPI)|(1<
1341:/usr/avr/include/avr/power.h **** 
1342:/usr/avr/include/avr/power.h **** #endif
1343:/usr/avr/include/avr/power.h **** 
1344:/usr/avr/include/avr/power.h **** 
1345:/usr/avr/include/avr/power.h **** #if defined(__AVR_AT90CAN32__) \
1346:/usr/avr/include/avr/power.h **** || defined(__AVR_AT90CAN64__) \
1347:/usr/avr/include/avr/power.h **** || defined(__AVR_AT90CAN128__) \
1348:/usr/avr/include/avr/power.h **** || defined(__AVR_AT90PWM1__) \
1349:/usr/avr/include/avr/power.h **** || defined(__AVR_AT90PWM2__) \
1350:/usr/avr/include/avr/power.h **** || defined(__AVR_AT90PWM2B__) \
1351:/usr/avr/include/avr/power.h **** || defined(__AVR_AT90PWM3__) \
1352:/usr/avr/include/avr/power.h **** || defined(__AVR_AT90PWM3B__) \
1353:/usr/avr/include/avr/power.h **** || defined(__AVR_AT90PWM216__) \
1354:/usr/avr/include/avr/power.h **** || defined(__AVR_AT90PWM316__) \
1355:/usr/avr/include/avr/power.h **** || defined(__AVR_AT90SCR100__) \
1356:/usr/avr/include/avr/power.h **** || defined(__AVR_AT90USB646__) \
1357:/usr/avr/include/avr/power.h **** || defined(__AVR_AT90USB647__) \
1358:/usr/avr/include/avr/power.h **** || defined(__AVR_AT90USB82__) \
1359:/usr/avr/include/avr/power.h **** || defined(__AVR_AT90USB1286__) \
1360:/usr/avr/include/avr/power.h **** || defined(__AVR_AT90USB1287__) \
1361:/usr/avr/include/avr/power.h **** || defined(__AVR_AT90USB162__) \
1362:/usr/avr/include/avr/power.h **** || defined(__AVR_ATmega1280__) \
1363:/usr/avr/include/avr/power.h **** || defined(__AVR_ATmega1281__) \
1364:/usr/avr/include/avr/power.h **** || defined(__AVR_ATmega128RFA1__) \
1365:/usr/avr/include/avr/power.h **** || defined(__AVR_ATmega1284P__) \
1366:/usr/avr/include/avr/power.h **** || defined(__AVR_ATmega162__) \
GAS LISTING /tmp/ccPGKZum.s 			page 30


1367:/usr/avr/include/avr/power.h **** || defined(__AVR_ATmega164A__) \
1368:/usr/avr/include/avr/power.h **** || defined(__AVR_ATmega164P__) \
1369:/usr/avr/include/avr/power.h **** || defined(__AVR_ATmega165__) \
1370:/usr/avr/include/avr/power.h **** || defined(__AVR_ATmega165A__) \
1371:/usr/avr/include/avr/power.h **** || defined(__AVR_ATmega165P__) \
1372:/usr/avr/include/avr/power.h **** || defined(__AVR_ATmega168__) \
1373:/usr/avr/include/avr/power.h **** || defined(__AVR_ATmega168P__) \
1374:/usr/avr/include/avr/power.h **** || defined(__AVR_ATmega169__) \
1375:/usr/avr/include/avr/power.h **** || defined(__AVR_ATmega169A__) \
1376:/usr/avr/include/avr/power.h **** || defined(__AVR_ATmega169P__) \
1377:/usr/avr/include/avr/power.h **** || defined(__AVR_ATmega169PA__) \
1378:/usr/avr/include/avr/power.h **** || defined(__AVR_ATmega16U4__) \
1379:/usr/avr/include/avr/power.h **** || defined(__AVR_ATmega2560__) \
1380:/usr/avr/include/avr/power.h **** || defined(__AVR_ATmega2561__) \
1381:/usr/avr/include/avr/power.h **** || defined(__AVR_ATmega324A__) \
1382:/usr/avr/include/avr/power.h **** || defined(__AVR_ATmega324P__) \
1383:/usr/avr/include/avr/power.h **** || defined(__AVR_ATmega325__) \
1384:/usr/avr/include/avr/power.h **** || defined(__AVR_ATmega325A__) \
1385:/usr/avr/include/avr/power.h **** || defined(__AVR_ATmega3250__) \
1386:/usr/avr/include/avr/power.h **** || defined(__AVR_ATmega3250A__) \
1387:/usr/avr/include/avr/power.h **** || defined(__AVR_ATmega328__) \
1388:/usr/avr/include/avr/power.h **** || defined(__AVR_ATmega328P__) \
1389:/usr/avr/include/avr/power.h **** || defined(__AVR_ATmega329__) \
1390:/usr/avr/include/avr/power.h **** || defined(__AVR_ATmega329A__) \
1391:/usr/avr/include/avr/power.h **** || defined(__AVR_ATmega329P__) \
1392:/usr/avr/include/avr/power.h **** || defined(__AVR_ATmega329PA__) \
1393:/usr/avr/include/avr/power.h **** || defined(__AVR_ATmega3290__) \
1394:/usr/avr/include/avr/power.h **** || defined(__AVR_ATmega3290A__) \
1395:/usr/avr/include/avr/power.h **** || defined(__AVR_ATmega32C1__) \
1396:/usr/avr/include/avr/power.h **** || defined(__AVR_ATmega32HVB__) \
1397:/usr/avr/include/avr/power.h **** || defined(__AVR_ATmega32HVBREVB__) \
1398:/usr/avr/include/avr/power.h **** || defined(__AVR_ATmega16HVB__) \
1399:/usr/avr/include/avr/power.h **** || defined(__AVR_ATmega16HVBREVB__) \
1400:/usr/avr/include/avr/power.h **** || defined(__AVR_ATmega32M1__) \
1401:/usr/avr/include/avr/power.h **** || defined(__AVR_ATmega32U2__) \
1402:/usr/avr/include/avr/power.h **** || defined(__AVR_ATmega32U4__) \
1403:/usr/avr/include/avr/power.h **** || defined(__AVR_ATmega32U6__) \
1404:/usr/avr/include/avr/power.h **** || defined(__AVR_ATmega48__) \
1405:/usr/avr/include/avr/power.h **** || defined(__AVR_ATmega48P__) \
1406:/usr/avr/include/avr/power.h **** || defined(__AVR_ATmega640__) \
1407:/usr/avr/include/avr/power.h **** || defined(__AVR_ATmega649P__) \
1408:/usr/avr/include/avr/power.h **** || defined(__AVR_ATmega644__) \
1409:/usr/avr/include/avr/power.h **** || defined(__AVR_ATmega644A__) \
1410:/usr/avr/include/avr/power.h **** || defined(__AVR_ATmega644P__) \
1411:/usr/avr/include/avr/power.h **** || defined(__AVR_ATmega644PA__) \
1412:/usr/avr/include/avr/power.h **** || defined(__AVR_ATmega645__) \
1413:/usr/avr/include/avr/power.h **** || defined(__AVR_ATmega645A__) \
1414:/usr/avr/include/avr/power.h **** || defined(__AVR_ATmega645P__) \
1415:/usr/avr/include/avr/power.h **** || defined(__AVR_ATmega6450__) \
1416:/usr/avr/include/avr/power.h **** || defined(__AVR_ATmega6450A__) \
1417:/usr/avr/include/avr/power.h **** || defined(__AVR_ATmega6450P__) \
1418:/usr/avr/include/avr/power.h **** || defined(__AVR_ATmega649__) \
1419:/usr/avr/include/avr/power.h **** || defined(__AVR_ATmega649A__) \
1420:/usr/avr/include/avr/power.h **** || defined(__AVR_ATmega6490__) \
1421:/usr/avr/include/avr/power.h **** || defined(__AVR_ATmega6490A__) \
1422:/usr/avr/include/avr/power.h **** || defined(__AVR_ATmega6490P__) \
1423:/usr/avr/include/avr/power.h **** || defined(__AVR_ATmega88__) \
GAS LISTING /tmp/ccPGKZum.s 			page 31


1424:/usr/avr/include/avr/power.h **** || defined(__AVR_ATmega88P__) \
1425:/usr/avr/include/avr/power.h **** || defined(__AVR_ATmega8U2__) \
1426:/usr/avr/include/avr/power.h **** || defined(__AVR_ATmega16U2__) \
1427:/usr/avr/include/avr/power.h **** || defined(__AVR_ATmega32U2__) \
1428:/usr/avr/include/avr/power.h **** || defined(__AVR_ATtiny48__) \
1429:/usr/avr/include/avr/power.h **** || defined(__AVR_ATtiny167__) \
1430:/usr/avr/include/avr/power.h **** || defined(__DOXYGEN__)
1431:/usr/avr/include/avr/power.h **** 
1432:/usr/avr/include/avr/power.h **** 
1433:/usr/avr/include/avr/power.h **** /** \addtogroup avr_power
1434:/usr/avr/include/avr/power.h **** 
1435:/usr/avr/include/avr/power.h **** Some of the newer AVRs contain a System Clock Prescale Register (CLKPR) that
1436:/usr/avr/include/avr/power.h **** allows you to decrease the system clock frequency and the power consumption
1437:/usr/avr/include/avr/power.h **** when the need for processing power is low. Below are two macros and an
1438:/usr/avr/include/avr/power.h **** enumerated type that can be used to interface to the Clock Prescale Register.
1439:/usr/avr/include/avr/power.h **** 
1440:/usr/avr/include/avr/power.h **** \note Not all AVR devices have a Clock Prescale Register. On those devices
1441:/usr/avr/include/avr/power.h **** without a Clock Prescale Register, these macros are not available.
1442:/usr/avr/include/avr/power.h **** */
1443:/usr/avr/include/avr/power.h **** 
1444:/usr/avr/include/avr/power.h **** 
1445:/usr/avr/include/avr/power.h **** /** \addtogroup avr_power
1446:/usr/avr/include/avr/power.h **** \code 
1447:/usr/avr/include/avr/power.h **** typedef enum
1448:/usr/avr/include/avr/power.h **** {
1449:/usr/avr/include/avr/power.h ****     clock_div_1 = 0,
1450:/usr/avr/include/avr/power.h ****     clock_div_2 = 1,
1451:/usr/avr/include/avr/power.h ****     clock_div_4 = 2,
1452:/usr/avr/include/avr/power.h ****     clock_div_8 = 3,
1453:/usr/avr/include/avr/power.h ****     clock_div_16 = 4,
1454:/usr/avr/include/avr/power.h ****     clock_div_32 = 5,
1455:/usr/avr/include/avr/power.h ****     clock_div_64 = 6,
1456:/usr/avr/include/avr/power.h ****     clock_div_128 = 7,
1457:/usr/avr/include/avr/power.h ****     clock_div_256 = 8,
1458:/usr/avr/include/avr/power.h ****     clock_div_1_rc = 15, // ATmega128RFA1 only
1459:/usr/avr/include/avr/power.h **** } clock_div_t;
1460:/usr/avr/include/avr/power.h **** \endcode
1461:/usr/avr/include/avr/power.h **** Clock prescaler setting enumerations.
1462:/usr/avr/include/avr/power.h **** 
1463:/usr/avr/include/avr/power.h **** */
1464:/usr/avr/include/avr/power.h **** typedef enum
1465:/usr/avr/include/avr/power.h **** {
1466:/usr/avr/include/avr/power.h ****     clock_div_1 = 0,
1467:/usr/avr/include/avr/power.h ****     clock_div_2 = 1,
1468:/usr/avr/include/avr/power.h ****     clock_div_4 = 2,
1469:/usr/avr/include/avr/power.h ****     clock_div_8 = 3,
1470:/usr/avr/include/avr/power.h ****     clock_div_16 = 4,
1471:/usr/avr/include/avr/power.h ****     clock_div_32 = 5,
1472:/usr/avr/include/avr/power.h ****     clock_div_64 = 6,
1473:/usr/avr/include/avr/power.h ****     clock_div_128 = 7,
1474:/usr/avr/include/avr/power.h ****     clock_div_256 = 8
1475:/usr/avr/include/avr/power.h **** #if defined(__AVR_ATmega128RFA1__)
1476:/usr/avr/include/avr/power.h ****     , clock_div_1_rc = 15
1477:/usr/avr/include/avr/power.h **** #endif
1478:/usr/avr/include/avr/power.h **** } clock_div_t;
1479:/usr/avr/include/avr/power.h **** 
1480:/usr/avr/include/avr/power.h **** 
GAS LISTING /tmp/ccPGKZum.s 			page 32


1481:/usr/avr/include/avr/power.h **** static __inline__ void clock_prescale_set(clock_div_t) __attribute__((__always_inline__));
1482:/usr/avr/include/avr/power.h **** 
1483:/usr/avr/include/avr/power.h **** /** \addtogroup avr_power
1484:/usr/avr/include/avr/power.h **** \code clock_prescale_set(x) \endcode
1485:/usr/avr/include/avr/power.h **** 
1486:/usr/avr/include/avr/power.h **** Set the clock prescaler register select bits, selecting a system clock
1487:/usr/avr/include/avr/power.h **** division setting. This function is inlined, even if compiler
1488:/usr/avr/include/avr/power.h **** optimizations are disabled.
1489:/usr/avr/include/avr/power.h **** 
1490:/usr/avr/include/avr/power.h **** The type of x is clock_div_t.
1491:/usr/avr/include/avr/power.h **** */
1492:/usr/avr/include/avr/power.h **** void clock_prescale_set(clock_div_t __x)
1493:/usr/avr/include/avr/power.h **** {
1494:/usr/avr/include/avr/power.h ****     uint8_t __tmp = _BV(CLKPCE);
1495:/usr/avr/include/avr/power.h ****     __asm__ __volatile__ (
 225               		.stabn	68,0,1495,.LM17-.LFBB2
 226               	.LM17:
 227 0022 90E0      		ldi r25,0
 228 0024 80E8      		ldi r24,lo8(-128)
 229               	/* #APP */
 230               	 ;  1495 "/usr/avr/include/avr/power.h" 1
 231 0026 0FB6      		in __tmp_reg__,__SREG__
 232 0028 F894      		cli
 233 002a 8093 6100 		sts 97, r24
 234 002e 9093 6100 		sts 97, r25
 235 0032 0FBE      		out __SREG__, __tmp_reg__
 236               	 ;  0 "" 2
 237               	/* #NOAPP */
 238               	.LBE9:
 239               	.LBE8:
 240               		.stabs	"main.c",132,0,0,.Ltext2
 241               	.Ltext2:
  64:main.c        **** 
  65:main.c        **** 	clock_prescale_set(clock_div_1);
  66:main.c        **** 	sei();
 242               		.stabn	68,0,66,.LM18-.LFBB2
 243               	.LM18:
 244               	/* #APP */
 245               	 ;  66 "main.c" 1
 246 0034 7894      		sei
 247               	 ;  0 "" 2
  67:main.c        **** 
  68:main.c        **** 	while(1) {
  69:main.c        **** 		seg[0] = counterVal%10;
 248               		.stabn	68,0,69,.LM19-.LFBB2
 249               	.LM19:
 250               	/* #NOAPP */
 251 0036 2AE0      		ldi r18,lo8(10)
  70:main.c        **** 		seg[1] = (counterVal/10)%10;
  71:main.c        **** 		if(timer > 14000) {            // Timer für Sleep
  72:main.c        **** 			set_sleep_mode(SLEEP_MODE_PWR_DOWN);
  73:main.c        **** 			EIMSK |= (1<<INT0);			//INT0 enable
  74:main.c        **** 			TCCR0B &= ~(1<<CS00);		//Timer0 disable
  75:main.c        **** 			SEG_OFF;
  76:main.c        **** 			wakeup = 1;				
 252               		.stabn	68,0,76,.LM20-.LFBB2
 253               	.LM20:
GAS LISTING /tmp/ccPGKZum.s 			page 33


 254 0038 31E0      		ldi r19,lo8(1)
 255               	.L9:
  69:main.c        **** 		seg[0] = counterVal%10;
 256               		.stabn	68,0,69,.LM21-.LFBB2
 257               	.LM21:
 258 003a 8091 0000 		lds r24,counterVal
 259 003e 622F      		mov r22,r18
 260 0040 0E94 0000 		call __udivmodqi4
 261 0044 9093 0000 		sts seg,r25
  70:main.c        **** 		seg[1] = (counterVal/10)%10;
 262               		.stabn	68,0,70,.LM22-.LFBB2
 263               	.LM22:
 264 0048 8091 0000 		lds r24,counterVal
 265 004c 0E94 0000 		call __udivmodqi4
 266 0050 0E94 0000 		call __udivmodqi4
 267 0054 9093 0000 		sts seg+1,r25
  71:main.c        **** 		if(timer > 14000) {            // Timer für Sleep
 268               		.stabn	68,0,71,.LM23-.LFBB2
 269               	.LM23:
 270 0058 8091 0000 		lds r24,timer
 271 005c 9091 0000 		lds r25,timer+1
 272 0060 A091 0000 		lds r26,timer+2
 273 0064 B091 0000 		lds r27,timer+3
 274 0068 813B      		cpi r24,-79
 275 006a 9643      		sbci r25,54
 276 006c A105      		cpc r26,__zero_reg__
 277 006e B105      		cpc r27,__zero_reg__
 278 0070 00F0      		brlo .L9
  72:main.c        **** 			set_sleep_mode(SLEEP_MODE_PWR_DOWN);
 279               		.stabn	68,0,72,.LM24-.LFBB2
 280               	.LM24:
 281 0072 83B7      		in r24,0x33
 282 0074 817F      		andi r24,lo8(-15)
 283 0076 8460      		ori r24,lo8(4)
 284 0078 83BF      		out 0x33,r24
  73:main.c        **** 			EIMSK |= (1<<INT0);			//INT0 enable
 285               		.stabn	68,0,73,.LM25-.LFBB2
 286               	.LM25:
 287 007a E89A      		sbi 0x1d,0
  74:main.c        **** 			TCCR0B &= ~(1<<CS00);		//Timer0 disable
 288               		.stabn	68,0,74,.LM26-.LFBB2
 289               	.LM26:
 290 007c 85B5      		in r24,0x25
 291 007e 8E7F      		andi r24,lo8(-2)
 292 0080 85BD      		out 0x25,r24
  75:main.c        **** 			SEG_OFF;
 293               		.stabn	68,0,75,.LM27-.LFBB2
 294               	.LM27:
 295 0082 459A      		sbi 0x8,5
 296 0084 5F9A      		sbi 0xb,7
 297               		.stabn	68,0,76,.LM28-.LFBB2
 298               	.LM28:
 299 0086 3093 0000 		sts wakeup,r19
  77:main.c        **** 			sleep_mode();
 300               		.stabn	68,0,77,.LM29-.LFBB2
 301               	.LM29:
 302 008a 83B7      		in r24,0x33
GAS LISTING /tmp/ccPGKZum.s 			page 34


 303 008c 8160      		ori r24,lo8(1)
 304 008e 83BF      		out 0x33,r24
 305               	/* #APP */
 306               	 ;  77 "main.c" 1
 307 0090 8895      		sleep
 308               		
 309               	 ;  0 "" 2
 310               	/* #NOAPP */
 311 0092 83B7      		in r24,0x33
 312 0094 8E7F      		andi r24,lo8(-2)
 313 0096 83BF      		out 0x33,r24
  78:main.c        **** 			EIMSK &= ~(1<<INT0);		//INT0 disable
 314               		.stabn	68,0,78,.LM30-.LFBB2
 315               	.LM30:
 316 0098 E898      		cbi 0x1d,0
  79:main.c        **** 			TCCR0B |= (1<<CS00);		//Timer 0 enable
 317               		.stabn	68,0,79,.LM31-.LFBB2
 318               	.LM31:
 319 009a 85B5      		in r24,0x25
 320 009c 8160      		ori r24,lo8(1)
 321 009e 85BD      		out 0x25,r24
  80:main.c        **** 			timer = 0;
 322               		.stabn	68,0,80,.LM32-.LFBB2
 323               	.LM32:
 324 00a0 1092 0000 		sts timer,__zero_reg__
 325 00a4 1092 0000 		sts timer+1,__zero_reg__
 326 00a8 1092 0000 		sts timer+2,__zero_reg__
 327 00ac 1092 0000 		sts timer+3,__zero_reg__
 328 00b0 00C0      		rjmp .L9
 329               		.size	main, .-main
 330               	.Lscope2:
 331               		.stabs	"",36,0,0,.Lscope2-.LFBB2
 332               		.stabd	78,0,0
 333               		.text
 334               		.stabs	"__vector_16:F(0,47)",36,0,86,__vector_16
 335               	.global	__vector_16
 336               		.type	__vector_16, @function
 337               	__vector_16:
 338               		.stabd	46,0,0
  81:main.c        **** 		}
  82:main.c        **** 	}
  83:main.c        **** 	return 1;
  84:main.c        **** }
  85:main.c        **** 
  86:main.c        **** ISR(TIMER0_OVF_vect) {
 339               		.stabn	68,0,86,.LM33-.LFBB3
 340               	.LM33:
 341               	.LFBB3:
 342 0040 1F92      		push r1
 343 0042 0F92      		push r0
 344 0044 0FB6      		in r0,__SREG__
 345 0046 0F92      		push r0
 346 0048 1124      		clr __zero_reg__
 347 004a CF92      		push r12
 348 004c DF92      		push r13
 349 004e EF92      		push r14
 350 0050 FF92      		push r15
GAS LISTING /tmp/ccPGKZum.s 			page 35


 351 0052 2F93      		push r18
 352 0054 3F93      		push r19
 353 0056 4F93      		push r20
 354 0058 5F93      		push r21
 355 005a 6F93      		push r22
 356 005c 7F93      		push r23
 357 005e 8F93      		push r24
 358 0060 9F93      		push r25
 359 0062 AF93      		push r26
 360 0064 BF93      		push r27
 361 0066 EF93      		push r30
 362 0068 FF93      		push r31
 363               	/* prologue: Signal */
 364               	/* frame size = 0 */
 365               	/* stack size = 19 */
 366               	.L__stack_usage = 19
  87:main.c        **** 	static uint8_t activeSeg = 0;
  88:main.c        **** 	static uint16_t buttonPressed = 0;
  89:main.c        **** 	uint8_t dp = 0;
  90:main.c        **** 	SEG_OFF;
 367               		.stabn	68,0,90,.LM34-.LFBB3
 368               	.LM34:
 369 006a 459A      		sbi 0x8,5
 370 006c 5F9A      		sbi 0xb,7
  91:main.c        **** 	if(activeSeg == 0) {
 371               		.stabn	68,0,91,.LM35-.LFBB3
 372               	.LM35:
 373 006e 8091 0000 		lds r24,activeSeg.1658
 374 0072 8111      		cpse r24,__zero_reg__
 375 0074 00C0      		rjmp .L12
  92:main.c        **** 		if(counterVal >= 100) dp = 1;
 376               		.stabn	68,0,92,.LM36-.LFBB3
 377               	.LM36:
 378 0076 9091 0000 		lds r25,counterVal
  93:main.c        **** 		setSeg7(seg[0], dp);
 379               		.stabn	68,0,93,.LM37-.LFBB3
 380               	.LM37:
 381 007a 8091 0000 		lds r24,seg
  92:main.c        **** 		if(counterVal >= 100) dp = 1;
 382               		.stabn	68,0,92,.LM38-.LFBB3
 383               	.LM38:
 384 007e 61E0      		ldi r22,lo8(1)
 385 0080 9436      		cpi r25,lo8(100)
 386 0082 00F4      		brsh .L13
 387 0084 60E0      		ldi r22,0
 388               	.L13:
 389               		.stabn	68,0,93,.LM39-.LFBB3
 390               	.LM39:
 391 0086 0E94 0000 		call setSeg7
  94:main.c        **** 		SEG0_ON;
 392               		.stabn	68,0,94,.LM40-.LFBB3
 393               	.LM40:
 394 008a 4598      		cbi 0x8,5
 395 008c 5F9A      		sbi 0xb,7
 396 008e 00C0      		rjmp .L14
 397               	.L12:
  95:main.c        **** 	}
GAS LISTING /tmp/ccPGKZum.s 			page 36


  96:main.c        **** 	else if(activeSeg == 1) {
 398               		.stabn	68,0,96,.LM41-.LFBB3
 399               	.LM41:
 400 0090 8130      		cpi r24,lo8(1)
 401 0092 01F4      		brne .L14
  97:main.c        **** 		if(counterVal >= 200) dp = 1;
 402               		.stabn	68,0,97,.LM42-.LFBB3
 403               	.LM42:
 404 0094 8091 0000 		lds r24,counterVal
 405 0098 61E0      		ldi r22,lo8(1)
 406 009a 883C      		cpi r24,lo8(-56)
 407 009c 00F4      		brsh .L15
 408 009e 60E0      		ldi r22,0
 409               	.L15:
  98:main.c        **** 		if(seg[1] == 0) setSeg7(10, dp);
 410               		.stabn	68,0,98,.LM43-.LFBB3
 411               	.LM43:
 412 00a0 8091 0000 		lds r24,seg+1
 413 00a4 8111      		cpse r24,__zero_reg__
 414 00a6 00C0      		rjmp .L16
 415               		.stabn	68,0,98,.LM44-.LFBB3
 416               	.LM44:
 417 00a8 8AE0      		ldi r24,lo8(10)
 418 00aa 00C0      		rjmp .L26
 419               	.L16:
  99:main.c        **** 		else setSeg7(seg[1], dp);
 420               		.stabn	68,0,99,.LM45-.LFBB3
 421               	.LM45:
 422 00ac 8091 0000 		lds r24,seg+1
 423               	.L26:
 424 00b0 0E94 0000 		call setSeg7
 100:main.c        **** 		SEG1_ON;
 425               		.stabn	68,0,100,.LM46-.LFBB3
 426               	.LM46:
 427 00b4 459A      		sbi 0x8,5
 428 00b6 5F98      		cbi 0xb,7
 429               	.L14:
 101:main.c        **** 	}
 102:main.c        **** 	activeSeg++;
 430               		.stabn	68,0,102,.LM47-.LFBB3
 431               	.LM47:
 432 00b8 C090 0000 		lds r12,activeSeg.1658
 433 00bc C394      		inc r12
 434 00be C092 0000 		sts activeSeg.1658,r12
 103:main.c        **** 	if(activeSeg > (timer/312)%10) activeSeg = 0;
 435               		.stabn	68,0,103,.LM48-.LFBB3
 436               	.LM48:
 437 00c2 6091 0000 		lds r22,timer
 438 00c6 7091 0000 		lds r23,timer+1
 439 00ca 8091 0000 		lds r24,timer+2
 440 00ce 9091 0000 		lds r25,timer+3
 441 00d2 D12C      		mov r13,__zero_reg__
 442 00d4 E12C      		mov r14,__zero_reg__
 443 00d6 F12C      		mov r15,__zero_reg__
 444 00d8 28E3      		ldi r18,lo8(56)
 445 00da 31E0      		ldi r19,lo8(1)
 446 00dc 40E0      		ldi r20,0
GAS LISTING /tmp/ccPGKZum.s 			page 37


 447 00de 50E0      		ldi r21,0
 448 00e0 0E94 0000 		call __udivmodsi4
 449 00e4 CA01      		movw r24,r20
 450 00e6 B901      		movw r22,r18
 451 00e8 2AE0      		ldi r18,lo8(10)
 452 00ea 30E0      		ldi r19,0
 453 00ec 40E0      		ldi r20,0
 454 00ee 50E0      		ldi r21,0
 455 00f0 0E94 0000 		call __udivmodsi4
 456 00f4 6C15      		cp r22,r12
 457 00f6 7D05      		cpc r23,r13
 458 00f8 8E05      		cpc r24,r14
 459 00fa 9F05      		cpc r25,r15
 460 00fc 00F4      		brsh .L18
 461               		.stabn	68,0,103,.LM49-.LFBB3
 462               	.LM49:
 463 00fe 1092 0000 		sts activeSeg.1658,__zero_reg__
 464               	.L18:
 465 0102 8091 0000 		lds r24,buttonPressed.1659
 466 0106 9091 0000 		lds r25,buttonPressed.1659+1
 104:main.c        **** 	//if(timer < 40000) activeSeg &= 0b00000111;      // Überlauf nach 7, für Dimmung der Anzeige
 105:main.c        **** 	//else activeSeg &= 0b01111111;
 106:main.c        **** 
 107:main.c        **** 	if(!(PIND & (1<<PD2))) {   //button ist gedrückt
 467               		.stabn	68,0,107,.LM50-.LFBB3
 468               	.LM50:
 469 010a 4A99      		sbic 0x9,2
 470 010c 00C0      		rjmp .L19
 108:main.c        **** 		if(buttonPressed < 32000) buttonPressed++;   // kleiner "zeit" dann zurücksetzen
 471               		.stabn	68,0,108,.LM51-.LFBB3
 472               	.LM51:
 473 010e 8115      		cp r24,__zero_reg__
 474 0110 2DE7      		ldi r18,125
 475 0112 9207      		cpc r25,r18
 476 0114 00F4      		brsh .L20
 477               		.stabn	68,0,108,.LM52-.LFBB3
 478               	.LM52:
 479 0116 0196      		adiw r24,1
 480 0118 9093 0000 		sts buttonPressed.1659+1,r25
 481 011c 8093 0000 		sts buttonPressed.1659,r24
 482 0120 00C0      		rjmp .L21
 483               	.L20:
 109:main.c        **** 		else counterVal = 0;  // counter wird gelöscht nach der "zeit"
 484               		.stabn	68,0,109,.LM53-.LFBB3
 485               	.LM53:
 486 0122 1092 0000 		sts counterVal,__zero_reg__
 487 0126 00C0      		rjmp .L21
 488               	.L19:
 110:main.c        **** 		//timer = 0;
 111:main.c        **** 	}
 112:main.c        **** 	else if(buttonPressed != 0) {   //Button nicht gedrückt
 489               		.stabn	68,0,112,.LM54-.LFBB3
 490               	.LM54:
 491 0128 0097      		sbiw r24,0
 492 012a 01F0      		breq .L21
 113:main.c        **** 		if(buttonPressed > 400 && buttonPressed < 32000 && wakeup == 0) {
 493               		.stabn	68,0,113,.LM55-.LFBB3
GAS LISTING /tmp/ccPGKZum.s 			page 38


 494               	.LM55:
 495 012c 8159      		subi r24,-111
 496 012e 9140      		sbci r25,1
 497 0130 8F36      		cpi r24,111
 498 0132 9B47      		sbci r25,123
 499 0134 00F4      		brsh .L22
 500               		.stabn	68,0,113,.LM56-.LFBB3
 501               	.LM56:
 502 0136 8091 0000 		lds r24,wakeup
 503 013a 8111      		cpse r24,__zero_reg__
 504 013c 00C0      		rjmp .L22
 114:main.c        **** 			counterVal++;   // knopf kurz gedrückt gewesen,
 505               		.stabn	68,0,114,.LM57-.LFBB3
 506               	.LM57:
 507 013e 8091 0000 		lds r24,counterVal
 508 0142 8F5F      		subi r24,lo8(-(1))
 509 0144 8093 0000 		sts counterVal,r24
 115:main.c        **** 			timer = 0;
 510               		.stabn	68,0,115,.LM58-.LFBB3
 511               	.LM58:
 512 0148 1092 0000 		sts timer,__zero_reg__
 513 014c 1092 0000 		sts timer+1,__zero_reg__
 514 0150 1092 0000 		sts timer+2,__zero_reg__
 515 0154 1092 0000 		sts timer+3,__zero_reg__
 516               	.L22:
 116:main.c        **** 		}
 117:main.c        **** 		wakeup = 0;          // nach aufwachen und knopf loslassen wird zähler null gesetzt und hochzäh
 517               		.stabn	68,0,117,.LM59-.LFBB3
 518               	.LM59:
 519 0158 1092 0000 		sts wakeup,__zero_reg__
 118:main.c        **** 		buttonPressed = 0;
 520               		.stabn	68,0,118,.LM60-.LFBB3
 521               	.LM60:
 522 015c 1092 0000 		sts buttonPressed.1659+1,__zero_reg__
 523 0160 1092 0000 		sts buttonPressed.1659,__zero_reg__
 524               	.L21:
 119:main.c        **** 	}
 120:main.c        **** 
 121:main.c        **** 	timer++;
 525               		.stabn	68,0,121,.LM61-.LFBB3
 526               	.LM61:
 527 0164 8091 0000 		lds r24,timer
 528 0168 9091 0000 		lds r25,timer+1
 529 016c A091 0000 		lds r26,timer+2
 530 0170 B091 0000 		lds r27,timer+3
 531 0174 0196      		adiw r24,1
 532 0176 A11D      		adc r26,__zero_reg__
 533 0178 B11D      		adc r27,__zero_reg__
 534 017a 8093 0000 		sts timer,r24
 535 017e 9093 0000 		sts timer+1,r25
 536 0182 A093 0000 		sts timer+2,r26
 537 0186 B093 0000 		sts timer+3,r27
 538               	/* epilogue start */
 122:main.c        **** }
 539               		.stabn	68,0,122,.LM62-.LFBB3
 540               	.LM62:
 541 018a FF91      		pop r31
GAS LISTING /tmp/ccPGKZum.s 			page 39


 542 018c EF91      		pop r30
 543 018e BF91      		pop r27
 544 0190 AF91      		pop r26
 545 0192 9F91      		pop r25
 546 0194 8F91      		pop r24
 547 0196 7F91      		pop r23
 548 0198 6F91      		pop r22
 549 019a 5F91      		pop r21
 550 019c 4F91      		pop r20
 551 019e 3F91      		pop r19
 552 01a0 2F91      		pop r18
 553 01a2 FF90      		pop r15
 554 01a4 EF90      		pop r14
 555 01a6 DF90      		pop r13
 556 01a8 CF90      		pop r12
 557 01aa 0F90      		pop r0
 558 01ac 0FBE      		out __SREG__,r0
 559 01ae 0F90      		pop r0
 560 01b0 1F90      		pop r1
 561 01b2 1895      		reti
 562               		.size	__vector_16, .-__vector_16
 563               		.stabs	"activeSeg:V(5,2)",38,0,87,activeSeg.1658
 564               		.stabs	"buttonPressed:V(5,4)",38,0,88,buttonPressed.1659
 565               		.stabn	192,0,0,.LFBB3-.LFBB3
 566               		.stabn	224,0,0,.Lscope3-.LFBB3
 567               	.Lscope3:
 568               		.stabs	"",36,0,0,.Lscope3-.LFBB3
 569               		.stabd	78,0,0
 570               		.stabs	"__vector_1:F(0,47)",36,0,124,__vector_1
 571               	.global	__vector_1
 572               		.type	__vector_1, @function
 573               	__vector_1:
 574               		.stabd	46,0,0
 123:main.c        **** 
 124:main.c        **** ISR(INT0_vect) {
 575               		.stabn	68,0,124,.LM63-.LFBB4
 576               	.LM63:
 577               	.LFBB4:
 578 01b4 1F92      		push r1
 579 01b6 0F92      		push r0
 580 01b8 0FB6      		in r0,__SREG__
 581 01ba 0F92      		push r0
 582 01bc 1124      		clr __zero_reg__
 583               	/* prologue: Signal */
 584               	/* frame size = 0 */
 585               	/* stack size = 3 */
 586               	.L__stack_usage = 3
 587               	/* epilogue start */
 125:main.c        **** 	
 126:main.c        **** }
 588               		.stabn	68,0,126,.LM64-.LFBB4
 589               	.LM64:
 590 01be 0F90      		pop r0
 591 01c0 0FBE      		out __SREG__,r0
 592 01c2 0F90      		pop r0
 593 01c4 1F90      		pop r1
 594 01c6 1895      		reti
GAS LISTING /tmp/ccPGKZum.s 			page 40


 595               		.size	__vector_1, .-__vector_1
 596               	.Lscope4:
 597               		.stabs	"",36,0,0,.Lscope4-.LFBB4
 598               		.stabd	78,0,0
 599               		.local	buttonPressed.1659
 600               		.comm	buttonPressed.1659,2,1
 601               		.local	activeSeg.1658
 602               		.comm	activeSeg.1658,1,1
 603               	.global	wakeup
 604               		.section .bss
 605               		.type	wakeup, @object
 606               		.size	wakeup, 1
 607               	wakeup:
 608 0000 00        		.zero	1
 609               	.global	timer
 610               		.type	timer, @object
 611               		.size	timer, 4
 612               	timer:
 613 0001 0000 0000 		.zero	4
 614               	.global	counterVal
 615               		.type	counterVal, @object
 616               		.size	counterVal, 1
 617               	counterVal:
 618 0005 00        		.zero	1
 619               	.global	seg
 620               		.type	seg, @object
 621               		.size	seg, 2
 622               	seg:
 623 0006 0000      		.zero	2
 624               	.global	seg7_PD
 625               		.section	.rodata
 626               		.type	seg7_PD, @object
 627               		.size	seg7_PD, 10
 628               	seg7_PD:
 629 0000 C6        		.byte	-58
 630 0001 FE        		.byte	-2
 631 0002 D4        		.byte	-44
 632 0003 F4        		.byte	-12
 633 0004 EC        		.byte	-20
 634 0005 E5        		.byte	-27
 635 0006 C5        		.byte	-59
 636 0007 F6        		.byte	-10
 637 0008 C4        		.byte	-60
 638 0009 E4        		.byte	-28
 639               	.global	seg7_PB
 640               		.type	seg7_PB, @object
 641               		.size	seg7_PB, 10
 642               	seg7_PB:
 643 000a 3F        		.byte	63
 644 000b BF        		.byte	-65
 645 000c 7F        		.byte	127
 646 000d 3F        		.byte	63
 647 000e BF        		.byte	-65
 648 000f 3F        		.byte	63
 649 0010 3F        		.byte	63
 650 0011 BF        		.byte	-65
 651 0012 3F        		.byte	63
GAS LISTING /tmp/ccPGKZum.s 			page 41


 652 0013 3F        		.byte	63
 653               		.stabs	"seg7_PB:G(0,48)=ar(0,49)=r(0,49);0;0177777;;0;9;(0,50)=k(5,2)",32,0,28,0
 654               		.stabs	"seg7_PD:G(0,48)",32,0,29,0
 655               		.stabs	"seg:G(0,51)=ar(0,49);0;1;(0,52)=B(5,2)",32,0,31,0
 656               		.stabs	"counterVal:G(0,52)",32,0,32,0
 657               		.stabs	"timer:G(0,53)=B(5,6)",32,0,33,0
 658               		.stabs	"wakeup:G(0,52)",32,0,34,0
 659               		.text
 660               		.stabs	"",100,0,0,.Letext0
 661               	.Letext0:
 662               		.ident	"GCC: (GNU) 4.8.2"
 663               	.global __do_copy_data
 664               	.global __do_clear_bss
GAS LISTING /tmp/ccPGKZum.s 			page 42


DEFINED SYMBOLS
                            *ABS*:0000000000000000 main.c
     /tmp/ccPGKZum.s:2      *ABS*:000000000000003e __SP_H__
     /tmp/ccPGKZum.s:3      *ABS*:000000000000003d __SP_L__
     /tmp/ccPGKZum.s:4      *ABS*:000000000000003f __SREG__
     /tmp/ccPGKZum.s:5      *ABS*:0000000000000000 __tmp_reg__
     /tmp/ccPGKZum.s:6      *ABS*:0000000000000001 __zero_reg__
     /tmp/ccPGKZum.s:111    .text:0000000000000000 setSeg7
     /tmp/ccPGKZum.s:642    .rodata:000000000000000a seg7_PB
     /tmp/ccPGKZum.s:628    .rodata:0000000000000000 seg7_PD
     /tmp/ccPGKZum.s:183    .text.startup:0000000000000000 main
     /tmp/ccPGKZum.s:617    .bss:0000000000000005 counterVal
     /tmp/ccPGKZum.s:622    .bss:0000000000000006 seg
     /tmp/ccPGKZum.s:612    .bss:0000000000000001 timer
     /tmp/ccPGKZum.s:607    .bss:0000000000000000 wakeup
     /tmp/ccPGKZum.s:337    .text:0000000000000040 __vector_16
     /tmp/ccPGKZum.s:600    .bss:000000000000000a activeSeg.1658
                             .bss:0000000000000008 buttonPressed.1659
     /tmp/ccPGKZum.s:573    .text:00000000000001b4 __vector_1

UNDEFINED SYMBOLS
__udivmodqi4
__udivmodsi4
__do_copy_data
__do_clear_bss
