:100000000C9434000C942D010C9451000C9451006C
:100010000C9451000C9451000C9451000C9451001C
:100020000C9451000C9451000C9451000C9451000C
:100030000C9451000C9451000C9451000C945100FC
:100040000C9473000C9451000C9451000C945100CA
:100050000C9451000C9451000C9451000C945100DC
:100060000C9451000C94510011241FBECFEFD8E026
:10007000DEBFCDBF11E0A0E0B1E0E0E8F3E002C0F8
:1000800005900D92A431B107D9F711E0A4E1B1E0D8
:1000900001C01D92AF31B107E1F70E9437010C9406
:1000A000BE010C940000662311F05E9801C05E9AB8
:1000B0008A3038F085B1806C85B98BB18B638BB990
:1000C000089525B190E0FC01E65FFE4F206C308181
:1000D000232325B92BB1FC01E050FF4F2B63808116
:1000E00028232BB908951F920F920FB60F92112457
:1000F000CF92DF92EF92FF922F933F934F935F93B4
:100100006F937F938F939F93AF93BF93EF93FF93DF
:10011000459A5F9A80911E0181110DC0909119013D
:1001200080911A0161E0943608F460E00E94530067
:1001300045985F9A14C0813091F48091190161E073
:10014000883C08F460E080911B01811102C08AE0C4
:1001500002C080911B010E945300459A5F98C09095
:100160001E01C394C0921E01609115017091160189
:100170008091170190911801D12CE12CF12C28E3EA
:1001800031E040E050E00E949C01CA01B9012AE040
:1001900030E040E050E00E949C016C157D058E052A
:1001A0009F0510F410921E0180911C0190911D0179
:1001B0004A990DC081152DE7920730F4019690936E
:1001C0001D0180931C0121C0109219011EC00097CF
:1001D000E1F0815991408F369B4788F4809114015A
:1001E00081110DC0809119018F5F809319011092C8
:1001F0001501109216011092170110921801109219
:10020000140110921D0110921C0180911501909112
:100210001601A0911701B09118010196A11DB11D01
:100220008093150190931601A0931701B0931801C4
:10023000FF91EF91BF91AF919F918F917F916F91BE
:100240005F914F913F912F91FF90EF90DF90CF9072
:100250000F900FBE0F901F9018951F920F920FB620
:100260000F9211240F900FBE0F901F901895459A72
:100270005F9A80EC84B980E287B98BEF8AB95A9A89
:1002800085B5816085BD80916E00816080936E0030
:1002900090E080E80FB6F89480936100909361003D
:1002A0000FBE78942AE031E080911901622F0E94FC
:1002B000900190931A01809119010E9490010E946F
:1002C000900190931B018091150190911601A091CE
:1002D0001701B0911801813B9643A105B10520F3A8
:1002E00083B7817F846083BFE89A85B58E7F85BDA3
:1002F000459A5F9A3093140183B7816083BF8895D4
:1003000083B78E7F83BFE89885B5816085BD1092E5
:100310001501109216011092170110921801C4CF06
:10032000991B79E004C0991F961708F0961B881F47
:100330007A95C9F780950895A1E21A2EAA1BBB1BD6
:10034000FD010DC0AA1FBB1FEE1FFF1FA217B307A1
:10035000E407F50720F0A21BB30BE40BF50B661FB7
:10036000771F881F991F1A9469F76095709580957B
:1003700090959B01AC01BD01CF010895F894FFCF8A
:10038000C6FED4F4ECE5C5F6C4E43FBF7F3FBF3FF3
:040390003FBF3F3FED
:00000001FF
